:020000041000EA
:1000000000B5324B212058609868022188439860DF
:10001000D860186158612E4B002199600221596106
:100020000121F02299502B49196001219960352056
:1000300000F044F80222904214D00621196600F024
:1000400034F8196E01211966002018661A6600F04E
:100050002CF8196E196E196E052000F02FF8012189
:100060000842F9D1002199601B49196000215960AB
:100070001A491B48016001219960EB211966A021F2
:10008000196600F012F800219960164914480160C1
:100090000121996001BC002800D000471248134993
:1000A000086003C880F30888084703B5996A0420EC
:1000B0000142FBD001200142F8D103BD02B5186610
:1000C0001866FFF7F2FF186E186E02BD00000240BE
:1000D000000000180000070000035F00212200005C
:1000E000F4000018222000A00001001008ED00E03C
:1000F00000000000000000000000000074B24E7A12
:1001000000200420F7010010C3010010C5010010F9
:10011000C1010010C1010010C1010010C101001097
:10012000C1010010C1010010C1010010C701001081
:10013000C1010010C1010010C9010010CB01001065
:10014000CD010010CD010010CD010010CD01001037
:10015000CD010010CD010010CD010010CD01001027
:10016000CD010010CD010010CD010010CD01001017
:10017000CD010010CD010010CD010010CD01001007
:10018000CD010010CD010010CD010010CD010010F7
:10019000CD010010CD010010CD010010CD010010E7
:1001A000CD010010CD010010CD010010CD010010D7
:1001B000CD010010CD010010CD010010CD010010C7
:1001C00000BE00BE00BE00BE00BE00BEEFF3058054
:1001D000103800BEF2EB8871A43C0210D43C02102F
:1001E0003402001090A31AE700201F49086006C8D7
:1001F00081F3088810471D48006800282FD10DA4FE
:100200000ECC002902D000F012F8F9E71849194A7B
:10021000002000E001C19142FCD1174988471749ED
:1002200088471749884700BEFDE701C901C29A42C5
:10023000FBD37047D43C0210C0000020601F002098
:10024000945B02100000042000000420945B021064
:10025000001004200010042000000000704709482E
:1002600006F0FEFF0047000008ED00E0000000D0AF
:10027000801F0020E8A60020B95F00107D0C001050
:10028000775F00105756000006005250ABB3605322
:100290007CF0011006005250861C03028CF0011005
:1002A000060052505422A29D94F0011005005250B5
:1002B000DE65F468945B0210F8B5C04610B5064CD4
:1002C0002378002B07D1054B002B02D0044800E017
:1002D00000BF0123237010BDF820002000000000A3
:1002E000D0CB0110044B10B5002B03D003490448B8
:1002F00000E000BF10BDC04600000000FC20002050
:10030000D0CB01107047000000B587B005AB04AA40
:1003100003A90B4803F0AAFE002803D108490948A5
:1003200005F0C6FE059A0499039803F063FE064B98
:10033000009301220021062005F0D6FB07B000BD86
:1003400088070200D0CB0110406BED07F0B589B0F3
:1003500004000D00012806D0002C02D1224B9D4242
:1003600036D009B0F0BD204B9942F5D11F4B1A0091
:1003700008321A6000225A601A721D4807F0C2FF44
:1003800004900590002802D0194B9C4660440690CA
:10039000079010273A0004A9684608F00FF8154E98
:1003A000300008303A00694608F008F82022B35CB3
:1003B0007F218B43B354104A0023136053600F4ACC
:1003C000136053600E4807F09DFF0E4B1860C3E7A3
:1003D000084B986807F0D4FF044B1868083398421C
:1003E000BFD007F0F5FFBCE7FFFF0000142100209D
:1003F00010270000C820002058A00020CC94002026
:10040000DC050000E4940020F8B5DE4657464E4671
:100410004546E0B58846170099460AAB1B889A46C0
:1004200052897968344807F0C9FF344B1B682C2285
:100430009A5C002AF9D12C3201219954304B1B6867
:100440002C229A5C002AF9D12C3201219954EFF325
:10045000108B72B6284B1B682A4A934231D02A4A25
:10046000934237D00025ADB2A02292002900362059
:100470000AF0FEFD04002A0024490BF023F8204B6B
:1004800019682C230022CA541C490968CA548BF3EA
:1004900010885246494640460FF0F2F92100404686
:1004A0000FF0D4F940460FF025FA20000AF094FD31
:1004B00038000AF091FDF0BCBB46B246A946A04602
:1004C000F8BD124B124A1A60124B186802F04AFE2D
:1004D0004425C8E70D4B104A1A600E4B186802F00D
:1004E00041FE002404E0044B1E5D0C4D2E550134EA
:1004F000432CF8DD0425B6E7649D0020DC220020B3
:10050000F09E0020646165727469727760A00020BB
:1005100061746164EC2300206E6B6361A89D002010
:1005200010B50B4AB023D358DA0702D49B0707D47F
:1005300010BD02F0F9FA064AA4230121D150F7E7D1
:1005400002F0FCFA024AA4230221D150F0E7C0468F
:100550000000054010B5302007F036FF0400094BBD
:100560001A68002102F0B8FB074B1C60302007F02E
:100570002BFF0400054B1A68012102F0ADFB044B70
:100580001C6010BDF0150020DC220020F4150020B6
:10059000F09E002070B53C4CA54400200DE05B08A7
:1005A0000132072A05D8D907F9D55B0837494B40EE
:1005B000F6E78200694653500130FF2802D8030055
:1005C0000022EEE7324B5A6880231B029A420FD872
:1005D0002F4B9B680322110019401A4211D00424AA
:1005E000641A22002B4808F0C9F800262A4D1BE0A7
:1005F0002A4B00221A702A4808F090F80120404245
:1006000036E00024EDE7685C5040FF2303409B0088
:1006100068461B58120A5A4001310029F3D0D243D0
:10062000204B1A6001350136194B9B681B19B342E8
:1006300004D91C4B1A68D2430021EEE7144C6168C0
:10064000194808F09BF8A168184808F097F8154D6C
:100650002968174808F092F822682B689A420BD054
:100660000E4B00221A70134808F058F8012040423F
:100670008023DB009D4470BD084B00221A700E4899
:1006800008F04CF80120F3E700FCFFFF2083B8EDF1
:1006900000001F1024CC011000021F10DDA6002056
:1006A00004CC0110182400203CCC011054CC0110C3
:1006B00070CC01107CCC01109CCC0110F0B5C6466A
:1006C00000B500AF224DAC68A6B2EFF3108872B649
:1006D0008021FC20090240031CF032FA88F31088C4
:1006E000AB6804331D0AEDB2FF2B01D90135EDB221
:1006F0002900184808F042F82A026B469B1A9D46CA
:10070000694600230B70481C931E03E0002505700A
:100710000130013B002BF9DA0C70360A4E700023D1
:1007200005E00D481D18181D2D780D5401332004C7
:10073000000C9842F5D8EFF3108472B6FC20400309
:100740001CF0CEF984F31088BD4680BCB846F0BDDD
:1007500000001F10BCCC011000021F10F0B5CE46E7
:10076000474680B583B08046384807F0D7FF384BFE
:100770001E68731C06D000223100404612F0D6FDE0
:1007800000243CE0334807F0C9FF334807F0C6FFB8
:1007900000223249404612F0C9FD002412E00F2326
:1007A0001EE0012300930023002231002C4812F0A8
:1007B00009FD2B4B1A6897555D601B685B19002279
:1007C0001A700134274B9C423BD8274B1F5D244BAA
:1007D0005E68751C1A6808339A42E0D0204B9B680B
:1007E0009D42E6D9DDE70F2318E01D4B1A68494604
:1007F000D1555D601B685B1900221A700134B44248
:1008000017D21A4BE3181B789946154B5F687D1C6D
:100810001A6808339A42E6D0114B9B689D42E4D98E
:10082000012300930023002239000D4812F0CAFC76
:10083000DBE7434619680E4807F0A0FF0D4B002286
:100840001A7003B0C0BCB946B046F0BDC8CC0110A8
:1008500000801F1000CD011034CD011002050000F2
:100860001421002001050000A8D7011004801F10EA
:1008700054CD0110E2A60020F0B5CE46474680B523
:1008800097B0884807F04AFF182007F09DFD040044
:1008900002F058FC844B1C60844B1868210002F065
:1008A000F5FA834B1B78002B04D017B0C0BCB946B7
:1008B000B046F0BD7F4B1A00083204927E4D05957C
:1008C00020229B5C9B061FD52E007A4B9C690BE077
:1008D000491B4B425941C8B2002816D10A22A35ED7
:1008E000002B0FD01B01E418002C0ED0E168002E65
:1008F000EED00029ECD028001BF0B8FA4342584152
:10090000C0B2E9E7002400E000240E94694B0833EC
:100910000F93002C02D0237A5B060BD50294654B13
:1009200008330393002C07D02268624B08330093EE
:10093000019290E00024F1E7002301938BE0002472
:1009400098E0491B4B425941C8B2002815D10A22F0
:10095000A35E002B10D01B01E418002C0DD0E16821
:100960004346002BEDD00029EBD028001BF07EFA87
:1009700043425841C0B2E8E7002412941397002C78
:1009800006D0227A7F231340033B012B0CD8246826
:100990004A4B0C934A4F0D975A6891461D68002D9B
:1009A00020D0B8462D680FE00024F1E738001BF096
:1009B0005DFA43425841C0B2002813D10A22AB5E0F
:1009C000002B0ED01B01ED18002D0BD0E96843461B
:1009D000002B01D00029E9D1C91B4B425941C8B2B3
:1009E000EAE7002510954B461193002D06D02A7A90
:1009F0007F231340033B012B1BD82D683149200076
:100A00001BF034FA002816D02F4920001BF02EFAD4
:100A1000002819D12D4928001BF028FA00283CD0C5
:100A20002B4928001BF022FA00280DD103F0DEF834
:100A30000AE00025E2E7274807F070FE2649280073
:100A40001BF014FA002825D00A22B35E002B27D011
:100A50001B01F618019600230793019E002E00D17A
:100A600023E7009F08960997341E03D0337A9B062C
:100A700000D464E714AB14941597104A110021CBED
:100A800021C10A92154D0B95002C00D175E7A8469F
:100A9000246862E702F070FED6E702F04DFCD3E76F
:100AA0000026D7E75CCD0110EC230020F09E00204B
:100AB000D7A60020C820002070CD0110CC940020C3
:100AC00080CD011088CD0110ACCD0110B4CD011046
:100AD00024E0011090CD0110A4CD011078CD0110BB
:100AE00010B584B008F0CCFF09F066F808F0B8FF44
:100AF00009F072F809F0B8F8902006221D490001AB
:100B000008F09AFD0021092008F066FC09F09CF924
:100B1000194C1A4B02931A4B019300230093194B63
:100B2000194A1A4920000AF083F836236522E25454
:100B30000133353AE254164920000AF047F91549C5
:100B400020000AF021F90023134A0421002008F0B4
:100B5000C5F8124B1870002808DB074C20000AF07B
:100B600017F920000AF0F6F804B010BD0C4807F0A1
:100B7000D5FDF2E7D81600203C29002085AB0010F7
:100B80000D9E0010542100205021002048210020FB
:100B9000D19D0010F59D001089130000E0A60020F3
:100BA000BCCD011010B5214C22000921002008F015
:100BB00053F92288002A00D110BD1D4B196800206E
:100BC00009F0CEF881B2194B1980002929D0C12231
:100BD000520000200AF04CFA164B1860134B1A888A
:100BE000134C21680AF06EFC206807F0C9FB12481C
:100BF00007F088FB20600D4B1B88002BDCD00D4BD1
:100C000018680028D8D00D4A5388013353800C4906
:100C10000B6998470028CFD0064B18680AF0DCF91A
:100C2000CAE7084807F07AFDE5E7C046C2A60020FB
:100C3000E4940020E0940020DC050000B8290020A6
:100C40003C290020D8CD011010B50EF093FE040011
:100C5000074A08490EF05AFC002805D1002206492F
:100C600020000EF059FE10BD20000EF061FEFAE7E4
:100C70002D6A0000482100200904001010B51D4B0A
:100C80001D4A1A601D4B1E4A1A601E4B1E4A1A60EE
:100C9000FFF73AFB07F07EFD1C4804F0AFFA1C4852
:100CA00007F06CFDFFF71CFFFFF7CEFF01F00AFF16
:100CB000184807F00FFFFFF775FF0EF073FA164B99
:100CC0001B78002BF7D0154807F028FDFFF762FCD2
:100CD0000028F0DD124807F021FDFFF7EFFC114876
:100CE00007F01CFD00221049002005F0E9F830BF94
:100CF000FDE7C046482100200A0A0A0A50210020C8
:100D0000FFFFFF00542100200A0A0A01B80B00006F
:100D1000ECCD011091260010DDA6002018CE0110A8
:100D20003CCE011064CE011000200420704700006A
:100D300070B582B005000E1E0DD0941B01940F2CCF
:100D40000ED82868012C14D0002C14D022003100B9
:100D500007F034FB0FE09142EFD00B4812F0E4F9BA
:100D6000002201A9280012F00FFA2860019BAB6055
:100D7000E7E733780370019A6A602B689B180022BA
:100D80001A7002B070BDC04680CE011070B5A4B01C
:100D9000A34807F0C3FC182007F016FB040002F07C
:100DA000D1F9A04B1C60A04B1868210002F06EF82E
:100DB0000024002C38D19D4A63001D19AD0055193F
:100DC0001B199B009958AB686A68994807F0D6FCD4
:100DD0006D6808AB0693002D24D028001BF08AF81C
:100DE0002A180023290006A8FFF7A2FF242007F0F5
:100DF000EBFA050063001B199B008C4AD3189B6813
:100E00008C4A126806A902F0EDF9069808AB9842E0
:100E100001D007F0DDFA844B1868290002F036F89B
:100E20000134C6E70122DCE7834B844A2433136094
:100E3000834B844A25331360002407E001221BE022
:100E4000794B1868290002F021F80134012C35D8BB
:100E50007D4EA5002B199B0099597C4807F08EFC0C
:100E60002D19AD0075196D680EAB0C93002DE5D0F2
:100E700028001BF03FF82A18002329000CA8FFF7D0
:100E800057FF482007F0A0FA0500A3001B199A009D
:100E90006D4B9B181A69187B9B686A490968029315
:100EA000019000920CAB0122280002F049FE0C9840
:100EB0000EAB9842C4D007F08BFAC1E7002407E0DC
:100EC00001221BE0584B1868290001F0DFFF0134B4
:100ED000022C35D85E4EA5002B199B0099595D4810
:100EE00007F04CFC2D19AD0075196D6814AB129309
:100EF000002DE5D028001AF0FDFF2A180023290054
:100F000012A8FFF715FF482007F05EFA0500A300BE
:100F10001B199A004E4B9B181A69187B9B6847490E
:100F2000096802930190009212AB0022280002F09F
:100F300007FE129814AB9842C4D007F049FAC1E7F3
:100F400000240DE001222BE001223AE0424E29006C
:100F5000306801F09BFF3068290001F081FF013407
:100F6000032C5BD821003D4807F008FC344AA1005F
:100F7000531804333A480B502F4B5B18043339484D
:100F80000B502432384B1A602201384B9B189D6855
:100F90001AAB1893002DD5D028001AF0ABFF2A18F1
:100FA0000023290018A8FFF7C3FE22012F4B9B182E
:100FB000DD6820AB1E93002DC6D028001AF09AFFE2
:100FC0002A181EAE002329003000FFF7B1FE7C2056
:100FD00007F0FAF905002201244B9B185A68A30078
:100FE0001F4959581F481B581F4800680490039315
:100FF000029116230193009618AB1D49280002F0B8
:1010000035FB1E9820AB984201D007F0E1F9189803
:101010001AAB98429AD007F0DBF997E724B070BD7D
:10102000ACCE0110EC230020F09E002040150020E3
:10103000D0CE0110F415002060A00020F89400200C
:10104000A89D00203095002088150020E8CE0110D2
:101050004C15002008CF0110DC22002028CF011001
:101060001895002000950020FC940020B015002069
:10107000409C0000704710B502AC247801604260CB
:10108000836004730023837310BD0000F0B589B042
:1010900005000E0083680293002203925A680692AC
:1010A00099688A1A07925960082206A904A807F0CD
:1010B00085F9AB7B002B06D16B685A1C6A601B78E4
:1010C0006B730123AB736F7B0023AB7312E06B7BFD
:1010D0000022AA739F423DD0002B16D05C2B17D064
:1010E0000498002806D0039A05998A422FD2511CF1
:1010F00003918354AB7B002BE9D16B685A1C6A6067
:101100001B786B730123AB73E1E7012009B0F0BDDD
:101110006B685A1C6A601B786B730122AA73002BE0
:1011200003D0752B03D01D4A04E00120EEE7042014
:10113000ECE702321478002C02D0A342F9D15378A4
:10114000002B02D00022AA73CAE70220DEE70023A8
:101150000493CFE7049B002B08D0039A05998A4299
:1011600017D2511C03919B1800221A70049B002B6C
:1011700009D00299039A059B0193D31A48688446C3
:1011800063444B600592049B3360002B04D0002025
:10119000BCE700230493E9E70320B7E754CF01102D
:1011A00070B588B004000D00837B002B06D1436826
:1011B0005A1C42601B78437301238373637B272B84
:1011C00000D1A2E0222B00D19FE0A368029300226D
:1011D00003925A68069299688A1A079259600822FF
:1011E00006A904A807F0EAF8A37B002B06D16368E0
:1011F0005A1C62601B7863730123A373637B002B0B
:1012000001D1012085E02F2B01D9392B0FD95E2B7D
:1012100001D97A2B10D9402B01D95A2B0ED92B2B5F
:101220000ED02D2B0ED02E2B0ED0002000E0012052
:10123000002811D102206CE00120F9E70120F7E736
:101240000120F5E70120F3E70120F1E700230493F3
:101250000EE00200002A34D00022A2730499002973
:1012600006D0039A059EB242F0D2561C03968B54C8
:10127000A37B002B06D163685A1C62601B786373E2
:101280000123A373637B2F2B01D9392BE1D95E2B6B
:1012900001D97A2B0BD9402B01D95A2B09D92B2BE9
:1012A00009D02D2B09D02E2B09D00022D2E7020025
:1012B000D0E70200CEE70200CCE70200CAE7020056
:1012C000C8E7049B002B08D0039A05998A4217D2DD
:1012D000511C03919B1800221A70049B002B09D00B
:1012E0000299039A059B0193D31A48688446634484
:1012F0004B600592049B2B60002B04D0002008E07B
:1013000000230493E9E7032003E029002000FFF70E
:10131000BDFE08B070BD000070B504000D000022D5
:10132000002306F0ADFA00280CD0084A084B200034
:10133000290006F09DFA002806D02000290006F0BA
:10134000FBFA00E0002070BD0020FCE70000E0FF99
:10135000FFFFEF410120002900D00020C0B27047FC
:1013600010B50400FFF7F6FF002801D0200010BDE3
:101370000020FCE70020704710B50400FFF7FAFFDB
:10138000002801D0604210BD0020FCE7704700003B
:1013900070B50400254B1B78BFF35B8FDB0705D5C9
:1013A000E000234C24182068616870BD1F4811F0CC
:1013B000ABFD0028F4D01F481F49FFF7E7FF1C4D85
:1013C000286069601D481E49FFF7E0FFA860E960DA
:1013D0001C481D49FFF7DAFF286169611B481C4959
:1013E000FFF7D4FFA861E9611A481B49FFF7CEFF58
:1013F0002862696219481A49FFF7C8FFA862E962C2
:1014000018481949FFF7C2FF28636963174818494C
:10141000FFF7BCFFA863E96316481749FFF7B6FF5B
:1014200028646964014811F08BFDB9E72C21002084
:10143000801F00209A9999999999B93F7B14AE47DA
:10144000E17A843F2D431CEBE2361A3F3A8C30E2BE
:101450008E79453EBC89D897B2D29C3C33A7A8D59B
:1014600023F649393DA7F444FD0FA5329D978CCF53
:1014700008BA5B25436FAC642806C80AF0B5D646A7
:101480004F464646C0B588B007000E000B782B2BA0
:1014900005D02D2B07D101362C3B984605E00136AF
:1014A0000023984601E00023984633786E2B17D02E
:1014B0004E2B15D0692B22D0492B20D01A00303A60
:1014C000D2B2092A32D92E2B59D0002200233A60F9
:1014D0007B6000220023BA60FB6000233B7407E0BE
:1014E0000020C249FFF752FFB860F96008233B743F
:1014F000380008B0E0BCBA46B146A846F0BD434645
:10150000002B0ED00020BA49FFF740FF80231B06B6
:101510009C46614402000B00BA60FB6008233B74E8
:10152000E6E70020B249FFF731FFF3E7002400258A
:10153000B946370039788C460E00303EF6B2092E97
:1015400025D8AC498D4222D81ED0A10FAB000B4349
:10155000A2002000290080185941001849410400C8
:101560000D00009600260196009EF643B2464E1CE2
:1015700020D0009C019D24184D410137DAE700245A
:101580000025B9463700D5E79B498C42DDD9604636
:101590003E004F46002812D13C607D6020002900AB
:1015A00006F0D6F9B860F9604346002B05D0072352
:1015B0003B749DE75045DCD9E9E70623F8E70023B3
:1015C000994633004E46994680235B039D420AD3D9
:1015D0000A2200232000290005F0D4FE04000D009B
:1015E000013636B2F0E74B46B1461E004946327826
:1015F0001300303BDBB2092B03D8013109B20136AD
:10160000F5E789462E2A15D03378652B3AD0452B3D
:1016100038D0002399443678002E00D185E000228E
:1016200000233A607B6000220023BA60FB60002345
:101630003B745DE701368A46B94613E0A20FA90064
:101640001143A00024184D4124196D410293002339
:101650000393029A039BA4185D415246013A13B2C8
:101660009A4601363378303BDBB2092B07D8634FFB
:10167000BD42F6D8E2D1624A9442F2D8DEE74F4644
:10168000D146C1E7701C73782D2B17D02B2B18D0A7
:1016900000260023B4464E46027811003039C9B204
:1016A000092939D89900CB185B00303A9B18F118FA
:1016B0009A225200914207DC0130EDE7B01C01266E
:1016C000E7E7B01C0026E4E76646002E0DD043464F
:1016D000002B07D0002280231B06BA60FB60082382
:1016E0003B7405E700220023F7E74346002B0ED0AA
:1016F00000203F49FFF74AFE80231B069C466144B9
:1017000002000B00BA60FB6008233B74F0E6002087
:101710003749FFF73BFEF3E7B1466646002E02D09D
:101720005B42060076E7060074E72000290006F019
:101730000FF90C0000904B46002B41DD4D460EE0AA
:101740004B46DA002F4B9B181A685B680098210003
:1017500006F045F80C0000906D100136F6B2002D31
:1017600064D0EB07F8D5B146274B1B78BFF35B8FEE
:10177000DB07E5D4244811F0C7FB0028E0D023485C
:101780002349FFF703FE1F4B9A469862D96221480E
:101790002149FFF7FBFD5346186359631F48204951
:1017A000FFF7F4FD53469863D9631E481E49FFF7BF
:1017B000EDFD534618645964134811F0C1FBBFE7AF
:1017C0005D4202E06D100136F6B2002D2ED0EB071F
:1017D000F8D53000FFF7DCFD02000B000098210077
:1017E00005F0FDFF0C000090ECE7C0460000F87F1C
:1017F0000000F07F999999199999999999990100FF
:1018000098999999F814002030210020176E05B599
:10181000B5B89346F5F93FE9034F384D321D30F91D
:101820004877825A3CBF737FDD4F15754346002BC6
:1018300003D080231B069C466444009A2300BA60B0
:10184000FB6008233B7453E630B597B00D00837BF3
:10185000002B06D143685A1C42601B784373012356
:101860008373437B002212E00124002C2DD03E2AFA
:101870002BD800218173541C06A98B5443685A1C31
:1018800042601B78437301238373437BE2B22F2BA7
:1018900001D9392BE8D95E2B01D97A2B0BD9402BF2
:1018A00001D95A2B09D92B2B09D02D2B09D02E2B3E
:1018B00009D00024D9E70124D7E70124D5E7012482
:1018C000D3E70124D1E70124CFE706AB00219954E7
:1018D0001B78742B07D0662B17D06E2B26D1042AC9
:1018E00022D001200DE02B7A7F318B432B72052112
:1018F0000B432B720120002128606960042A02D06A
:10190000012017B030BD0020FBE72B7A7F218B43ED
:101910002B7205210B432B72002000212860696087
:10192000052AEED00120ECE70020EAE706A9684688
:10193000FFF7A4FD6B461B7C072B05D0082B1DD0A1
:10194000062B0ED00220DCE72B7A7F2293432B72EA
:10195000072213432B72009B019C2B606C600020BC
:10196000CFE72B7A7F2293432B72062213432B72ED
:10197000009B019C2B606C600020C2E72B7A7F22C9
:1019800093432B72082213432B72029B039C2B6000
:101990006C600020B5E7000010B586B00C00837BBA
:1019A000002B06D143685A1C42601B784373012305
:1019B0008373437B2F2B53D89B005E4AD3589F469B
:1019C00001231A1CDBB2002B4CD102930393029B20
:1019D000002B4CD0101C06B010BD00238373DEE733
:1019E0000023837343685A1C42601B7843730122AF
:1019F00082732A2B03D02F2B22D00223E1E700236E
:101A00008373002111E04268531C436013784373D1
:101A100001238373437B002B0BD02F2B0BD02A3B4E
:101A20005A425341D9B200228273827B002AF1D1FB
:101A3000E9E70123C5E70029F1D000238373AEE76E
:101A40000023837343685A1C42601B78437301224E
:101A50008273002B02D00A2BF2D1A0E70123B0E75A
:101A60000023AEE7344B029300230393AFE7039BBD
:101A7000DB07AFD4837B002B06D143685A1C42603E
:101A80001B78437301238373437B5B2B14D07B2B25
:101A900020D0837B002B06D143685A1C42601B7800
:101AA000437301238373437B272B21D0222B1FD029
:101AB0002100FFF7C9FE8EE7237A7F22934323722A
:101AC000402213432372002323606360210000F04F
:101AD000ABF880E7237A7F229343237220221343BB
:101AE0002372002323606360210000F005FA72E78F
:101AF00001A9FFF7CBFAC3B2002B16D104930593CB
:101B0000049B002B00D066E7059BDB0700D562E74E
:101B10000198FFF70BF9237A7F2293432372042263
:101B2000134323722060002055E7034B04930023E6
:101B30000593E5E760CF01100503001070B586B08E
:101B40000400151C03684360C3688360037E7F2222
:101B500093430376002912D00E002000FFF78AFA83
:101B60000300EDB200953200210002A8FFF783FACE
:101B70002100103102A8FFF70FFF06B070BD014E23
:101B8000EBE7C04650CC011010B5FFF7D7FF10BDF2
:101B900010B51B4B1B78002B00D010BD194806F068
:101BA000BDFD194B1968194832220830FFF7ECFFC8
:101BB000041C174806F0E2FDE4B2022C11D0032CFD
:101BC00016D0002C06D0134806F0A8FD124B0122B7
:101BD0001A7002E0114806F0A1FD0A2006F038FD57
:101BE000DBE70F4806F09AFD0B4B01221A70F4E771
:101BF0000C4806F093FD084B01221A70EDE7C04631
:101C0000E2A6002020D0011014210020C8200020CE
:101C100044D00110A0D00110D7A6002060D0011040
:101C20007CD001108CD0011030B587B004000D00BD
:101C3000037B002B02D1052007B030BD837B002B36
:101C400006D143685A1C42601B7843730123837397
:101C5000637B5B2B01D00220EEE70023A373A37B01
:101C6000002B06D163685A1C62601B7863730123E2
:101C7000A373637B2F2B00D9A5E09B009B4AD3580D
:101C80009F460123181CDBB2002B00D09DE000937F
:101C90000193009B002BCFD1019BDB07CCD4A37B0E
:101CA000002B06D163685A1C62601B7863730123A2
:101CB000A373637B5D2B00D18CE0226853681033E3
:101CC00091688B4200D989E010399160002900D1D8
:101CD00084E06B68002B00D182E0CA1A12115A818D
:101CE000696000234B8100220A72CB6000297AD000
:101CF000237B013B23732000FFF74EFE237B013340
:101D00002373C3B2002B70D102930393029B002B69
:101D100000D091E7039BDB0700D58DE7A37B002B69
:101D200006D163685A1C62601B7863730123A37336
:101D3000637B2F2B00D9CBE09B006D4AD3589F4685
:101D40000023A3738BE70023A37363685A1C6260AC
:101D50001B7863730122A2732A2B03D02F2B22D06E
:101D600002238FE70023A37300210AE0637B002B8B
:101D700012D02F2B12D02A3B5A425341D9B2002203
:101D8000A273A27B002AF1D16268531C63601378AE
:101D900063730123A373E9E7012373E70029EAD002
:101DA0000023A3735BE70023A37363685A1C62607C
:101DB0001B7863730122A273002B02D00A2BF2D18D
:101DC0004DE701235EE700235CE74A4B00930023C5
:101DD00001935EE70023A37300202DE7002185E730
:101DE000296069607DE7032026E7424B02930023C8
:101DF00003938BE70123181CDBB2002B6AD10493F9
:101E00000593049B002B00D016E7059BDB0700D54C
:101E100012E7A37B002B06D163685A1C62601B7813
:101E200063730123A373637B5D2B58D0A37B002BCB
:101E300006D163685A1C62601B7863730123A37325
:101E4000637B2C2B4FD00220F6E60023A37365E7BB
:101E50000023A37363685A1C62601B7863730122BA
:101E6000A2732A2B03D02F2B22D00223C3E70023F7
:101E7000A37300210AE0637B002B12D02F2B12D01A
:101E80002A3B5A425341D9B20022A273A27B002AB4
:101E9000F1D16268531C6360137863730123A373E9
:101EA000E9E70123A7E70029EAD00023A37335E778
:101EB0000023A37363685A1C62601B78637301225A
:101EC000A273002B02D00A2BF2D127E7012392E75D
:101ED000002390E7074B04930023059391E7002329
:101EE000A3730020A8E60023A373E6E6B8D0011090
:101EF00078D101100503001070B58EB004000D00FC
:101F0000037B002B02D105200EB070BD837B002B1C
:101F100006D143685A1C42601B78437301238373C4
:101F2000637B7B2B01D00220EEE70023A373A37B0E
:101F3000002B06D163685A1C62601B78637301230F
:101F4000A373637B2F2B00D9A8E09B00C24AD35810
:101F50009F460123181CDBB2002B00D0A0E00293A7
:101F60000393029B002BCFD1039BDB07CCD4A37B35
:101F7000002B06D163685A1C62601B7863730123CF
:101F8000A373637B7D2B00D18FE0226853681033ED
:101F90009668B34200D98CE0103E9660002E00D1C6
:101FA00087E06B68002B00D185E0F21A12115A818C
:101FB0006E600023738100223272F360002E7DD0A8
:101FC00001A92000FFF7ECF8C3B2002B78D10493ED
:101FD0000593049B002B97D1059BDB0700D593E766
:101FE0000198FEF7A3FE327A80235B4213433372DB
:101FF000F060A37B002B06D163685A1C62601B78DB
:1020000063730123A373637B2F2B00D9BEE09B0076
:10201000924AD3589F460023A37388E70023A373F3
:1020200063685A1C62601B7863730122A2732A2BB7
:1020300003D02F2B22D002238CE70023A37300218F
:102040000AE0637B002B12D02F2B12D02A3B5A427E
:102050005341D9B20022A273A27B002AF1D1626857
:10206000531C6360137863730123A373E9E70123AF
:1020700070E70029EAD00023A37358E70023A37375
:1020800063685A1C62601B7863730122A273002B81
:1020900002D00A2BF2D14AE701235BE7002359E77C
:1020A0006F4B0293002303935BE70023A37300208D
:1020B0002AE7002682E72E606E607AE7032023E796
:1020C000674B04930023059383E70123181CDBB2BD
:1020D000002B5DD106930793069B002B00D013E7DE
:1020E000079BDB0700D50FE7A37B002B06D16368B6
:1020F0005A1C62601B7863730123A373637B3A2BC2
:102100004BD0022000E70023A37372E70023A373E0
:1021100063685A1C62601B7863730122A2732A2BC6
:1021200003D02F2B22D00223D0E70023A37300215A
:102130000AE0637B002B12D02F2B12D02A3B5A428D
:102140005341D9B20022A273A27B002AF1D1626866
:10215000531C6360137863730123A373E9E70123BE
:10216000B4E70029EAD00023A37342E70023A37356
:1021700063685A1C62601B7863730122A273002B90
:1021800002D00A2BF2D134E701239FE700239DE719
:10219000334B0693002307939EE70023A373237B0F
:1021A000013B237331002000FFF7F6FB237B013353
:1021B0002373C3B2002B04D0294B08930023099347
:1021C00002E0002308930993089B002B00D09BE6B4
:1021D000099BDB0700D597E6A37B002B06D163683C
:1021E0005A1C62601B7863730123A373637B2F2BDC
:1021F00079D89B001B4AD3589F460123181CDBB299
:10220000002B72D10A930B930A9B002B00D07BE624
:102210000B9BDB0700D577E6A37B002B06D1636819
:102220005A1C62601B7863730123A373637B7D2B4D
:1022300060D0A37B002B06D163685A1C62601B78B8
:1022400063730123A373637B2C2B57D002205BE6BF
:102250000023A373C0E7C04638D20110F8D20110A2
:1022600005030010B8D301100023A37363685A1C40
:1022700062601B7863730122A2732A2B03D02F2B79
:1022800021D00223BAE70021A1730AE0637B002B6F
:1022900012D02F2B12D02A3B5A425341D9B20022DE
:1022A000A273A27B002AF1D163685A1C62601B787A
:1022B00063730123A373E9E701239FE70029EAD0B1
:1022C0000023A37388E70023A37363685A1C62602A
:1022D0001B7863730122A273002B02D00A2BF2D168
:1022E0007AE701238AE7002388E73B4B0A93002320
:1022F0000B9389E70023A373002005E60023A37353
:10230000A37B002B06D163685A1C62601B78637341
:102310000123A373637B2F2B4FD89B002F4AD358E5
:102320009F460123181CDBB2002B48D02A4B0C938C
:1023300000230D9346E00023A373E1E70023A3737A
:1023400063685A1C62601B7863730122A2732A2B94
:1023500003D02F2B21D00223E4E70022A2730AE04E
:10236000637B002B12D02F2B12D02A3B5A425341B1
:10237000DAB20023A373A37B002BF1D16368591C4D
:1023800061601B7863730123A373E9E70123C9E745
:10239000002AEAD00023A373B2E70023A373636883
:1023A0005A1C62601B7863730122A273002B02D057
:1023B0000A2BF2D1A4E70123B4E70023B2E70023FC
:1023C0000C930D930C9B002B00D09DE50D9BDB0720
:1023D00000D4DAE598E5C0460503001078D4011072
:1023E00000B587B001006846FFF748F86B461B7CD4
:1023F000072B06D0082B0ED0062B07D0002007B0E5
:1024000000BD00980199FEF7B7FFF8E70098019921
:10241000FEF7A6FFF3E702980399FEF77DFFEEE7CC
:10242000F0B5CE46474680B597B08C4B1B78002B55
:1024300004D017B0C0BCB946B046F0BD884806F01D
:102440006DF9884B1A0008320492874D05952022B9
:102450009B5C9B061FD52E00824B9C690DE02800DB
:1024600019F004FD43425841C0B2002814D10A2299
:10247000A35E002B0DD01B01E418002C0CD0E168EA
:10248000002E01D00029EAD1491B4B425941C8B264
:10249000EBE7002400E000240E94724B08330F9306
:1024A000002C02D0237A5B060BD502946D4B0833C7
:1024B0000393002C07D022686A4B083300930192E3
:1024C0009DE00024F1E70023019398E00024A5E0BB
:1024D000491B4B425941C8B2002815D10A22A35EBC
:1024E000002B10D01B01E418002C0DD0E1684346EE
:1024F000002BEDD00029EBD0280019F0B7FC4342A7
:102500005841C0B2E8E7002412941397002C06D07B
:10251000227A7F231340033B012B0CD82468534BB2
:102520000C93534F0D975A6891461D68002D20D08B
:10253000B8462D680DE00024F1E7C91B4B42594114
:10254000C8B2002815D10A22AB5E002B10D01B01A7
:10255000ED18002D0DD0E9684346002BEDD0002981
:10256000EBD0380019F082FC43425841C0B2E8E792
:10257000002510954B461193002D2CD02A7A7F23ED
:102580001340072B1AD00FD8042B09D9053BDBB217
:10259000012B1ED828686968FEF7E2FE05001BE0E3
:1025A000032B11D2002517E0082B05D12868696894
:1025B000FEF7B2FE05000FE000250DE0286869680F
:1025C000FEF7DAFE050007E02868FFF709FF0500BF
:1025D00002E0002500E000252649200019F046FC15
:1025E00000282BD02449200019F040FC00282CD0D2
:1025F0000A22B35E002B2FD01B01F6180196002390
:102600000793019E002E00D113E7009F08960997BB
:10261000341E03D0337A9B0600D457E714AB1494CE
:102620001597124A110021CB21C10A92134D0B9527
:10263000002C00D168E7A846246855E7104B1D60C0
:102640002900104806F09AF8D2E70F4B1D602900C8
:102650000E4806F093F8CBE70026CFE7D7A6002078
:1026600038D50110C820002050D5011058A00020F6
:1026700058D5011088CD0110ACCD011078CD0110D6
:10268000F015002064D50110F41500208CD5011040
:1026900070B586B04A4806F071F80525002645E079
:1026A000350043E0022641E0AE421BD14549684671
:1026B00010F050FE6846FEF751F8009802AB9842C1
:1026C00001D005F085FEFFF763FAFFF7A9FEFDF7DD
:1026D00041FF3D4B1B78002B08D0FEF757FB350020
:1026E000012409E0394806F019F8DFE7FEF7C4F8DD
:1026F0003500012400E03400AC421DD1344B1B787E
:10270000002B1DD00226A6422FD1324B186800F0B4
:102710002CFD0028C4D035000326AE4229D12D4B14
:10272000186800F022FD002827D03500052EFDD8BE
:10273000B300294AD3589F46284805F0EFFFDDE74C
:10274000274805F0EBFF274B186800F0DBFA264816
:1027500005F0E4FF254B186800F0D4FA1C4B012269
:102760001A700226CFE72C00CDE7214805F0D6FFEE
:10277000CBE7204805F0D2FFD1E705250CE0250086
:102780003400AC42FBD01C4805F0C8FFF7E734002A
:10279000F7E72B0035001E00B5420CD1174805F0B5
:1027A000BDFF44235A1E002B00DC7BE7144B0021A5
:1027B00099541300F6E7134805F0B0FFEEE7C04662
:1027C000B4D5011014210020E2A60020E0D50110AC
:1027D000E6A60020EC230020D0D60110FCD5011085
:1027E00018D60110DC22002034D60110F09E002003
:1027F00050D6011068D6011084D60110B8D6011049
:10280000A89D00209CD6011010B502490120FDF7BB
:102810009DFD10BDFFFF000040787047002303704E
:102820004170704710B5408807F020FB10BD10B50F
:102830000400080007F01AFB608010BD10B504000A
:10284000080007F0CFFE20000DF054F820000DF036
:102850006FF8034B1868002202490DF05DF810BDB7
:102860004C2100205D290010F0B583B006000F0058
:1028700015001C0000230193042101A8FFF7CEFFDF
:10288000A1B201A8FFF7D3FFC122520004213620D4
:1028900008F0EEFB041E11D0042201A9406805F0E7
:1028A0008DFDABB23A00210030000CF08DFF050029
:1028B000200008F091FB280003B0F0BD01256D4217
:1028C000F9E70000F0B5D6464F464646C0B580460B
:1028D0000F0091468A20800007F088FF041E31D047
:1028E0000223036083239B003A68C25004334A46A4
:1028F000C2508526B600002585510833C550020018
:10290000134940460DF008F8124B1D6006F06EF8B2
:10291000EFF3108A72B68021F8256D0309022800B2
:102920001AF00EF98AF310880B4B1D60A3594A4622
:1029300039004046FFF798FF0020E0BCBA46B14698
:10294000A846F0BD01004046FFF778FFF4E7C04617
:10295000A52900104021002044210020F8B51600D0
:102960001D0006AC27880DF005F8041E10D00022CB
:102970000B490CF0CBFD00280AD17068FFF74CFF23
:10298000022806D020000CF0D3FF300008F024FB12
:10299000F8BD3A0029002000FFF794FFF5E7C04694
:1029A00070190210F0B5D6464F4680B5404CA5448C
:1029B00005000E00140001938AAB1F8800230293C8
:1029C000FE225200002103A805F0F2FC638922894F
:1029D00093422DD1042B08D96068FFF723FF85238C
:1029E0009B00EB580133984229D06068FFF71AFF2B
:1029F00085239B00EB580133984251D085239B00DF
:102A0000EB583A0001993000FFF72EFF62898123CD
:102A10009B009A4248D229003000FFF70FFF2000A8
:102A200008F0DAFA234B01221A70234805F076FEEB
:102A300083239B009D44C0BCBA46B146F0BD628969
:102A4000043A92B2042302A9200008F0EFFC638943
:102A50001A4A11688C466344043B1360EFF3108AF2
:102A600072B68022164B9946920002A918681AF095
:102A700037F88AF310884B461B68802292009446F0
:102A800063444A46136085229200AB580133AB5031
:102A90006389043B0432A9588C466344AB50ADE7CC
:102AA00085229200AB50A9E7200008F095FABFE715
:102AB000F4FDFFFFDDA60020ACDC0110402100206A
:102AC0004421002010B50CF055FF094B1860002878
:102AD00005D0452207490CF019FD002800D010BD93
:102AE000034B1868002204490CF016FFF7E7C046B4
:102AF0004C210020701902105D290010014B036069
:102B00007047C04604DD011070B504000D000100DF
:102B1000034805F033FEA400024BE55070BDC046EB
:102B2000C8DC01106821002010B5034B1868036849
:102B30001B68984710BDC0466821002010B5034BA4
:102B4000586803681B68984710BDC046682100207C
:102B500010B5406800F014F810BD000070B5040016
:102B60000D001600FFF7CAFF044B083323606660B0
:102B700021002800FFF7C8FF200070BD08DD01100C
:102B800010B5C06800F0CBF810BD0000F0B5C64627
:102B900000B5060001793D4805F0F0FDB1683C48FC
:102BA00004F0B2FB0400012501E064086D008023FD
:102BB0005B029C42F9D280235B009D4262D8671E73
:102BC0003B002A00B168334805F0D8FD29003048A1
:102BD00004F09AFB210004F097FB05F06BFA05F076
:102BE000CBFA02000B002C4805F0C8FD337998465B
:102BF000280005F05FFA051C05F0B6FAC4B2200003
:102C000005F05EFA011C281C05F02BFA8321C9058A
:102C100005F047FA05F0A8FAC0B224010443434680
:102C20009A00424492001D4B9C46624454603379A2
:102C30003F043F0C9A00D218920062441761337926
:102C4000012211009940164B196031798B005B18F5
:102C50009B00634419688A43802149010B431A6031
:102C60001049042001F0ACFB0021042001F0A8FC75
:102C70000121042001F094FB0B4805F04FFD80BCBE
:102C8000B846F0BD094805F049FD98E714DD01108C
:102C9000406BED0754DD011088DD01100000054098
:102CA000A820054021050010A8DD01103CDD011021
:102CB00070B5040001718260C360082005F084FBD8
:102CC000050021792200FFF749FF25602000FFF76A
:102CD0005DFF200070BD000070B5040001718260CE
:102CE0000025056145618561C561056245628562B2
:102CF0001100034805F042FD2C23E554200070BD6F
:102D0000B8DD011070B50400102005F05DFB050072
:102D100021792300A268FFF7CBFF256070BD10B5B5
:102D200004002C23E35C002BFBD12C330122E25462
:102D30002369A36205E0186800F0BEF9A36A0433B2
:102D4000A362A36A62699342F5D1237B002B0CD066
:102D5000E369A362A36A226A934206D0186800F06E
:102D6000BDF9A36A0433A362F4E72C230022E254E2
:102D700010BD0000F0B5DE4657464E464546E0B56C
:102D800083B005008846160001230093436802685B
:102D90009C1AA410304A0121A24243D001948C42D3
:102DA00043D301AA1268A4182A689B1A9B109C425C
:102DB0003DD380239B059C423BD22B6899466B6890
:102DC0009A4643464A469B1A9B46002C35D08023A0
:102DD0009B059C422FD2A00005F0F6FA07005B4647
:102DE0003268FA5043464A469E1A002E27DCBE1926
:102DF0000436534642469B1A9A46002B25DC56441D
:102E00004B46002B02D0484605F0E2FA2F606E6078
:102E1000A4003C19AC6003B0F0BCBB46B246A94666
:102E2000A046F0BD0D4810F097F96A46BAE70A4C83
:102E3000C3E7094CC1E710F067F90027CFE732007C
:102E40004946380018F062FDD1E71A0041463000CB
:102E500018F05CFDD3E7C046FFFFFF1FCCDD01107B
:102E600010B582B0040001911C304168836899421A
:102E700008D0019B0B604368043343600123237334
:102E800002B010BD01AAFFF775FFF7E700B583B0E8
:102E90000191103041688368994206D0019B0B6014
:102EA00043680433436003B000BD01AAFFF762FF2B
:102EB000F9E7000010B504001A4805F02FFC23685C
:102EC0001A78472A2AD1DA78303A92B262839B780C
:102ED000303B9BB2002B04D099005B185B00D318E9
:102EE0006383618BA183104805F048FCA08B01F03F
:102EF00047F9A28B01239340226A002A0AD0D022EC
:102F000012065362A08B2523E25C013BE15C01F0D9
:102F10001DF910BDD02212069362F3E7034805F0B5
:102F2000FDFBF6E7E8DD0110F8DD011008DE011019
:102F300070B582B005000E1E0DD0941B01940F2CAD
:102F40000ED82868012C14D0002C14D02200310097
:102F500005F034FA0FE09142EFD00B4810F0E4F89E
:102F6000002201A9280010F00FF92860019BAB6036
:102F7000E7E733780370019A6A602B689B18002298
:102F80001A7002B070BDC04680CE011070B504004A
:102F9000080016001D0023000833236009684268FA
:102FA0008A1800232000FFF7C3FFF6B22676EDB2A1
:102FB0006576002E24D100222262032D0DD0042D2F
:102FC00015D0022D23D1144805F0A8FB242301229B
:102FD000E25401330022E25419E0104805F09EFB50
:102FE00024230022E25401330132E2540FE00C4862
:102FF00005F094FB00232422A3540132A35406E0DD
:103000000123236200232422A3540132A35420006D
:10301000FFF750FF200070BD2CDE011048DE0110CC
:1030200064DE011070B504000B00150002000832C8
:10303000026009685A688A180023FFF779FFEDB229
:103040002576002D0AD1002323622422A3540132C5
:10305000A3542000FFF72EFF200070BD0123236240
:1030600000232422A3540132A354F2E7014B083376
:103070000360704798DE01107047704770477047D3
:10308000704710B50400FFF7F1FF200005F0A0F92C
:10309000200010BD10B50400054B08330360002369
:1030A00003610133C360034805F038FB200010BD05
:1030B00098DE011080DE011010B5040003690133B1
:1030C0000361C268934204DB03681B6998470023CD
:1030D000236123689B682000984710BD10B50368E2
:1030E000DB68984710BD037D002B0CD0002383754F
:1030F00001334375837D052B02D900238375437506
:10310000002303757047837D01338375F2E7000068
:1031100010B50400034B08330360FFF7A7FF20003E
:1031200010BDC046F4DE011010B50400044B083396
:103130000360FFF79BFF200005F04AF9200010BD57
:10314000F4DE011010B50400FFF7A4FF034B0833B1
:103150002360034805F0E2FA200010BDF4DE011000
:10316000BCDE0110012303757047407D7047C369C1
:103170000133C3618269520893420FD3026A037D0F
:1031800001214B40DBB20375002B08D0928B012349
:103190009340D022120653610023C3617047928B83
:1031A00001239340D02212069361F5E77047000097
:1031B00010B50400034B08330360FFF757FF2000EE
:1031C00010BDC04628DF011010B50400044B0833C1
:1031D0000360FFF74BFF200005F0FAF8200010BD58
:1031E00028DF0110F0B587B004000D0016001F00A5
:1031F000FFF750FF1A4B083323603900300004F00A
:1032000083F8A0610023E361237502AE009629686C
:103210006A688A186846FFF78BFE282005F0D4F804
:10322000050001226946FFF7FDFE25620098B042C5
:1032300001D005F0CDF8236A227D002A08D09A8BB0
:1032400001239340D02212065361200007B0F0BD45
:103250009A8B01239340D02212069361F5E7C04672
:1032600028DF011070B504000D0000220A4B04F0A5
:1032700007FB00280CD0094A094B2000290004F064
:10328000F7FA002806D02000290004F031FB00E006
:10329000002070BD0020FCE70000E0C10000C0FF7E
:1032A000FFFFDF410123002904D104D1802212064F
:1032B000904200D30023D8B2704710B50400FFF746
:1032C000F1FF002801D0200010BD0020FCE7012301
:1032D000002904D104D180221206904200D9002393
:1032E000D8B2704710B50400FFF7F1FF002801D0F5
:1032F000604210BD0020FCE700B587B001006846C1
:10330000FEF7BCF86B461B7C072B06D0082B0ED0B3
:10331000062B07D0002007B000BD00980199FFF7E9
:10332000E1FFF8E700980199FFF7C7FFF3E702987C
:103330000399FFF797FFEEE7F0B5C64600B592B0E8
:10334000754B0093754D01955F681C68002C1DD06E
:103350002E0024680BE0491B4B425941C8B200289B
:1033600014D10A22A35E002B0FD01B01E418002CFD
:103370000CD0E168002EEED00029ECD0280018F027
:1033800075FD43425841C0B2E9E7002410941197FB
:10339000002C06D0227A7F231340033B012B0FD849
:1033A000246821005E4805F0E9F95B4B02935D4D0E
:1033B00003955F681C68002C1FD02E0024680DE068
:1033C0000024EEE7491B4B425941C8B2002814D1F2
:1033D0000A22A35E002B0FD01B01E418002C0CD096
:1033E000E168002EEED00029ECD0280018F03EFD58
:1033F00043425841C0B2E9E700240E940F97002CD5
:1034000006D0227A7F231340033B012B0CD824687B
:10341000414B0493444E05965A6890461D68002D12
:103420001FD037002D680FE00024F1E7300018F0BE
:103430001DFD43425841C0B2002812D10A22AB5EA2
:10344000002B0DD01B01ED18002D0AD0E968002FCC
:1034500001D00029EAD1891B4B425941C8B2EBE7A0
:1034600000250C9543460D93002D2CD02A7A7F23FE
:103470001340072B1AD00FD8042B09D9053BDBB218
:10348000012B1ED828686968FFF717FF05001BE0AD
:10349000032B11D2002517E0082B05D12868696895
:1034A000FFF7E0FE05000FE000250DE028686968E1
:1034B000FFF718FF050007E02868FFF71DFF05006C
:1034C00002E0002500E0002508AB0693002C21D087
:1034D000200018F00FFD22180023210006A8FDF798
:1034E00027FC242004F070FF0400104B1A682B0006
:1034F00006A9FFF777FE069808AB984201D004F0C2
:1035000067FF0B4B18682100FFF7C0FC12B080BCAE
:10351000B846F0BD0122DFE7CC94002018DF01108F
:1035200020DF01102CE0011058D50110F415002007
:10353000F09E00207047000010B504000A4B0833CD
:103540000360406B23003C33984201D004F040FFFD
:10355000E06923002433984201D004F039FF2000B1
:10356000FFF784FD200010BD78DF011010B50400C6
:103570000C4B08330360406B23003C33984201D06E
:1035800004F026FFE06923002433984201D004F0C0
:103590001FFF2000FFF76AFD200004F019FF200044
:1035A00010BDC04678DF011070B50400036E1B78B3
:1035B000826913405A1E9341DBB24C228354002B84
:1035C00034D0436D18682065A56E04F079FD291C80
:1035D00004F067FD04F096FDE066636EC218626653
:1035E00053400121256FA9400B402A41A2650028C4
:1035F0001DDD4D220121A154002B17D0A36F4D22B8
:10360000A25C002A17D09A8B01239340D022120685
:103610005361636F9A8B012319009140D0221206E7
:103620005161E26D616E11604E22A35470BD4D2256
:103630000021A154E0E79A8B01239340D022120687
:103640009361E6E710B5FFF7AFFF10BD436F9A8BAC
:1036500001239340D022120693614E230022C254CC
:10366000704710B5FFF7F2FF10BD0000F0B5D64669
:103670004F464646C0B58CB004008A4617001D0070
:10368000149EFFF707FD3B4B0833236067611C2343
:103690009946A14423002433E36129686A688A18A3
:1036A00000234846FFF744FC2700343723003C330F
:1036B0006363316872688A1800233800FFF738FCAA
:1036C000169B6365179BE365189B2366159B236711
:1036D00002AE00964B465A68E3699C46624400235A
:1036E00061466846FFF724FC282004F06DFE0500C3
:1036F00001226946FFF796FC65670098B04201D049
:1037000004F066FE08AE06967A68636B9C466244D7
:103710000023614606A8FFF70BFC282004F054FEA6
:103720000500012206A9FFF77DFCA5670698B042B7
:1037300001D004F04DFE0027676601252800236FA5
:10374000984004F0BDFC8046504604F0B9FC011CD2
:10375000404604F090FCA06663699D40A5614C233F
:10376000E7540133E75420000CB0E0BCBA46B14640
:10377000A846F0BD78DF0110F0B5CE46474680B5CB
:10378000A3B0AC4B0693AC4D07955F681C68002C4A
:103790001DD02E0024680BE0491B4B425941C8B292
:1037A000002814D10A22A35E002B0FD01B01E418BD
:1037B000002C0CD0E168002EEED00029ECD02800BF
:1037C00018F054FB43425841C0B2E9E7002420946A
:1037D0002197002C06D0227A7F231340033B012B34
:1037E0000FD824682100954804F0C8FF914B089336
:1037F000934D09955F681C68002C1FD02E0024682B
:103800000DE00024EEE7491B4B425941C8B20028A5
:1038100014D10A22A35E002B0FD01B01E418002C48
:103820000CD0E168002EEED00029ECD0280018F072
:103830001DFB43425841C0B2E9E700241E941F9784
:10384000002C2CD0227A7F231340072B1AD00FD8BC
:10385000042B09D9053BDBB2012B1ED82068616817
:10386000FFF72BFD06001BE0032B11D2002617E00B
:10387000082B05D120686168FFF7F4FC06000FE013
:1038800000260DE020686168FFF72CFD060007E0C8
:103890002068FFF731FD060002E0002600E0002668
:1038A000644B0A93674C0B945A6890461D68002D30
:1038B0001DD027002D680DE0200018F0D7FA4342F4
:1038C0005841C0B2002812D10A22AB5E002B0DD0A5
:1038D0001B01ED18002D0AD0E968002F01D0002946
:1038E000EAD1091B4B425941C8B2EBE700251C95B0
:1038F00043461D93002D06D02A7A7F231340033BB5
:10390000012B0CD82D684B4B0C934F4F0D975A68D9
:1039100091461C68002C20D0B84624680DE0002594
:10392000F1E7C91B4B425941C8B2002815D10A2200
:10393000A35E002B10D01B01E418002C0DD0E16811
:103940004346002BEDD00029EBD0380018F08EFA5A
:1039500043425841C0B2E8E700241A944B461B93F7
:10396000002C06D0227A7F231340033B012B5BD827
:103970002468B30035495A18043235481A50354A7C
:103980009A18043234481A502431344B196010AB61
:103990000E93002D4AD0280018F0ACFA2A18002304
:1039A00029000EA8FDF7C4F916AB1493002C3FD0E4
:1039B000200018F09FFA221814AD002321002800DF
:1039C000FDF7B6F97C2004F0FFFC0400B300204AA8
:1039D0009A5821495B582249096820480068049098
:1039E000039302921623019300950EAB3200200040
:1039F000FFF73CFE149816AB984201D004F0E8FCA7
:103A00000E9810AB984201D004F0E2FC154D210055
:103A10002868FFF73BFA28682100FFF721FA23B056
:103A2000C0BCB946B046F0BD0024A2E70122B6E70B
:103A30000122C1E7CC94002018DF011020DF011023
:103A40004CDF01105CDF011068DF0110A89D002031
:103A50001895002060A0002000950020FC94002014
:103A6000F0150020DC220020436A002B1ED1436C9D
:103A70009A8BD0231B065B68D3401A0001231900E0
:103A800011400B00027F002A02D04B425941CBB2B9
:103A9000002B05D042691368016A0B43136070471D
:103AA00042691368016A8B431360F8E743691B6836
:103AB000026A13401A00511E8A41D2B2017F0029C6
:103AC00002D05A425341DAB2436C002A06D09A8B94
:103AD00001239340D02212065361E0E79A8B012321
:103AE0009340D02212069361D9E7704710B50400C5
:103AF000074B08330360C06A23003433984201D077
:103B000004F066FC2000FFF7B1FA200010BDC046AB
:103B100030E0011010B50400084B08330360C06AA0
:103B200023003433984201D004F052FC2000FFF708
:103B30009DFA200004F04CFC200010BD30E0011084
:103B4000F0B5CE46474680B587B004000D0017009B
:103B50001E000EAB04CB90461B789946FFF79AFAED
:103B6000204B0833236065614346A3614B462377AE
:103B70006762109BA3622C239846A0442300343331
:103B8000E362316872688A1800234046FFF7D0F973
:103B900002AF009743465A68E36A9C46624400239A
:103BA00061466846FFF7C4F9282004F00DFC0600C2
:103BB000A36A626A6946FFF7E9F966640098B84249
:103BC00001D004F005FC0123A26993402362296817
:103BD000054804F0D3FD200007B0C0BCB946B0468C
:103BE000F0BDC04630E001109CDF0110F0B5D646B4
:103BF0004F464646C0B5A8B0AE4B0493AE4D0595B2
:103C00005F681C68002C1DD02E0024680BE0491B47
:103C10004B425941C8B2002814D10A22A35E002B9E
:103C20000FD01B01E418002C0CD0E168002EEED060
:103C30000029ECD0280018F019F943425841C0B2CD
:103C4000E9E7002426942797002C06D0227A7F23C8
:103C50001340033B012B0FD824682100974804F040
:103C60008DFD944B0693964D07955F681C68002C5C
:103C70001FD02E0024680DE00024EEE7491B4B42C4
:103C80005941C8B2002814D10A22A35E002B0FD0DC
:103C90001B01E418002C0CD0E168002EEED00029A6
:103CA000ECD0280018F0E2F843425841C0B2E9E7EE
:103CB000002424942597002C06D0227A7F231340D9
:103CC000033B012B0CD824687A4B08937D4E099650
:103CD0005A6890461D68002D1FD037002D680FE0F0
:103CE0000024F1E7300018F0C1F843425841C0B257
:103CF000002812D10A22AB5E002B0DD01B01ED185B
:103D0000002D0AD0E968002F01D00029EAD1891BD3
:103D10004B425941C8B2EBE7002522954346239315
:103D2000002D06D02A7A7F231340033B012B0CD8A9
:103D30002D68604B0A93644F0B975A6891461E6832
:103D4000002E20D0B84636680FE00025F1E7380095
:103D500018F08CF843425841C0B2002813D10A220F
:103D6000B35E002B0ED01B01F618002E0BD0F168AD
:103D70004346002B01D00029E9D1C91B4B425941D0
:103D8000C8B2EAE7002620964B462193002E06D0C3
:103D9000327A7F231340033B012B0DD83668454B05
:103DA0000C934A4A90460D925A6892461F68002F1B
:103DB00021D0C1463F680FE00026F0E7404618F0EA
:103DC00055F843425841C0B2002814D10A22BB5EC4
:103DD000002B0FD01B01FF18002F0CD0F9684B46A9
:103DE000002B01D00029E9D14346C91A4B42594161
:103DF000C8B2E9E700271E9753461F932D4B0E9339
:103E0000334A90460F925A6892461F68002F1FD07F
:103E1000C1463F680DE0404618F028F8434258413B
:103E2000C0B2002814D10A22BB5E002B0FD01B01A8
:103E3000FF18002F0CD0F9684B46002B01D0002949
:103E4000E9D14346C91A4B425941C8B2E9E70027B4
:103E50001C9753461D93002F3CD03A7A7F23134082
:103E6000072B1AD00FD8042B09D9053BDBB2012B45
:103E70001ED838687968FFF720FA07002BE0032B7B
:103E800011D2002727E0082B05D138687968FFF7A1
:103E9000E9F907001FE000271DE038687968FFF79F
:103EA00021FA070017E03868FFF726FA070012E04A
:103EB000002710E0CC94002018DF011020DF011053
:103EC0002CE00110ACDF0110B4DF0110BCDF0110E9
:103ED000C8DF011000273D49300017F0C7FF002858
:103EE00043D101263A4B3B4A1A603B4B3B4A1A608E
:103EF000220029003A4804F041FC3A49280017F012
:103F0000B5FF002833D03849280017F0AFFF00284C
:103F100058D118AB1693002C52D0200017F0EAFFAE
:103F200022180023210016A8FCF702FF482004F005
:103F30004BFA0400284B196800230293019600975E
:103F400016AB0022FFF7FCFD169818AB984201D083
:103F500004F03EFA254B18682100FEF797FF28B0C1
:103F6000E0BCBA46B146A846F0BD0026BAE712AB9F
:103F70001093002C22D0200017F0BCFF2218002341
:103F8000210010A8FCF7D4FE482004F01DFA04001C
:103F90000F4B1968002302930196009710AB012282
:103FA000FFF7CEFD109812AB984201D004F010FA42
:103FB0000E4B18682100FEF769FFD0E70122DEE70B
:103FC0000122AEE70A4804F0A9FBC8E7D4DF0110DC
:103FD00030950020CD9D0020F894002084A0002082
:103FE000DCDF0110F8DF011000E00110F09E00207E
:103FF00008E00110F0B583B004000D00160000F0D9
:10400000CBF8002801D003B0F0BD154F00973B005E
:1040100001220121053001F067FD00962B002200EE
:104020000121104801F068FE31006943200003F0CF
:104030006BF904000C4B009300220221042001F0D4
:1040400053FD0094230000220121052001F04CFDC6
:1040500000973B0002220021062001F045FDD2E737
:10406000006CDC0200800240001BB700F0B5DE46A9
:1040700057464E464546E0B583B080468B46009293
:104080000193042001F032FEFA21890003F03CF98B
:104090008246A0235B0099462CE0013C002C20D0F6
:1040A00025007D432900300003F02EF94045F4D16E
:1040B0002900300003F028F90029EED173019B1B81
:1040C0009B009E19F6005B461E60009B1F60019BD3
:1040D0001C60012003B0F0BCBB46B246A946A04616
:1040E000F0BD013F002F01D03C00D7E701235B4228
:1040F0009C46E1444B460F2B09D956464B465E433E
:10410000044BF218044B9A42F0D80727EAE7002044
:10411000E0E7C046508EF4FF50F80C0010B5830065
:10412000084A944663441C6840226240C0241440FC
:104130008022520113431C60C000034B9C46604424
:10414000416010BD04C001400040014080000B4BA5
:104150009C46604400290DD00823002A0CD004227C
:104160001343026853400C22134080225201104333
:10417000036070470023F0E70022F1E704C001402C
:1041800010B501238340D02212069362936105216A
:10419000FFF7C4FF10BD0000034B1B68022018404E
:1041A000431E9841C0B2704700C00640EFF3108034
:1041B00072B6034B1B68002BFBD0BFF35F8F7047B9
:1041C0002C0100D0BFF35F8F024B00221A6080F3F6
:1041D000108870472C0100D0F8B506000C001500BF
:1041E000FFF7E4FFE308F718F15C07222240012300
:1041F00093400B4205D1DBB20B433B70FFF7E2FF6C
:10420000F8BD2100280001F053FFF0B583B006008F
:10421000019114001F00FFF7C9FF00E00134BC4208
:104220000CD8E308F518F35C0721214001228A40ED
:104230001A42F3D1D2B21A432A7001E00124644237
:10424000FFF7C0FF002C02DB200003B0F0BD019B94
:10425000002BF9D0089801F02BFF0000002307E0A5
:10426000054A9A189200BFF35F8F00211160013355
:104270001F2BF5D97047C04640000034054A10781E
:10428000431CDBB21370172B02D9130010221A70D3
:104290007047C046F815002000B583B00100044BFC
:1042A00000931F2318220348FFF7AFFF03B000BDA0
:1042B00054E00110E8230020074B9B681030800079
:1042C0001950BFF35F8FBFF35F8F044B002119605C
:1042D00082F310887047C04600ED00E0240100D052
:1042E00010B5091A081F0A4B9C466144094A9142BD
:1042F00008D8C30706D440104005400D064B1843AC
:1043000080B210BD054B064AA321064801F036FED7
:10431000FC070000FE0F000000E0FFFF70E001104E
:10432000E0E20110A0E0011010B5091A04394C08B0
:10433000090B08D14905490D064A11430180064B76
:104340002343438010BD054B054AAB21054801F0CE
:1043500015FEC04600F0FFFF00F8FFFFFCE0011073
:10436000B4E20110A0E0011001238340034A106869
:104370001840431E9841C0B27047C04600E100E0BB
:10438000002904D0034B1860034B18607047034B9F
:104390001860FBE780E200E000E100E080E100E07F
:1043A00010B5012383401800FFF7EAFF10BD00009D
:1043B000024B9B6810308000C058704700ED00E051
:1043C00070B504000D00EFF3108672B60C4B1B683D
:1043D000002BFBD0BFF35F8F2000FFF7E9FF094BF5
:1043E000984201D0A84205D1320029002000FFF7F1
:1043F00063FF70BD044B054A8621054801F0BEFDF0
:10440000240100D0CD0100100CE10110FCE20110EC
:10441000A0E00110F0B5CE46474680B583B0060057
:104420000D00EFF3108872B6564B1B68002BFBD0C3
:10443000BFF35F8F544B9A6834001034A300D758F1
:10444000524B9F4207D0AF4200D198E00197504BAA
:10445000FB1A2F2B09D9424639003000FFF72CFFF9
:1044600003B0C0BCB946B046F0BD3000FFF77CFFDA
:10447000814600213000FFF793FFBFF35F8FEFF31A
:104480000581002901D08C4211D10123019C9C435C
:104490000022A368AB4212D00622A256002A0DDBEE
:1044A00053009B189B002200394CE418F1E7362199
:1044B000384B394AFF31394801F060FD2200AB42E8
:1044C00056D106256557002D38DB6B005B199A0025
:1044D0002F4B9B189A68A260DA79E27106229A56ED
:1044E000A2719B795BB2002B0FDA2D48A0806B0084
:1044F0005B199B00264AD3182A4A117899711570C6
:1045000049463000FFF74CFFA5E7201D6B005B1903
:104510009B001F4A9B181A1D9B88D90A1C2907D18A
:104520005B055B15023359005118FFF7D9FEDDE733
:104530001D4B1E4AB121194801F020FD002912D15E
:10454000002A0ED0FF239371194B9380154A1378DC
:10455000A371184B0E49641A644163431B0D137019
:10456000CEE70A4FF2E7201D1349FFF7DDFEC7E74C
:104570006A21124B084AFF31084801F0FFFC034F43
:1045800069E7C046240100D000ED00E0CD01001035
:10459000FC15002020E20110CCE20110A0E0011087
:1045A00001BD0000DBA6002008E20110ECE20110D2
:1045B00001BDFFFFAAAA00003616002054E2011038
:1045C00010B5032304009C43064A944664442268C1
:1045D0001840C000FC3383409A43130081400B43D2
:1045E000236010BD00E400E070B5012101432E4BB3
:1045F000CB1A2F2B28D8EFF30583002B2BD0EFF30A
:10460000108C72B6294A1268002AFBD0BFF35F8F64
:10461000274A0400244D641B64416243120D54B2C6
:10462000244A92689B00D2588A421BD00022032A57
:1046300032D853009B189B001B49CB189B795BB267
:10464000A3421FD00132F2E7C7211B4B1B4A49008E
:104650001B4801F093FC92211A4B184AFF3118486D
:1046600001F08CFC134A92681749D150174B1A7805
:1046700082711C70BFF35F8F0C4B00221A608CF3A9
:10468000108870BD0D005300991889006918FF2625
:104690008E710F4A8A80E9E7D1210E4B074A490003
:1046A000074801F06BFCC046FC150020240100D037
:1046B000AAAA000000ED00E05CE2011098E20110FF
:1046C000A0E0011084E20110CD010010DBA6002063
:1046D00001BDFFFF90E201100022044B02E00449FB
:1046E00002C30132072AFAD97047C04600E400E04D
:1046F00080808080024B9C46614489000160704745
:104700004000003410B50400FFF7B8FD01002000A0
:10471000FFF7F0FFFF232371BFF35F8F10BD10B5CC
:104720000400FFF7ABFD01002000FFF7E3FFFF23CC
:10473000237100236371BFF35F8F10BD034B9C4651
:10474000614489000160BFF35F8F7047400000340F
:1047500010B504000120FFF79FFD01002000FFF7C6
:10476000EDFF10BD70B505000C00080000F0FAFE6A
:104770000949200000F03AFEFFF780FD074B9C46F8
:104780006044800068602C75D0231B061B786B7515
:10479000A400034BE55070BDA94A0010400000344E
:1047A000E89400200A4B1A68EFF3108172B6136880
:1047B000002BFCD0BFF35F8F054B1B68BFF35F8FEF
:1047C00000221A6081F3108840BF0020002170474A
:1047D000F89F002010B5002922D003681B7B994266
:1047E0001ED8174B9C466144090183689C4661446E
:1047F0000C684968002A19D003681B7B9A4215D8B7
:1048000083680F488446624412019A1810685368FE
:10481000020001208B4201D80ED00020C0B210BD92
:10482000084B094A3C21094801F0A8FB054B064A00
:104830003C21064801F0A2FBA242EFD8EDE7C046BA
:10484000FFFFFF0FCCE401104CE7011078E40110EA
:1048500010B500291ED0037B99421BD84B005B1872
:10486000033B0468A4466344002919D0002A1DD0E4
:10487000914221D0002A25D0047BA24222D804688C
:1048800050008018033820188170197800291FD132
:104890001A7010BD104B114A6821114801F06EFBCF
:1048A000104B114A6F310E4801F068FB0F4B0E4A56
:1048B00070210B4801F062FB0D4B0B4A7121084837
:1048C00001F05CFB044B054A6821054801F056FBEA
:1048D00041701A70DDE7C046F0E40110B8E701103E
:1048E0000CE5011074E5011094E7011080E501105A
:1048F0008CE5011070B506000D001400002914D0DD
:10490000002A14D0806873689847002806D02200D7
:1049100029003000FFF79CFF280007E02A00210053
:104920003000FFF795FF200000E0100070BD080088
:10493000FCE70000F0B583B00500009201930AABDC
:104940001C780BAB1F78002C26D003685A7B94424E
:1049500007D10123002B19D1002C3BD1200003B03B
:10496000F0BD002C0CD01A7B944209D81A68630061
:104970001B19033BD3189B78002BEBD00123E9E7ED
:104980003E4B3F4A68213F4801F0F8FA3E4B3F4A10
:1049900067213F4801F0F2FA03689C7B002CDBD0D2
:1049A00012D01A7B94420FD862001219033A196888
:1049B0008C46624451789973002900D1D973002341
:1049C000937053701370C7E72C4B2D4A68212D4804
:1049D00001F0D4FA002C3AD02B681B7B9C4236D8CD
:1049E0002C4BE3181B01AA6894466344009A1A6092
:1049F000019A5A60089A9A60099ADA602E68002C27
:104A00002BD030D0337B9C422DD863001B19033B45
:104A100032689446634400229A705A701A70717B0F
:104A200022003000FFF766FF7073844200D095E7E4
:104A3000287D009A019B00F021FD061E01D0002F69
:104A400017D00C9B002B00D188E71E7086E7124B15
:104A5000124A3C210E4801F091FA114B114AA5214E
:104A6000084801F08BFA054B054A6821054801F01A
:104A700085FA2868210000F039FFE2E7F0E4011030
:104A8000B8E701100CE50110A4E50110C4E701101E
:104A900078E40110FFFFFF0FCCE401104CE7011098
:104AA00074E40110A8E70110F0B5DE4657464E4603
:104AB0004546E0B58BB00990002308938200B54BC2
:104AC000D658370052E0B44BB44A3F21B44801F005
:104AD00055FAB44BB44A3C21B44801F04FFA0029CE
:104AE00001D1002869D10021404600F0F5FEA04226
:104AF00019D12A686B6806920793AB689846EB68F1
:104B00009A464346002B14D0002C18D03B681B7BE0
:104B10009C4214D8631EFA68D35C08931B021843A6
:104B20003861002015E0A24BA24A8E219F4801F077
:104B300025FAA14B9F4A92219C4801F01FFA994BFC
:104B40009E4A4121994801F019FA00239A46984655
:104B500000207B68BFF35F8F00221A6086F3108805
:104B60004346002B32D1002800D10CE100F0FAFBC3
:104B700002000B1EA7DB0020002106900791786839
:104B8000EFF3108672B601680029FCD0BFF35F8F87
:104B9000396888464C7B002CD7D09AD0097B8C4250
:104BA00097D8874965182D01B9688C4665442868EF
:104BB0006968801A9941002991DD2A686B68099813
:104BC00000F05CFC00239A469846C2E7089B1B0253
:104BD0002343994651461800C04705000E007A68E5
:104BE000EFF3108B72B6136859424B41D9B2002BC8
:104BF000F9D1BFF35F8F002E1EDB002E46DD3B692F
:104C0000002B47D04B456DD100F0ACFB02000B1ED2
:104C10006EDB52197341002B70DB002B72DB00211D
:104C20000491013103910294514601914146009152
:104C30003800FFF77FFE4CE03B69002BDDD04B4591
:104C400014D1069A079B521BB341002B14DB002B97
:104C500016DB002104910131039102945146019128
:104C6000414600913800FFF765FE32E0554B514A4E
:104C7000A1214E4801F082F901225242524BE6E74F
:104C8000454B464A3F21464801F078F9002E01D1B4
:104C9000002DB4D13B68002C50D05A7B944237D1C0
:104CA000012100294AD1DA7B002A4DD19A7B002AC2
:104CB00003D1DA7B002A5AD19C73DC73002C5CD0C0
:104CC0003B681B7B9C4258D8FA68013C135D01335A
:104CD000135500233B617A68BFF35F8F13608BF33A
:104CE000108843E7374B334AA421304801F046F996
:104CF000294B2A4A3F212A4801F040F90122524219
:104D0000314B8AE7244B254A3F21254801F036F9EB
:104D1000002C0DD01A7B94420AD862001219033A73
:104D20001868844662449278002ABAD00121B8E714
:104D3000264B274A6821274801F020F9264B274AAD
:104D4000F621244801F01AF9002A0AD0197B8A4278
:104D500007D851008A18033A19688C466244547087
:104D6000A4E71A4B1A4A68211A4801F007F91C4BAC
:104D70001A4AFB21174801F001F90A4B0F4A412159
:104D80000A4801F0FBF80BB0F0BCBB46B246A9469E
:104D9000A046F0BDE894002088E3011018E7011058
:104DA000A4E30110CCE401104CE7011078E40110F9
:104DB000CCE5011030E70110E4E5011070E70110C7
:104DC000FFFFFF0FF0E50110FFFFFF7FF0E4011090
:104DD000B8E701100CE501102CE6011084E7011082
:104DE00050E6011010B50C4B5B68002B04D00A2173
:104DF0000A48FFF77FFC10BD074C2300084A10212A
:104E0000206800F079FC032000F0A0FA03212000C4
:104E1000FFF7A8FCEBE7C04644160020F89F0020EF
:104E2000D547001010B5064B5B68002B01D0044835
:104E300010BD044B044A5E21044801F09FF8C046AF
:104E40004416002064E6011058E7011078E40110D0
:104E5000F0B5DE4657464E464546E0B58BB0804637
:104E600016001F00149B9A46159B994616AB1B789B
:104E70009B461F2302AA9446634400221A702BE02B
:104E8000002809D042461268127B904204D8421E84
:104E90004146C9688A5C41E0404B414A4121414852
:104EA00001F06CF807984CE0361BAF41002F07DB90
:104EB000002F11DA3C4B3D4A3F213D4801F05EF89E
:104EC000012676423B4FF3E7374B384A3F213848BB
:104ED00001F054F8002F4FDB43465A68EFF310847B
:104EE00072B6136859424B41D9B20791002BF8D1E1
:104EF000BFF35F8F1F3302AA9446634404930023D9
:104F0000039302934B4601935346009332003B00B8
:104F10004046FFF70FFD031EB2D10200414649682B
:104F2000BFF35F8F00250D6084F31088002B29D01C
:104F30001F2302A98C4663441B78002BB2D11202B6
:104F40001043002B20D05B46002B1DD04946D04794
:104F500004000D0003000B431DD00029A4DB00F06A
:104F600001FA06000F1EAFDB36196F41002FB1DAD0
:104F7000012676420F4FADE70B4B0C4A3F210C4800
:104F800000F0FCFF012040420BB0F0BCBB46B24633
:104F9000A946A046F0BD0798F6E7C046CCE401104C
:104FA00070E7011078E4011088E3011018E70110A0
:104FB000A4E30110FFFFFF7FF8B504004268EFF3A0
:104FC000108572B6136858424341D8B2002BF9D10C
:104FD000BFF35F8FCBB22268567BB3421BD1012057
:104FE000002848D0206988422BD0090AC9B2002B7A
:104FF0002ED02068007B83422AD8581EE668305C99
:1050000088422BD000206368BFF35F8F00221A60B4
:1050100085F31088F8BD002B0DD0167BB3420AD85B
:105020005E00F618033E1768BC466644B678002E4C
:10503000D6D00120D4E7134B134A6821134800F05F
:105040009DFF9521124B134A4900134800F096FF2B
:10505000124B134A4121104800F090FF1900100034
:1050600000F044FC0028CED132210E4B094AFF311A
:10507000094800F083FF23698B42C4D100232361D8
:10508000C1E7C046F0E40110B8E701100CE50110DB
:1050900088E6011000E7011078E40110CCE401106B
:1050A00070E70110ACE60110F0B587B006000F0004
:1050B000EFF30583002B1FD106246442E517A419E2
:1050C0007D418D4202D803D1844201D900240025BC
:1050D000002D14DB0494059500F044F902000B1E2A
:1050E00013DBA41A9D41002D17DC14D030003900C9
:1050F00000F044F907B0F0BD234800F0D9FF234B7E
:10510000234A3F21234800F039FF204B204A3F210A
:10511000204800F033FF002CE8D0FFF783FE002387
:10512000029301931C4B0093049A059BFFF790FE9A
:10513000002818DADAE7002300E00023002BD5D19D
:10514000164B1A68EFF3108172B61368002BFCD06F
:10515000BFF35F8F114B1B68BFF35F8F00221A6094
:1051600081F3108820BF0499059A0D4B5B6A9A421F
:10517000E3D80B48806A884203D29A42DBD00123ED
:10518000DCE70123DAE7C046B0E6011088E301104E
:1051900018E70110A4E30110A5470010F89F0020B4
:1051A0000040054070B504000D0000F0DBF802007F
:1051B0000B1E0ADB200029008018594100290ADB58
:1051C00000290CDBFFF770FF70BD084B084A3F2138
:1051D000084800F0D3FE012040420749F0E7034BA6
:1051E000034A3F21034800F0C9FEC04688E301108E
:1051F00018E70110A4E30110FFFFFF7F10B5FA22AA
:1052000092000023002102F00FFFFFF7CBFF10BD3B
:1052100070B584B005000C00EFF30583002B1ED1A0
:10522000FFF700FE002302930193224B00932A0014
:105230002300FFF70DFE061E23DD20BFFFF7F2FD62
:105240003100FFF7B9FE1C4B5B6A9C422DD81A4A0D
:10525000926AAA422CD29C4225D0012026E0164B0D
:105260005B6A994209D8144A926A824207D29942EB
:1052700001D001201AE0002018E0002016E00120F3
:1052800014E00D4B5B6A9C4209D80B4A926AAA4211
:1052900007D29C4201D0012008E0002006E0002057
:1052A00004E0012002E0002000E0002004B070BD16
:1052B0000120FBE7A54700100040054070B5EFF363
:1052C00005801038EFF3108C72B61A4B1B68002B58
:1052D000FBD0BFF35F8F01221300834016494B635D
:1052E00016490B60164909780C00C440224214D0BC
:1052F000114A546A8200134D5259944206D38200D7
:10530000114C125999430E4B197007E00A4A031DBC
:105310009B0099589950002200E00022BFF35F8F54
:10532000044B002119608CF31088002A00D09047AC
:1053300070BDC046280100D0004005403C700540CB
:10534000E7A6002024A00020DC21002010B50100E9
:10535000024A0348FEF740FF10BDC046E8E70110CF
:10536000D6A60020044B5B6A034A906A1900536A70
:105370009942F9D17047C04600400540084B5B6A2E
:1053800001E0074B5B6A8B42FBD301E0044B5B6A95
:105390008B4203D1024B9B6A8342F7D37047C046CE
:1053A0000040054070B504000D00FFF7DBFF020070
:1053B0000B0020002900801859418B4202D804D1EB
:1053C000824202D901204042C117002902DBFFF7C7
:1053D000D5FF70BD024B034A3F21034800F0CEFDCC
:1053E00088E30110ACE80110A4E3011070B50400DB
:1053F0000D00EFF3108672B61B4B1B68002BFBD021
:10540000BFF35F8F002D1CD02000FEF7D1FF174B9C
:1054100083420BD019002000FEF7D2FF01212000AB
:10542000FEF7BEFF0123A340114A1360A400114BF5
:10543000E550BFF35F8F0C4B00221A6086F3108893
:1054400070BDA2000B4B0021D1500122A2400A499D
:105450000B7893430B7005492000FEF7DBFF00211A
:105460002000FEF79DFFE4E7280100D0BD520010A8
:1054700038600540DC210020E7A60020F0B5DE46BC
:1054800000B584B00400150001921E000293FFF7DE
:1054900069FF03958E4202D84ED185424CD9EFF375
:1054A000108B72B6274B1B68002BFBD0BFF35F8FAE
:1054B000254A17780125A540EBB23B431370234BD7
:1054C0005D63221D92000199D150A20020490298EB
:1054D00050501B6A2B4212D11C4B1B6C2B4208D024
:1054E0000020BFF35F8F174B00221A608BF31088E8
:1054F00023E0184B184AC521184800F03FFDFFF77C
:1055000031FF8E4214D802D1039B834210D80E4B38
:105510001B78BB420ED00D4B1D625D631F20044003
:105520000123A3400E4A1360074B1F701E38D8E7B3
:105530000020D6E70120D4E7012004B080BCBB46A0
:10554000F0BDC046280100D0E7A60020004005407D
:1055500024A000200CE8011090E8011030E80110B0
:1055600080E200E0EFF3108C72B60B4B1B68002B4F
:10557000FBD0BFF35F8F01238340084A13620849C1
:105580000A789A430A70BFF35F8F034B00221A60B8
:105590008CF310887047C046280100D000400540B9
:1055A000E7A6002010B500291ED0037B99421BD826
:1055B0004B005B18033B0468A4466344002919D0E0
:1055C000002A1DD0914221D0002A25D0047BA2427E
:1055D00022D8046850008018033820188170197888
:1055E00000291FD11A7010BD104B114A68211148B3
:1055F00000F0C4FC104B114A6F310E4800F0BEFCA5
:105600000F4B0E4A70210B4800F0B8FC0D4B0B4AB3
:105610007121084800F0B2FC044B054A6821054896
:1056200000F0ACFC41701A70DDE7C046F0E40110F8
:10563000CCE901100CE5011074E50110B8E9011086
:1056400080E501108CE5011070B506000D00140016
:10565000002914D0002A14D0806873689847002865
:1056600006D0220029003000FFF79CFF280007E049
:105670002A0021003000FFF795FF200000E0100015
:1056800070BD0800FCE7000010B500234373013330
:105690008373037BC3730123027B9A4214D9002BCB
:1056A0000CD0027B934209D85A00D218033A016801
:1056B0008C4662440133DBB25370EDE70B4B0C4A6E
:1056C00068210C4800F05AFC002A09D0924207D801
:1056D000016853009A18033A8A180023537010BDCA
:1056E000024B034A6821034800F048FCF0E4011033
:1056F000CCE901100CE5011010B501734260836024
:10570000FFF7C2FF10BD000070B50400081E00D1F5
:1057100070BD002934D0237B994231D84B005B18EF
:10572000033B2268944663445A78002AF0D02DD077
:10573000237B9A422AD853009B18033B21688C464E
:1057400063445D7800215970002825D0237B98425E
:1057500022D843001B18033B21688C466344002178
:10576000597001002000FFF76FFF0600290020009C
:10577000FFF7CAFF020031002000FFF765FFC7E70F
:10578000084B094A6821094800F0F8FB054B064A16
:105790006821064800F0F2FB024B034A68210348E7
:1057A00000F0ECFBF0E40110CCE901100CE5011075
:1057B00070B505000C00160000292FD034D0037BF3
:1057C000994231D84B005B18033B0268944663440E
:1057D0005A78002A2ED19A78002A31D11978FFF709
:1057E00093FF0300002E0AD0EA7B002A2ED1AA7B69
:1057F000002A03D1EA7B002A3BD1AC73EC73002B67
:105800003DD1002C4FD02B7B9C424CD82B686100A3
:105810000C19033C1C190023637070BD254B264AEC
:105820003821264800F0AAFB254B264A6821264845
:1058300000F0A4FB254B204A3A21204800F09EFBB3
:10584000234B1D4A3B211D4800F098FB002A0AD03B
:10585000297B8A4207D851008A18033A29688C4666
:1058600062445470C3E7164B164A6821164800F08C
:1058700085FB184B104A4221104800F07FFB002B9B
:105880000BD02A7B934208D843001B18033B2A689D
:105890009446634400229A70B3E7094B094A682191
:1058A000094800F06BFB064B064A6821064800F0E9
:1058B00065FBC046C4E80110A4E90110CCE8011062
:1058C000F0E40110CCE901100CE5011020E9011011
:1058D00048E9011050E6011070B504000A00457B4C
:1058E0002900FFF765FF6073280070BD70B50400E4
:1058F000002967D0437B8B420ED0002911D0037B57
:1059000099420ED84B005B18033B0268D01883788D
:10591000002B0CD1002056E00121FFF7DDFF012014
:1059200051E0294B294A6821294800F027FB002B28
:1059300020D0227B93421DD85A00D318033B226803
:10594000D2182568EB5C8B421AD0002B1BD0227B2F
:10595000934218D85A00D318033B2268D2185378C0
:105960008B4216D0002BF0D11A4B1B4A6B211B48DF
:1059700000F004FB144B154A6821154800F0FEFAAC
:105980004378137007E0104B104A6821104800F06C
:10599000F5FA43785370002383704370012220008E
:1059A000FFF706FF0200617B814205D02000FFF770
:1059B0004BFE6073012006E0094B074A712107483E
:1059C00000F0DCFA002070BDF0E40110CCE9011019
:1059D0000CE5011090E201108CE90110CCE80110F7
:1059E0006CE9011070B504000D00062000F07EF98E
:1059F000C000290001F088FCC60908D00E4B9E4269
:105A000017D87F23184001303500460800E00125F3
:105A10006562A6622C348020800104430023236049
:105A2000062000F063F98000A901891901F06CFCDF
:105A300070BD0026014DEBE7FEFF0000FFFF0000F8
:105A4000002909D00A22064B9C4660444342584133
:105A50004000044BC252704780225200F3E7C04618
:105A60000080FCBFACA6002070B505000C0006202D
:105A700000F03CF9002829D0164B9D4227D0802207
:105A8000D203154B1A60154B1A60154B9B68110019
:105A90009943FAD100212800FFF7D2FF2100280006
:105AA000FFF7A0FF2C002C34E96A60224A406E21E7
:105AB000114080225201224311600A4B2B63802344
:105AC0009B01234310221A600323AB6470BD802224
:105AD0001204D6E70080034000E0004000F00040E0
