:020000041000EA
:1000000000B5324B212058609868022188439860DF
:10001000D860186158612E4B002199600221596106
:100020000121F02299502B49196001219960352056
:1000300000F044F80222904214D00621196600F024
:1000400034F8196E01211966002018661A6600F04E
:100050002CF8196E196E196E052000F02FF8012189
:100060000842F9D1002199601B49196000215960AB
:100070001A491B48016001219960EB211966A021F2
:10008000196600F012F800219960164914480160C1
:100090000121996001BC002800D000471248134993
:1000A000086003C880F30888084703B5996A0420EC
:1000B0000142FBD001200142F8D103BD02B5186610
:1000C0001866FFF7F2FF186E186E02BD00000240BE
:1000D000000000180000070000035F00212200005C
:1000E000F4000018222000A00001001008ED00E03C
:1000F00000000000000000000000000074B24E7A12
:1001000000200420F7010010C3010010C5010010F9
:10011000C1010010C1010010C1010010C101001097
:10012000C1010010C1010010C1010010C701001081
:10013000C1010010C1010010C9010010CB01001065
:10014000CD010010CD010010CD010010CD01001037
:10015000CD010010CD010010CD010010CD01001027
:10016000CD010010CD010010CD010010CD01001017
:10017000CD010010CD010010CD010010CD01001007
:10018000CD010010CD010010CD010010CD010010F7
:10019000CD010010CD010010CD010010CD010010E7
:1001A000CD010010CD010010CD010010CD010010D7
:1001B000CD010010CD010010CD010010CD010010C7
:1001C00000BE00BE00BE00BE00BE00BEEFF3058054
:1001D000103800BEF2EB8871EC2302101C240210D0
:1001E0003402001090A31AE700201F49086006C8D7
:1001F00081F3088810471D48006800282FD10DA4FE
:100200000ECC002902D000F012F8F9E71849194A7B
:10021000002000E001C19142FCD1174988471749ED
:1002200088471749884700BEFDE701C901C29A42C5
:10023000FBD370471C240210C0000020001F0020C8
:100240007C42021000000420000004207C420210C6
:10025000001004200010042000000000704709482E
:1002600006F060F90047000008ED00E0000000D053
:10027000201F002064A600207D520010E909001014
:100280003B5200105756000006005250ABB360536B
:1002900084D8011006005250861C030294D8011025
:1002A000060052505422A29D9CD8011005005250C5
:1002B000DE65F4687C420210F8B5C04610B5064C05
:1002C0002378002B07D1054B002B02D0044800E017
:1002D00000BF0123237010BD982000200000000003
:1002E000F0BB0110044B10B5002B03D003490448A8
:1002F00000E000BF10BDC046000000009C200020B0
:10030000F0BB01107047000000B587B005AB04AA30
:1003100003A90B4803F090F8002803D108490948C5
:1003200005F028F8059A0499039803F049F8064B5C
:10033000009301220021062004F0A2FD07B000BDB9
:1003400048E80100F0BB011040597307F0B589B0CF
:1003500004000D00012806D0002C02D1204B9D4244
:1003600036D009B0F0BD1E4B9942F5D11D4B1A0095
:1003700008321A6000225A601A721B4807F024F9EA
:1003800004900590002802D0174B9C4660440690CC
:10039000079010273A0004A9684607F071F9134E38
:1003A000300008303A00694607F06AF92022B35C51
:1003B0007F218B43B3540E4A0023136053600D4AD0
:1003C000136053600C4807F0FFF80C4B1860C3E74C
:1003D000064B986807F036F9024811F0FDFEC0E7B9
:1003E000FFFF0000B420002010270000682000203C
:1003F000D49F002050940020DC0500006894002069
:10040000F8B5CE46474680B50F001600984608ABB3
:100410001B8899465289294C7168200007F030F9F1
:100420002368274A934225D0264A93422AD00025A2
:10043000ADB2A02292002900362009F023FE04006C
:100440002A0021490AF048F84A46414638000EF091
:1004500021FA210038000EF003FA38000EF054FAA9
:10046000200009F0C3FD300009F0C0FDC0BCB94652
:10047000B046F8BD144B154A1A60154B01221A708C
:100480004425D5E7104B134A1A60114B01221A700C
:10049000114B1D682C242C5D002CF9D10F4B1A68D0
:1004A0002C23D35C002BF3D1432C05DC034B1A5DCA
:1004B0000B4B1A550134F7E70425B9E7E09C0020FF
:1004C0006461657274697277DC9F00206174616495
:1004D00051A600206E6B63617C2200206C9E002080
:1004E000249D002010B50B4AB023D358DA0702D45C
:1004F0009B0707D410BD02F0A1F8064AA4230121EE
:10050000D150F7E702F0A4F8024AA4230221D15007
:10051000F0E7C0460000054010B5302007F0B6F8FF
:100520000400094B1A68002102F060F9074B1C60B7
:10053000302007F0ABF80400054B1A68012102F0E7
:1005400055F9044B1C6010BD401500207C22002092
:10055000441500206C9E0020F0B5CE46474680B57D
:1005600083B08046254807F03FFA254B1E68731C70
:1005700006D000223100404611F0ECFE002415E0C8
:10058000204807F031FA204807F02EFA1F4B0122CD
:100590001A702DE00F2318E01D4B1A684946D155FB
:1005A0005D601B685B1900221A700134B44217D2D7
:1005B000184BE3181B789946154B5F687D1C1A6829
:1005C00008339A42E6D0124B9B689D42E4D901233E
:1005D00000930023002239000D4811F007FEDBE7ED
:1005E000434619680C4807F02FFA084B00221A708E
:1005F00003B0C0BCB946B046F0BDC04624BC011033
:1006000000801F105CBC011090BC01105DA6002092
:10061000B420002004801F10ACBC011010B50448A9
:1006200007F0E2F902F05AFB02F042FE10BDC046AC
:10063000B4BC0110F0B5CE46474680B597B07848B7
:1006400007F0D2F9774B1B78002B04D017B0C0BC51
:10065000B946B046F0BD744B1A0008320492734D8F
:10066000059520229B5C9B061FD52E006E4B9C6936
:100670000BE0491B4B425941C8B2002816D10A224F
:10068000A35E002B0FD01B01E418002C0ED0E168F4
:10069000002EEED00029ECD028001AF0F7FB4342E0
:1006A0005841C0B2E9E7002400E000240E945E4BFC
:1006B00008330F93002C02D0237A5B060BD50294EB
:1006C000594B08330393002C07D02268564B08334C
:1006D0000093019284E00024F1E7002301937FE07E
:1006E00000248CE0491B4B425941C8B2002815D167
:1006F0000A22A35E002B10D01B01E418002C0DD0A1
:10070000E1684346002BEDD00029EBD028001AF019
:10071000BDFB43425841C0B2E8E70024129413974E
:10072000002C06D0227A7F231340033B012B0CD8E8
:1007300024683F4B0C933F4F0D975A6891461D68B4
:10074000002D20D0B8462D680FE00024F1E73800D6
:100750001AF09CFB43425841C0B2002813D10A2230
:10076000AB5E002B0ED01B01ED18002D0BD0E968FD
:100770004346002B01D00029E9D1C91B4B42594106
:10078000C8B2EAE7002510954B461193002D06D01C
:100790002A7A7F231340033B012B15D82D68264965
:1007A00020001AF073FB002810D0244920001AF012
:1007B0006DFB00280DD1224928001AF067FB0028A4
:1007C00007D102F03FFB04E00025E8E71D4807F0F1
:1007D0000BF90A22B35E002B20D01B01F6180196FC
:1007E00000230793019E002E00D12FE7009F08965B
:1007F0000997341E03D0337A9B0600D470E714ABFC
:10080000149415970A4A110021CB21C10A920E4D6A
:100810000B95002C82D0A84624686FE70026DEE7FF
:10082000D8BC011052A6002068200020ECBC0110AA
:1008300050940020FCBC011004BD011020BD01102B
:1008400028BD01100CBD0110F4BC011010B584B01E
:1008500008F0A4F908F0C2F908F090F908F0CEF910
:1008600008F00CFA902006221D49000108F00CF84F
:100870000021092007F0D8FE08F0F0FA194C1A4BB5
:1008800002931A4B019300230093194B194A1A49FA
:10089000200009F0D7F936236522E2540133353AB6
:1008A000E2541649200009F09BFA1549200009F08E
:1008B00075FA0023134A0421002007F051FB124B64
:1008C0001870002808DB074C200009F06BFA2000A4
:1008D00009F04AFA04B010BD0C4807F085F8F2E7B9
:1008E00078160020C4280020999B0010218E00104B
:1008F000F4200020F0200020E8200020E58D0010EA
:10090000098E0010891300005BA6002030BD011085
:1009100010B5214C22000921002007F0DFFB2288BE
:10092000002A00D110BD1D4B1968002008F022FAE2
:1009300081B2194B1980002929D0C1225200002010
:1009400009F0A0FB164B1860134B1A88134C216852
:1009500009F0C2FD206806F075FE124806F034FE6C
:1009600020600D4B1B88002BDCD00D4B1868002835
:10097000D8D00D4A5388013353800C490B699847EE
:100980000028CFD0064B186809F030FBCAE70848AA
:1009900007F02AF8E5E7C0463CA60020689400204E
:1009A00064940020DC0500003C290020C4280020BD
:1009B0004CBD011010B50DF0E7FF0400074A0849CF
:1009C0000DF0AEFD002805D10022064920000DF0F3
:1009D000ADFF10BD20000DF0B5FFFAE72D6A000055
:1009E000E82000200104001010B5104B104A1A60D6
:1009F000104B114A1A60114B114A1A60FFF784FC20
:100A000007F02EF80F4803F0C5FD0F4807F01CF85B
:100A1000FFF71CFFFFF7CEFF01F0DEFD0B4807F0EC
:100A2000ABF9FFF775FF0DF0C7FBFAE7E8200020F0
:100A30000A0A0A0AF0200020FFFFFF00F42000202D
:100A40000A0A0A01B80B000060BD0110F521001070
:100A50007047000070B582B005000E1E0DD0941BCB
:100A600001940F2C0ED82868012C14D0002C14D01F
:100A70002200310006F004FE0FE09142EFD00B4857
:100A800011F05CFB002201A9280011F087FB28600F
:100A9000019BAB60E7E733780370019A6A602B68CB
:100AA0009B1800221A7002B070BDC0468CBD0110A8
:100AB00030B58DB01E4806F097FF02AD00951D4A77
:100AC000111F00236846FFF7C5FF1C2006F0DEFD5E
:100AD00004000122694602F059F80098A84203D0A8
:100AE000029B591C06F0DAFD134B1868210001F037
:100AF00055FF08AD0695114A111F002306A8FFF700
:100B0000A9FF1C2006F0C2FD0400012206A902F084
:100B10003DF80698A84203D0089B591C06F0BEFD7C
:100B2000074B1868210001F039FF0DB030BDC046F9
:100B3000B8BD0110D8BD01107C220020E0BD01101D
:100B40006C9E002030B58DB01E4806F04DFF02AD02
:100B500000951D4A111F00236846FFF77BFF1C20EC
:100B600006F094FD04000022694602F00FF8009898
:100B7000A84203D0029B591C06F090FD134B186845
:100B8000210001F00BFF08AD0695114A111F00234B
:100B900006A8FFF75FFF1C2006F078FD0400002286
:100BA00006A901F0F3FF0698A84203D0089B591C40
:100BB00006F074FD074B1868210001F0EFFE0DB040
:100BC00030BDC046B8BD0110D8BD01107C22002048
:100BD000E0BD01106C9E0020704710B502AC247877
:100BE00001604260836004730023837310BD0000C2
:100BF000F0B589B005000E008368029300220392CD
:100C00005A68069299688A1A07925960082206A9BA
:100C100004A806F035FDAB7B002B06D16B685A1C8F
:100C20006A601B786B730123AB736F7B0023AB731C
:100C300012E06B7B0022AA739F423DD0002B16D09E
:100C40005C2B17D00498002806D0039A05998A4295
:100C50002FD2511C03918354AB7B002BE9D16B68DD
:100C60005A1C6A601B786B730123AB73E1E70120A8
:100C700009B0F0BD6B685A1C6A601B786B73012267
:100C8000AA73002B03D0752B03D01D4A04E001206A
:100C9000EEE70420ECE702321478002C02D0A342E5
:100CA000F9D15378002B02D00022AA73CAE70220A0
:100CB000DEE700230493CFE7049B002B08D0039AC0
:100CC00005998A4217D2511C03919B1800221A7071
:100CD000049B002B09D00299039A059B0193D31A18
:100CE0004868844663444B600592049B3360002B44
:100CF00004D00020BCE700230493E9E70320B7E712
:100D0000E8BD011070B588B004000D00837B002B96
:100D100006D143685A1C42601B78437301238373D6
:100D2000637B272B00D1A2E0222B00D19FE0A36898
:100D30000293002203925A68069299688A1A0792CF
:100D40005960082206A904A806F09AFCA37B002B90
:100D500006D163685A1C62601B7863730123A37316
:100D6000637B002B01D1012085E02F2B01D9392B8A
:100D70000FD95E2B01D97A2B10D9402B01D95A2BD0
:100D80000ED92B2B0ED02D2B0ED02E2B0ED00020BB
:100D900000E00120002811D102206CE00120F9E7D9
:100DA0000120F7E70120F5E70120F3E70120F1E753
:100DB000002304930EE00200002A34D00022A27324
:100DC0000499002906D0039A059EB242F0D2561C1F
:100DD00003968B54A37B002B06D163685A1C626078
:100DE0001B7863730123A373637B2F2B01D9392BEA
:100DF000E1D95E2B01D97A2B0BD9402B01D95A2B83
:100E000009D92B2B09D02D2B09D02E2B09D000224C
:100E1000D2E70200D0E70200CEE70200CCE70200F2
:100E2000CAE70200C8E7049B002B08D0039A059983
:100E30008A4217D2511C03919B1800221A70049BFE
:100E4000002B09D00299039A059B0193D31A486895
:100E5000844663444B600592049B2B60002B04D0B6
:100E6000002008E000230493E9E7032003E02900C1
:100E70002000FFF7BDFE08B070BD000070B5040093
:100E80000D000022002305F05DFE00280CD0084A6A
:100E9000084B2000290005F04DFE002806D0200058
:100EA000290005F0ABFE00E0002070BD0020FCE74B
:100EB0000000E0FFFFFFEF410120002900D00020EB
:100EC000C0B2704710B50400FFF7F6FF002801D04C
:100ED000200010BD0020FCE70020704710B5040082
:100EE000FFF7FAFF002801D0604210BD0020FCE7A8
:100EF0007047000070B50400254B1B78BFF35B8F73
:100F0000DB0705D5E000234C24182068616870BD1C
:100F10001F4811F003F80028F4D01F481F49FFF7BD
:100F2000E7FF1C4D286069601D481E49FFF7E0FF80
:100F3000A860E9601C481D49FFF7DAFF2861696174
:100F40001B481C49FFF7D4FFA861E9611A481B49F7
:100F5000FFF7CEFF2862696219481A49FFF7C8FFF8
:100F6000A862E96218481949FFF7C2FF286369635C
:100F700017481849FFF7BCFFA863E96316481749EB
:100F8000FFF7B6FF28646964014810F0E3FFB9E792
:100F9000CC200020201F00209A9999999999B93F57
:100FA0007B14AE47E17A843F2D431CEBE2361A3FB7
:100FB0003A8C30E28E79453EBC89D897B2D29C3CBF
:100FC00033A7A8D523F649393DA7F444FD0FA53230
:100FD0009D978CCF08BA5B25436FAC642806C80A7E
:100FE000F0B5D6464F464646C0B588B007000E005D
:100FF0000B782B2B05D02D2B07D101362C3B984697
:1010000005E001360023984601E000239846337836
:101010006E2B17D04E2B15D0692B22D0492B20D008
:101020001A00303AD2B2092A32D92E2B59D00022D6
:1010300000233A607B6000220023BA60FB6000233B
:101040003B7407E00020C249FFF752FFB860F96027
:1010500008233B74380008B0E0BCBA46B146A84645
:10106000F0BD4346002B0ED00020BA49FFF740FFE9
:1010700080231B069C46614402000B00BA60FB60A3
:1010800008233B74E6E70020B249FFF731FFF3E79E
:1010900000240025B946370039788C460E00303ED2
:1010A000F6B2092E25D8AC498D4222D81ED0A10F08
:1010B000AB000B43A2002000290080185941001802
:1010C000494104000D00009600260196009EF6435B
:1010D000B2464E1C20D0009C019D24184D41013782
:1010E000DAE700240025B9463700D5E79B498C4252
:1010F000DDD960463E004F46002812D13C607D603D
:101100002000290005F086FDB860F9604346002BF9
:1011100005D007233B749DE75045DCD9E9E706235A
:10112000F8E70023994633004E46994680235B0337
:101130009D420AD30A2200232000290005F084FAE8
:1011400004000D00013636B2F0E74B46B1461E00F2
:10115000494632781300303BDBB2092B03D801310A
:1011600009B20136F5E789462E2A15D03378652B6A
:101170003AD0452B38D0002399443678002E00D140
:1011800085E0002200233A607B6000220023BA60E1
:10119000FB6000233B745DE701368A46B94613E0E5
:1011A000A20FA9001143A00024184D4124196D413C
:1011B000029300230393029A039BA4185D415246B5
:1011C000013A13B29A4601363378303BDBB2092B31
:1011D00007D8634FBD42F6D8E2D1624A9442F2D8B2
:1011E000DEE74F46D146C1E7701C73782D2B17D030
:1011F0002B2B18D000260023B4464E46027811004F
:101200003039C9B2092939D89900CB185B00303A76
:101210009B18F1189A225200914207DC0130EDE749
:10122000B01C0126E7E7B01C0026E4E76646002E66
:101230000DD04346002B07D0002280231B06BA6046
:10124000FB6008233B7405E700220023F7E74346D1
:10125000002B0ED000203F49FFF74AFE80231B06DB
:101260009C46614402000B00BA60FB6008233B749B
:10127000F0E600203749FFF73BFEF3E7B14666464C
:10128000002E02D05B42060076E7060074E72000DD
:10129000290005F0BFFC0C0000904B46002B41DDFF
:1012A0004D460EE04B46DA002F4B9B181A685B68E0
:1012B0000098210005F0F5FB0C0000906D10013640
:1012C000F6B2002D64D0EB07F8D5B146274B1B785A
:1012D000BFF35B8FDB07E5D4244810F01FFE002826
:1012E000E0D023482349FFF703FE1F4B9A4698623C
:1012F000D96221482149FFF7FBFD53461863596322
:101300001F482049FFF7F4FD53469863D9631E48F0
:101310001E49FFF7EDFD534618645964134810F059
:1013200019FEBFE75D4202E06D100136F6B2002DF6
:101330002ED0EB07F8D53000FFF7DCFD02000B00E4
:101340000098210005F0ADFB0C000090ECE7C046D2
:101350000000F87F0000F07F99999919999999995F
:101360009999010098999999F8140020D0200020AB
:10137000176E05B5B5B89346F5F93FE9034F384DFB
:10138000321D30F94877825A3CBF737FDD4F1575A7
:101390004346002B03D080231B069C466444009ADE
:1013A0002300BA60FB6008233B7453E630B597B066
:1013B0000D00837B002B06D143685A1C42601B78CA
:1013C000437301238373437B002212E00124002C2A
:1013D0002DD03E2A2BD800218173541C06A98B5492
:1013E00043685A1C42601B78437301238373437B19
:1013F000E2B22F2B01D9392BE8D95E2B01D97A2BF8
:101400000BD9402B01D95A2B09D92B2B09D02D2BC5
:1014100009D02E2B09D00024D9E70124D7E70124D5
:10142000D5E70124D3E70124D1E70124CFE706ABB8
:10143000002199541B78742B07D0662B17D06E2B84
:1014400026D1042A22D001200DE02B7A7F318B4354
:101450002B7205210B432B7201200021286069604B
:10146000042A02D0012017B030BD0020FBE72B7A00
:101470007F218B432B7205210B432B72002000210F
:1014800028606960052AEED00120ECE70020EAE739
:1014900006A96846FFF7A4FD6B461B7C072B05D009
:1014A000082B1DD0062B0ED00220DCE72B7A7F22E2
:1014B00093432B72072213432B72009B019C2B60DA
:1014C0006C600020CFE72B7A7F2293432B72062299
:1014D00013432B72009B019C2B606C600020C2E7C1
:1014E0002B7A7F2293432B72082213432B72029B89
:1014F000039C2B606C600020B5E7000010B586B03F
:101500000C00837B002B06D143685A1C42601B7879
:10151000437301238373437B2F2B53D89B005E4A75
:10152000D3589F4601231A1CDBB2002B4CD10293E7
:101530000393029B002B4CD0101C06B010BD00235F
:101540008373DEE70023837343685A1C42601B7871
:101550004373012282732A2B03D02F2B22D0022324
:10156000E1E700238373002111E04268531C4360CC
:101570001378437301238373437B002B0BD02F2BF2
:101580000BD02A3B5A425341D9B200228273827B4C
:10159000002AF1D1E9E70123C5E70029F1D00023B2
:1015A0008373AEE70023837343685A1C42601B7841
:1015B000437301228273002B02D00A2BF2D1A0E7E1
:1015C0000123B0E70023AEE7344B029300230393DB
:1015D000AFE7039BDB07AFD4837B002B06D14368C7
:1015E0005A1C42601B78437301238373437B5B2B3C
:1015F00014D07B2B20D0837B002B06D143685A1C50
:1016000042601B78437301238373437B272B21D0D4
:10161000222B1FD02100FFF7C9FE8EE7237A7F22FD
:101620009343237240221343237200232360636099
:10163000210000F0ABF880E7237A7F2293432372E6
:10164000202213432372002323606360210000F0F3
:1016500005FA72E701A9FFF7CBFAC3B2002B16D146
:1016600004930593049B002B00D066E7059BDB07E2
:1016700000D562E70198FFF7EBF9237A7F229343C5
:1016800023720422134323722060002055E7034B8A
:10169000049300230593E5E7F4BD01100503001052
:1016A00070B586B00400151C03684360C36883608E
:1016B000037E7F2293430376002912D00E00200080
:1016C000FFF78AFA0300EDB200953200210002A86C
:1016D000FFF783FA2100103102A8FFF70FFF06B0D1
:1016E00070BD014EEBE7C046BCC6011010B5FFF758
:1016F000D7FF10BD10B51B4B1B78002B00D010BDC1
:10170000194806F071F9194B196819483222083046
:10171000FFF7ECFF041C174806F096F9E4B2022C20
:1017200011D0032C16D0002C06D0134806F05CF91B
:10173000124B01221A7002E0114806F055F90A20F6
:1017400006F0ECF8DBE70F4806F04EF90B4B0122F0
:101750001A70F4E70C4806F047F9084B01221A709A
:10176000EDE7C0465DA60020B4BE0110B420002005
:1017700068200020D8BE011034BF011052A60020FE
:10178000F4BE011010BF011020BF011030B587B0AA
:1017900004000D00037B002B02D1052007B030BDF3
:1017A000837B002B06D143685A1C42601B7843732D
:1017B00001238373637B5B2B01D00220EEE70023C0
:1017C000A373A37B002B06D163685A1C62601B784D
:1017D00063730123A373637B2F2B00D9A5E09B00C8
:1017E0009B4AD3589F460123181CDBB2002B00D024
:1017F0009DE000930193009B002BCFD1019BDB0761
:10180000CCD4A37B002B06D163685A1C62601B7882
:1018100063730123A373637B5D2B00D18CE022688B
:101820005368103391688B4200D989E01039916078
:10183000002900D184E06B68002B00D182E0CA1A35
:1018400012115A81696000234B8100220A72CB6019
:1018500000297AD0237B013B23732000FFF74EFE43
:10186000237B01332373C3B2002B70D10293039304
:10187000029B002B00D091E7039BDB0700D58DE78F
:10188000A37B002B06D163685A1C62601B786373CC
:101890000123A373637B2F2B00D9CBE09B006D4A00
:1018A000D3589F460023A3738BE70023A373636879
:1018B0005A1C62601B7863730122A2732A2B03D027
:1018C0002F2B22D002238FE70023A37300210AE0ED
:1018D000637B002B12D02F2B12D02A3B5A4253414C
:1018E000D9B20022A273A27B002AF1D16268531CF4
:1018F0006360137863730123A373E9E7012373E73C
:101900000029EAD00023A3735BE70023A373636875
:101910005A1C62601B7863730122A273002B02D0F1
:101920000A2BF2D14DE701235EE700235CE74A4B27
:101930000093002301935EE70023A37300202DE7AB
:10194000002185E7296069607DE7032026E7424B97
:101950000293002303938BE70123181CDBB2002BB7
:101960006AD104930593049B002B00D016E7059BD6
:10197000DB0700D512E7A37B002B06D163685A1C56
:1019800062601B7863730123A373637B5D2B58D064
:10199000A37B002B06D163685A1C62601B786373BB
:1019A0000123A373637B2C2B4FD00220F6E6002388
:1019B000A37365E70023A37363685A1C62601B78F6
:1019C00063730122A2732A2B03D02F2B22D0022370
:1019D000C3E70023A37300210AE0637B002B12D02E
:1019E0002F2B12D02A3B5A425341D9B20022A27364
:1019F000A27B002AF1D16268531C63601378637381
:101A00000123A373E9E70123A7E70029EAD0002314
:101A1000A37335E70023A37363685A1C62601B78C5
:101A200063730122A273002B02D00A2BF2D127E7A5
:101A3000012392E7002390E7074B049300230593CB
:101A400091E70023A3730020A8E60023A373E6E632
:101A50004CBF01100CC001100503001070B58EB012
:101A600004000D00037B002B02D105200EB070BDD9
:101A7000837B002B06D143685A1C42601B7843735A
:101A800001238373637B7B2B01D00220EEE70023CD
:101A9000A373A37B002B06D163685A1C62601B787A
:101AA00063730123A373637B2F2B00D9A8E09B00F2
:101AB000C24AD3589F460123181CDBB2002B00D02A
:101AC000A0E002930393029B002BCFD1039BDB0783
:101AD000CCD4A37B002B06D163685A1C62601B78B0
:101AE00063730123A373637B7D2B00D18FE0226896
:101AF000536810339668B34200D98CE0103E96606C
:101B0000002E00D187E06B68002B00D185E0F21A2F
:101B100012115A816E600023738100223272F360C9
:101B2000002E7DD001A92000FFF7ECF8C3B2002BF6
:101B300078D104930593049B002B97D1059BDB0779
:101B400000D593E70198FEF783FF327A80235B424A
:101B500013433372F060A37B002B06D163685A1CD9
:101B600062601B7863730123A373637B2F2B00D9FF
:101B7000BEE09B00924AD3589F460023A37388E798
:101B80000023A37363685A1C62601B78637301228D
:101B9000A2732A2B03D02F2B22D002238CE7002301
:101BA000A37300210AE0637B002B12D02F2B12D0ED
:101BB0002A3B5A425341D9B20022A273A27B002A87
:101BC000F1D16268531C6360137863730123A373BC
:101BD000E9E7012370E70029EAD00023A37358E75F
:101BE0000023A37363685A1C62601B78637301222D
:101BF000A273002B02D00A2BF2D14AE701235BE744
:101C0000002359E76F4B0293002303935BE7002304
:101C1000A37300202AE7002682E72E606E607AE731
:101C2000032023E7674B04930023059383E70123F5
:101C3000181CDBB2002B5DD106930793069B002B8B
:101C400000D013E7079BDB0700D50FE7A37B002B32
:101C500006D163685A1C62601B7863730123A37307
:101C6000637B3A2B4BD0022000E70023A37372E77B
:101C70000023A37363685A1C62601B78637301229C
:101C8000A2732A2B03D02F2B22D00223D0E70023CC
:101C9000A37300210AE0637B002B12D02F2B12D0FC
:101CA0002A3B5A425341D9B20022A273A27B002A96
:101CB000F1D16268531C6360137863730123A373CB
:101CC000E9E70123B4E70029EAD00023A37342E740
:101CD0000023A37363685A1C62601B78637301223C
:101CE000A273002B02D00A2BF2D134E701239FE725
:101CF00000239DE7334B0693002307939EE70023C1
:101D0000A373237B013B237331002000FFF7F6FB15
:101D1000237B01332373C3B2002B04D0294B0893D8
:101D20000023099302E0002308930993089B002BEA
:101D300000D09BE6099BDB0700D597E6A37B002B31
:101D400006D163685A1C62601B7863730123A37316
:101D5000637B2F2B79D89B001B4AD3589F460123C6
:101D6000181CDBB2002B72D10A930B930A9B002B39
:101D700000D07BE60B9BDB0700D577E6A37B002B2F
:101D800006D163685A1C62601B7863730123A373D6
:101D9000637B7D2B60D0A37B002B06D163685A1C2C
:101DA00062601B7863730123A373637B2C2B57D072
:101DB00002205BE60023A373C0E7C046CCC001103D
:101DC0008CC10110050300104CC201100023A37345
:101DD00063685A1C62601B7863730122A2732A2B0A
:101DE00003D02F2B21D00223BAE70021A1730AE0F0
:101DF000637B002B12D02F2B12D02A3B5A42534127
:101E0000D9B20022A273A27B002AF1D163685A1CC6
:101E100062601B7863730123A373E9E701239FE7E3
:101E20000029EAD00023A37388E70023A373636823
:101E30005A1C62601B7863730122A273002B02D0CC
:101E40000A2BF2D17AE701238AE7002388E73B4B8C
:101E50000A9300230B9389E70023A373002005E670
:101E60000023A373A37B002B06D163685A1C626016
:101E70001B7863730123A373637B2F2B4FD89B00C5
:101E80002F4AD3589F460123181CDBB2002B48D0A1
:101E90002A4B0C9300230D9346E00023A373E1E744
:101EA0000023A37363685A1C62601B78637301226A
:101EB000A2732A2B03D02F2B21D00223E4E7002288
:101EC000A2730AE0637B002B12D02F2B12D02A3B87
:101ED0005A425341DAB20023A373A37B002BF1D102
:101EE0006368591C61601B7863730123A373E9E77E
:101EF0000123C9E7002AEAD00023A373B2E7002335
:101F0000A37363685A1C62601B7863730122A27317
:101F1000002B02D00A2BF2D1A4E70123B4E700235F
:101F2000B2E700230C930D930C9B002B00D09DE592
:101F30000D9BDB0700D4DAE598E5C04605030010E9
:101F40000CC3011000B587B001006846FFF748F8E0
:101F50006B461B7C072B06D0082B0ED0062B07D018
:101F6000002007B000BD00980199FEF7B7FFF8E721
:101F700000980199FEF7A6FFF3E702980399FEF790
:101F80007DFFEEE7F0B5CE46474680B597B08C4B67
:101F90001B78002B04D017B0C0BCB946B046F0BDCA
:101FA000884805F021FD884B1A0008320492874DBD
:101FB000059520229B5C9B061FD52E00824B9C69B9
:101FC0000DE0280018F062FF43425841C0B20028DB
:101FD00014D10A22A35E002B0DD01B01E418002CA3
:101FE0000CD0E168002E01D00029EAD1491B4B42F8
:101FF0005941C8B2EBE7002400E000240E94724B74
:1020000008330F93002C02D0237A5B060BD5029481
:102010006D4B08330393002C07D022686A4B0833BA
:10202000009301929DE00024F1E70023019398E0E2
:102030000024A5E0491B4B425941C8B2002815D1E4
:102040000A22A35E002B10D01B01E418002C0DD037
:10205000E1684346002BEDD00029EBD0280018F0B2
:1020600015FF43425841C0B2E8E700241294139789
:10207000002C06D0227A7F231340033B012B0CD87F
:102080002468534B0C93534F0D975A6891461D6823
:10209000002D20D0B8462D680DE00024F1E7C91BC3
:1020A0004B425941C8B2002815D10A22AB5E002B21
:1020B00010D01B01ED18002D0DD0E9684346002B10
:1020C000EDD00029EBD0380018F0E0FE4342584133
:1020D000C0B2E8E7002510954B461193002D2CD097
:1020E0002A7A7F231340072B1AD00FD8042B09D943
:1020F000053BDBB2012B1ED828686968FEF7E2FEBB
:1021000005001BE0032B11D2002517E0082B05D199
:1021100028686968FEF7B2FE05000FE000250DE0B3
:1021200028686968FEF7DAFE050007E02868FFF70F
:1021300009FF050002E0002500E0002526492000F7
:1021400018F0A4FE00282BD02449200018F09EFE91
:1021500000282CD00A22B35E002B2FD01B01F618CA
:10216000019600230793019E002E00D113E7009FE4
:1021700008960997341E03D0337A9B0600D457E79C
:1021800014AB14941597124A110021CB21C10A9265
:10219000134D0B95002C00D168E7A846246855E73D
:1021A000104B1D602900104805F04EFCD2E70F4B84
:1021B0001D6029000E4805F047FCCBE70026CFE75D
:1021C00052A60020CCC3011068200020E4C30110F7
:1021D000D49F0020ECC3011004BD011020BD0110EC
:1021E000F4BC011040150020F8C301104415002074
:1021F00020C4011030B587B0414805F025FC052307
:10220000002533E02B00022530E09D421CD13D49E2
:10221000684610F0B3F86846FEF79EF968460FF07E
:10222000DBFFFFF767FAFFF7ADFEFEF775F9FEF784
:102230003FFC354B1B78002B0AD0FEF7EFF9FEF779
:1022400081FC2B00012407E0304805F0CDFBDEE7E0
:10225000FEF7F0F9F3E72C009C420DD12C4B1B78D4
:10226000002B0DD00225A5421FD12B00052DFDD836
:10227000AA0028498A589746274805F0B5FBEDE79C
:10228000264805F0B1FB264B186800F0C5FA254832
:1022900005F0AAFB244B186800F0BEFA1C4B012283
:1022A0001A700225DFE71C00DDE7204805F09CFBE3
:1022B0002B00DBE79D4201D12B00D7E71C4805F03E
:1022C00093FB2B00D2E723002C009C42FBD0194843
:1022D00005F08AFBF7E72C00F7E79D420BD1164883
:1022E00005F082FB44235A1E002B8BDD134B00218B
:1022F00099541300F7E7124805F076FBEFE7C04664
:1023000048C40110B42000205DA6002074C4011050
:1023100061A6002064C5011090C40110ACC4011076
:102320007C220020C8C401106C9E0020E4C401106F
:10233000FCC4011018C501104CC50110249D0020DB
:1023400030C5011010B502490120FDF7FFFF10BD97
:10235000FFFF000040787047002303704170704712
:1023600010B5408806F08CFD10BD10B504000800C3
:1023700006F086FD608010BD10B50400080007F06F
:102380003BF920000CF0C0FA20000CF0DBFA034B04
:102390001868002202490CF0C9FA10BDEC20002098
:1023A00095240010F0B583B006000F0015001C0046
:1023B00000230193042101A8FFF7CEFFA1B201A8D9
:1023C000FFF7D3FFC12252000421362007F05AFE46
:1023D000041E11D0042201A9406805F051F9ABB2E6
:1023E0003A00210030000CF0F9F90500200007F058
:1023F000FDFD280003B0F0BD01256D42F9E70000A6
:10240000F0B5D6464F464646C0B580460F009146C9
:102410008A20800007F0F4F9041E2FD00223036005
:1024200083239B003A68C25004334A46C250852633
:10243000B600002585510833C550020012494046B8
:102440000CF074FA114B1D60EFF3108A72B6802104
:10245000F8256D030902280019F082FB8AF3108821
:102460000B4B1D60A3594A4639004046FFF79AFFBF
:102470000020E0BCBA46B146A846F0BD0100404687
:10248000FFF77AFFF4E7C046DD240010E0200020CB
:10249000E4200020F8B516001D0006AC27880CF0DB
:1024A00073FA041E10D000220B490CF039F80028F2
:1024B0000AD17068FFF74EFF022806D020000CF00A
:1024C00041FA300007F092FDF8BD3A0029002000E3
:1024D000FFF796FFF5E7C046B0000210F0B5CE4614
:1024E00000B5384CA54405000E001400019388ABDC
:1024F0001F885389128993422DD1042B08D9606813
:10250000FFF72EFF85239B00EB580133984228D01C
:102510006068FFF725FF85239B00EB580133984245
:1025200047D085239B00EB583A0001993000FFF714
:1025300039FF628981239B009A423ED229003000F4
:10254000FFF71AFF200007F051FD1F4B01221A7000
:102550001E4805F049FA82239B009D4480BCB94681
:10256000F0BD6289043A92B2042302A9200007F068
:1025700067FF6389164A11688C466344043B136005
:10258000EFF3108972B68022124B1868920002A9EC
:1025900019F0B6FA89F3108885229200AB580133FE
:1025A000AB506389043B0432A9588C466344AB505A
:1025B000B7E785229200AB50B3E7200007F016FD85
:1025C000C9E7C046F8FDFFFF58A600207CC50110F2
:1025D000E0200020E420002010B50CF0D5F9094BD4
:1025E0001860002805D0452207490BF099FF002804
:1025F00000D010BD034B1868002204490CF096F976
:10260000F7E7C046EC200020B0000210952400102F
:10261000014B03607047C0463CC6011070B5040012
:102620000D000100034805F00FFAA400024BE5502D
:1026300070BDC04600C601100821002010B5034B34
:10264000186803681B68984710BDC0460821002021
:1026500010B5034B586803681B68984710BDC04607
:102660000821002010B5406800F014F810BD0000EB
:1026700070B504000D001600FFF7CAFF044B0833C5
:102680002360666021002800FFF7C8FF200070BDAE
:1026900040C6011010B5C06800F0CBF810BD0000B6
:1026A000F0B5C64600B5060001793D4805F0CCF905
:1026B000B1683C4803F08AFF0400012501E064088A
:1026C0006D0080235B029C42F9D280235B009D4217
:1026D00062D8671E3B002A00B168334805F0B4F9A0
:1026E0002900304803F072FF210003F06FFF04F06F
:1026F00043FE04F0A3FE02000B002C4805F0A4F9F1
:1027000033799846280004F037FE051C04F08EFE4D
:10271000C4B2200004F036FE011C281C04F003FEA5
:102720008321C90504F01FFE04F080FEC0B224011D
:10273000044343469A00424492001D4B9C46624427
:10274000546033793F043F0C9A00D21892006244DF
:1027500017613379012211009940164B19603179C4
:102760008B005B189B00634419688A4380214901F0
:102770000B431A601049042000F0EEFF00210420F2
:1027800001F0EAF80121042000F0D6FF0B4805F023
:102790002BF980BCB846F0BD094805F025F998E74B
:1027A0004CC60110405973078CC60110C0C60110F9
:1027B00000000540A8200540E5040010E0C6011017
:1027C00074C6011070B5040001718260C3600820F6
:1027D00004F05CFF050021792200FFF749FF256026
:1027E0002000FFF75DFF200070BD000070B5040001
:1027F000017182600025056145618561C5610562E1
:10280000456285621100034805F01EF92C23E5544A
:10281000200070BDF0C6011070B50400102004F057
:1028200035FF050021792300A268FFF7CBFF256063
:1028300070BD10B504002C230122C25403698362C9
:1028400005E0186800F05CF9A36A0433A362A36A88
:1028500062699342F5D1237B002B0CD0E369A3621C
:10286000A36A226A934206D0186800F05BF9A36A53
:102870000433A362F4E72C230022E25410BD0000CD
:10288000F0B5DE4657464E464546E0B583B00500F6
:102890008846160001230093436802689C1AA4101E
:1028A000314A0121A24245D001948C4245D301AA6C
:1028B0001268A4182A689B1A9B109C423FD380235D
:1028C0009B059C423DD22B6899466B689A464346CD
:1028D0004A469B1A9B46002C37D080239B059C427E
:1028E00031D2A00004F0D2FE07005B463268FA50F5
:1028F00043464A469E1A002E29DCBE19043653462A
:1029000042469B1A9A46002B27DC5644AB684A463F
:10291000991A002A02D0484604F0C0FE2F606E606B
:10292000A4003C19AC6003B0F0BCBB46B246A9465B
:10293000A046F0BD0D480FF019FC6A46B8E70A4CF6
:10294000C1E7094CBFE70FF0E9FB0027CDE73200F4
:102950004946380017F0EAFFCFE71A004146300039
:1029600017F0E4FFD1E7C046FFFFFF1F04C70110C7
:1029700010B582B0040001911C304168836899420F
:1029800008D0019B0B604368043343600123237329
:1029900002B010BD01AAFFF773FFF7E700B583B0DF
:1029A0000191103041688368994206D0019B0B6009
:1029B00043680433436003B000BD01AAFFF760FF22
:1029C000F9E7000070B582B005000E1E0DD0941B13
:1029D00001940F2C0ED82868012C14D0002C14D090
:1029E0002200310004F04CFE0FE09142EFD00B4882
:1029F0000FF0A4FB002201A928000FF0CFFB2860F4
:102A0000019BAB60E7E733780370019A6A602B683B
:102A10009B1800221A7002B070BDC0468CBD011018
:102A200070B504000B00150002000832026009684E
:102A30005A688A180023FFF7C5FF2576194804F065
:102A4000D3FF23681A78472A20D1DA78303A92B235
:102A500062839B78303B9BB2002B04D099005B18BB
:102A60005B00D3186383618BA1830F4804F0ECFFF4
:102A7000A08B00F051FD237E002B0BD0012B0FD13A
:102A8000A28B9340D0221206536209E0074804F05B
:102A9000ABFF05E0A28B01239340D0221206936284
:102AA000200070BD20C7011030C7011040C70110C1
:102AB000014B0833036070477CC7011070477047B3
:102AC00070477047704710B50400FFF7F1FF1421FD
:102AD000200004F0E3FD200010BD000010B504004C
:102AE000054B08330360002303610133C3600348CF
:102AF00004F07AFF200010BD7CC7011064C70110EC
:102B000010B50400036901330361C268934204DB1A
:102B100003681B6998470023236123689B68200092
:102B2000984710BD10B50368DB68984710BD8369EE
:102B3000027D002A06D09A8B01239340D0221206F0
:102B4000536170479A8B01239340D0221206936100
:102B5000F7E7704710B50400034B08330360FFF735
:102B6000A7FF200010BDC046A0C7011010B504008B
:102B7000054B08330360FFF79BFF1C21200004F086
:102B80008DFD200010BDC046A0C7011070B586B0F5
:102B900004000D001600FFF7A1FF104B083323605F
:102BA000267502AE009629686A688A18002368466E
:102BB000FFF708FF202004F069FD050001226946A7
:102BC000FFF72EFFA5610098B04203D0029B591C6D
:102BD00004F064FD200006B070BDC046A0C701101F
:102BE000C3690133C3618269520893420FD3026AF9
:102BF000037D01214B40DBB20375002B08D0928B83
:102C000001239340D022120653610023C361704711
:102C1000928B01239340D02212069361F5E770470F
:102C200010B50400034B08330360FFF741FF200099
:102C300010BDC046F0C7011010B50400054B0833A5
:102C40000360FFF735FF2421200004F027FD20005A
:102C500010BDC046F0C70110F0B587B004000D00EC
:102C600016001F00FFF73AFF1B4B083323603900A3
:102C7000300003F0ABFCA0610023E361237502AEDA
:102C8000009629686A688A186846FFF79BFE20202C
:102C900004F0FCFC050001226946FFF7C1FE256235
:102CA0000098B04203D0029B591C04F0F7FC236A41
:102CB000227D002A08D09A8B01239340D02212064D
:102CC0005361200007B0F0BD9A8B01239340D022BE
:102CD00012069361F5E7C046F0C7011030B587B022
:102CE0000024002C3AD11E4A63001D19AD0055196D
:102CF0001B199B009958AB686A681A4804F0A4FE37
:102D00006D6802AB0093002D26D0280018F002F960
:102D10002A18002329006846FDF79CFE242004F0B1
:102D2000B5FC050063001B199B000D4AD3189B6876
:102D30000D4A12686946FFF78FFF009802AB984270
:102D400003D0029B591C04F0A9FC084B1868290009
:102D5000FFF724FE0134C4E70122DAE707B030BDF3
:102D600048150020C4C70110441500206C9E0020A7
:102D700070B504000D0000220A4B03F0E3FE0028AA
:102D80000CD0094A094B2000290003F0D3FE00288B
:102D900006D02000290003F00DFF00E0002070BDE8
:102DA0000020FCE70000E0C10000C0FFFFFFDF41A2
:102DB0000123002904D104D180221206904200D3BD
:102DC0000023D8B2704710B50400FFF7F1FF0028C8
:102DD00001D0200010BD0020FCE70123002904D110
:102DE00004D180221206904200D90023D8B2704745
:102DF00010B50400FFF7F1FF002801D0604210BDBC
:102E00000020FCE700B587B001006846FEF7E8F84F
:102E10006B461B7C072B06D0082B0ED0062B07D049
:102E2000002007B000BD00980199FFF7E1FFF8E727
:102E300000980199FFF7C7FFF3E702980399FFF79E
:102E400097FFEEE7F0B5C64600B592B0764B00931B
:102E5000764D01955F681C68002C1DD02E002468FB
:102E60000BE0491B4B425941C8B2002814D10A2239
:102E7000A35E002B0FD01B01E418002C0CD0E168DE
:102E8000002EEED00029ECD0280017F0FFFF4342BF
:102E90005841C0B2E9E7002410941197002C06D0E5
:102EA000227A7F231340033B012B0FD82468210093
:102EB0005F4804F0C9FD5C4B02935E4D03955F686B
:102EC0001C68002C1FD02E0024680DE00024EEE7C3
:102ED000491B4B425941C8B2002814D10A22A35EB3
:102EE000002B0FD01B01E418002C0CD0E168002E41
:102EF000EED00029ECD0280017F0C8FF434258411B
:102F0000C0B2E9E700240E940F97002C06D0227A75
:102F10007F231340033B012B0CD82468424B0493BE
:102F2000454E05965A6890461D68002D1FD0370003
:102F30002D680FE00024F1E7300017F0A7FF4342AF
:102F40005841C0B2002812D10A22AB5E002B0DD02E
:102F50001B01ED18002D0AD0E968002F01D00029CF
:102F6000EAD1891B4B425941C8B2EBE700250C95C9
:102F700043460D93002D2CD02A7A7F231340072B34
:102F80001AD00FD8042B09D9053BDBB2012B1ED870
:102F900028686968FFF717FF05001BE0032B11D2B3
:102FA000002517E0082B05D128686968FFF7E0FEC7
:102FB00005000FE000250DE028686968FFF718FF9D
:102FC000050007E02868FFF71DFF050002E0002567
:102FD00000E0002508AB0693002C23D0200017F05A
:102FE00099FF22180023210006A8FDF733FD2420B5
:102FF00004F04CFB0400114B1A682B0006A9FFF7E4
:103000002BFE069808AB984203D0089B591C04F08D
:1030100045FB0B4B18682100FFF7C0FC12B080BCC9
:10302000B846F0BD0122DDE750940020DCC7011056
:10303000E4C70110ECC70110ECC3011044150020D7
:103040006C9E00207047000010B504000E4B083342
:10305000036002003432406B23003C33984203D0BB
:103060009168013104F01AFB22001C32E069230050
:103070002433984203D09168013104F00FFB200003
:10308000FFF716FD200010BD3CC8011010B504006C
:10309000104B0833036002003432406B23003C3392
:1030A000984203D09168013104F0F8FA22001C32F2
:1030B000E06923002433984203D09168013104F081
:1030C000EDFA2000FFF7F4FC7C21200004F0E6FA82
:1030D000200010BD3CC8011070B50400036E1B78C1
:1030E000826913405A1E9341DBB24C228354002B59
:1030F00034D0436D18682065A56E04F043F9291C8F
:1031000004F031F904F060F9E066636EC21862669B
:1031100053400121256FA9400B402A41A265002898
:103120001DDD4D220121A154002B17D0A36F4D228C
:10313000A25C002A17D09A8B01239340D02212065A
:103140005361636F9A8B012319009140D0221206BC
:103150005161E26D616E11604E22A35470BD4D222B
:103160000021A154E0E79A8B01239340D02212065C
:103170009361E6E710B5FFF7AFFF10BD436F9A8B81
:1031800001239340D022120693614E230022C254A1
:10319000704710B5FFF7F2FF10BD0000F0B5D6463E
:1031A0004F464646C0B58CB004008A4617001D0045
:1031B000149EFFF793FC3D4B0833236067611C238B
:1031C0009946A14423002433E36129686A688A1878
:1031D00000234846FFF7F6FB2700343723003C3333
:1031E0006363316872688A1800233800FFF7EAFBCE
:1031F000169B6365179BE365189B2366159B2367E6
:1032000002AE00964B465A68E3699C46624400232E
:1032100061466846FFF7D6FB202004F037FA050028
:1032200001226946FFF7FCFB65670098B04203D0B6
:10323000029B591C04F032FA08AE06967A68636B5A
:103240009C4662440023614606A8FFF7BBFB202092
:1032500004F01CFA0500012206A9FFF7E1FBA567AF
:103260000698B04203D0089B591C04F017FA0027B7
:10327000676601252800236F984004F083F8804694
:10328000504604F07FF8011C404604F056F8A06652
:1032900063699D40A5614C23E7540133E754200046
:1032A0000CB0E0BCBA46B146A846F0BD3CC801101F
:1032B00070B592B000240DE001222BE001223AE02B
:1032C000364E29003068FFF769FB30682900FFF7A8
:1032D0004FFB0134032C5FD82100314804F0B4FBCC
:1032E000A30030495A1804322F481A502F4A9A180E
:1032F00004322F481A5024312E4B196022012E4BD4
:103300009B189D6808AB0693002DD5D0280017F0B8
:1033100001FE2A180023290006A8FDF79BFB2201C5
:10332000254B9B18DD680EAB0C93002DC6D02800F2
:1033300017F0F0FD2A180CAE002329003000FDF72D
:1033400089FB7C2004F0A2F9050022011A4B9B188E
:103350005A68A3001449595815481B581548006865
:1033600004900393029116230193009606AB134930
:103370002800FFF713FF0C980EAB984203D00E9B6A
:10338000591C04F08BF9069808AB984298D0089B1A
:10339000591C04F083F993E712B070BD7C22002021
:1033A00014C80110249D002098940020DC9F002068
:1033B000809400207C94002054150020409C000044
:1033C000F0B583B004000D00160000F0B1F800283D
:1033D00001D003B0F0BD154F00973B000122012141
:1033E000053001F04DFD00962B0022000121104810
:1033F00001F04EFE31006943200003F0E7F80400BD
:103400000C4B009300220221042001F039FD0094AE
:10341000230000220121052001F032FD00973B002E
:1034200002220021062001F02BFDD2E7006CDC0215
:1034300000800240001BB700F0B5DE4657464E46FE
:103440004546E0B583B080468B4600920193042048
:1034500001F018FEFA21890003F0B8F88246A02393
:103460005B0099462CE0013C002C20D025007D43D8
:103470002900300003F0AAF84045F4D129003000BB
:1034800003F0A4F80029EED173019B1B9B009E1949
:10349000F6005B461E60009B1F60019B1C600120C4
:1034A00003B0F0BCBB46B246A946A046F0BD013F02
:1034B000002F01D03C00D7E701235B429C46E1444A
:1034C0004B460F2B09D956464B465E43044BF21828
:1034D000044B9A42F0D80727EAE70020E0E7C0460D
:1034E000508EF4FF50F80C0010B58300084A944643
:1034F00063441C6840226240C02414408022520170
:1035000013431C60C000034B9C466044416010BDE7
:1035100004C001400040014010B501238340D02287
:103520001206936293610521FFF7DEFF10BD0000D4
:10353000034B1B6802201840431E9841C0B27047DD
:1035400000C00640EFF3108072B6034B1B68002BDF
:10355000FBD0BFF35F8F70472C0100D0BFF35F8FAC
:10356000024B00221A6080F3108870472C0100D0B3
:10357000F8B506000C001500FFF7E4FFE308F718A4
:10358000F15C07222240012393400B4205D1DBB2BC
:103590000B433B70FFF7E2FFF8BD2100280001F06C
:1035A000E9FEF0B583B00600019114001F00FFF79B
:1035B000C9FF00E00134BC420CD8E308F518F35C05
:1035C0000721214001228A401A42F3D1D2B21A4384
:1035D0002A7001E001246442FFF7C0FF002C02DBE7
:1035E000200003B0F0BD019B002BF9D0089801F03A
:1035F000C1FE0000002307E0054A9A189200BFF3BD
:103600005F8F0021116001331F2BF5D97047C04631
:1036100040000034054A1078431CDBB21370172BAE
:1036200002D9130010221A707047C046941500206A
:1036300000B583B00100044B00931F2318220348F8
:10364000FFF7AFFF03B000BD60C801108823002062
:10365000074B9B68103080001950BFF35F8FBFF39A
:103660005F8F044B0021196082F310887047C046B9
:1036700000ED00E0240100D010B5091A081F0A4B24
:103680009C466144094A914208D8C30706D44010B9
:103690004005400D064B184380B210BD054B064A4D
:1036A000A321064801F0CCFDFC070000FE0F00003E
:1036B00000E0FFFF7CC80110ECCA0110ACC801108B
:1036C00010B5091A04394C08090B08D14905490DF0
:1036D000064A11430180064B2343438010BD054B2E
:1036E000054AAB21054801F0ABFDC04600F0FFFFE5
:1036F00000F8FFFF08C90110C0CA0110ACC80110D2
:1037000001238340034A10681840431E9841C0B209
:103710007047C04600E100E0002904D0034B186068
:10372000034B18607047034B1860FBE780E200E032
:1037300000E100E080E100E010B5012383401800C3
:10374000FFF7EAFF10BD0000024B9B6810308000BD
:10375000C058704700ED00E070B504000D00EFF3B5
:10376000108672B60C4B1B68002BFBD0BFF35F8F2B
:103770002000FFF7E9FF094B984201D0A84205D18C
:10378000320029002000FFF763FF70BD044B054A9B
:103790008621054801F054FD240100D0CD01001020
:1037A00018C9011008CB0110ACC80110F0B5CE4605
:1037B000474680B583B006000D00EFF3108872B65F
:1037C000564B1B68002BFBD0BFF35F8F544B9A689E
:1037D00034001034A300D758524B9F4207D0AF4259
:1037E00000D198E00197504BFB1A2F2B09D9424684
:1037F00039003000FFF72CFF03B0C0BCB946B0461B
:10380000F0BD3000FFF77CFF814600213000FFF75C
:1038100093FFBFF35F8FEFF30581002901D08C4246
:1038200011D10123019C9C430022A368AB4212D01A
:103830000622A256002A0DDB53009B189B00220093
:10384000394CE418F1E73621384B394AFF31394811
:1038500001F0F6FC2200AB4256D106256557002D3B
:1038600038DB6B005B199A002F4B9B189A68A2609B
:10387000DA79E27106229A56A2719B795BB2002B2B
:103880000FDA2D48A0806B005B199B00264AD318E5
:103890002A4A11789971157049463000FFF74CFF9C
:1038A000A5E7201D6B005B199B001F4A9B181A1D82
:1038B0009B88D90A1C2907D15B055B150233590087
:1038C0005118FFF7D9FEDDE71D4B1E4AB1211948FB
:1038D00001F0B6FC002912D1002A0ED0FF2393710B
:1038E000194B9380154A1378A371184B0E49641A2B
:1038F000644163431B0D1370CEE70A4FF2E7201DAE
:103900001349FFF7DDFEC7E76A21124B084AFF3172
:10391000084801F095FC034F69E7C046240100D038
:1039200000ED00E0CD010010981500202CCA011018
:10393000D8CA0110ACC8011001BD000056A6002075
:1039400014CA0110F8CA011001BDFFFFAAAA0000A5
:10395000D215002060CA011010B5032304009C4357
:10396000064A9446644422681840C000FC338340F1
:103970009A43130081400B43236010BD00E400E034
:1039800070B5012101432E4BCB1A2F2B28D8EFF312
:103990000583002B2BD0EFF3108C72B6294A1268E6
:1039A000002AFBD0BFF35F8F274A0400244D641B1D
:1039B00064416243120D54B2244A92689B00D2586B
:1039C0008A421BD00022032A32D853009B189B0046
:1039D0001B49CB189B795BB2A3421FD00132F2E79F
:1039E000C7211B4B1B4A49001B4801F029FC9221AF
:1039F0001A4B184AFF31184801F022FC134A92680A
:103A00001749D150174B1A7882711C70BFF35F8F22
:103A10000C4B00221A608CF3108870BD0D0053000F
:103A2000991889006918FF268E710F4A8A80E9E784
:103A3000D1210E4B074A4900074801F001FCC0465E
:103A400098150020240100D0AAAA000000ED00E093
:103A500068CA0110A4CA0110ACC8011090CA0110B4
:103A6000CD01001056A6002001BDFFFF9CCA011029
:103A70000022044B02E0044902C30132072AFAD9AA
:103A80007047C04600E400E080808080024B9C4686
:103A900061448900016070474000003410B50400A3
:103AA000FFF7B8FD01002000FFF7F0FFFF232371AF
:103AB000BFF35F8F10BD10B50400FFF7ABFD010031
:103AC0002000FFF7E3FFFF23237100236371BFF39F
:103AD0005F8F10BD034B9C46614489000160BFF3BA
:103AE0005F8F70474000003410B504000120FFF7DD
:103AF0009FFD01002000FFF7EDFF10BD70B5050030
:103B00000C00080000F0FAFE0949200000F03AFE1F
:103B1000FFF780FD074B9C466044800068602C7571
:103B2000D0231B061B786B75A400034BE55070BDBA
:103B3000413E0010400000346C9400200A4B1A688B
:103B4000EFF3108172B61368002BFCD0BFF35F8FC8
:103B5000054B1B68BFF35F8F00221A6081F310884A
:103B600040BF002000217047749F002010B500293D
:103B700022D003681B7B99421ED8174B9C46614498
:103B8000090183689C4661440C684968002A19D081
:103B900003681B7B9A4215D883680F4884466244A9
:103BA00012019A1810685368020001208B4201D854
:103BB0000ED00020C0B210BD084B094A3C21094874
:103BC00001F03EFB054B064A3C21064801F038FB5C
:103BD000A242EFD8EDE7C046FFFFFF0FD8CC01109F
:103BE00058CF011084CC011010B500291ED0037BE2
:103BF00099421BD84B005B18033B0468A4466344FE
:103C0000002919D0002A1DD0914221D0002A25D0A8
:103C1000047BA24222D80468500080180338201880
:103C20008170197800291FD11A7010BD104B114AEC
:103C30006821114801F004FB104B114A6F310E4806
:103C400001F0FEFA0F4B0E4A70210B4801F0F8FA12
:103C50000D4B0B4A7121084801F0F2FA044B054A5A
:103C60006821054801F0ECFA41701A70DDE7C046A2
:103C7000FCCC0110C4CF011018CD011080CD011073
:103C8000A0CF01108CCD011098CD011070B50600A9
:103C90000D001400002914D0002A14D08068736825
:103CA0009847002806D0220029003000FFF79CFF2B
:103CB000280007E02A0021003000FFF795FF2000D0
:103CC00000E0100070BD0800FCE70000F0B583B014
:103CD0000500009201930AAB1C780BAB1F78002CF7
:103CE00026D003685A7B944207D10123002B19D1B7
:103CF000002C3BD1200003B0F0BD002C0CD01A7B6F
:103D0000944209D81A6863001B19033BD3189B78A7
:103D1000002BEBD00123E9E73E4B3F4A68213F48A7
:103D200001F08EFA3E4B3F4A67213F4801F088FA86
:103D300003689C7B002CDBD012D01A7B94420FD8F6
:103D400062001219033A19688C46624451789973DB
:103D5000002900D1D9730023937053701370C7E703
:103D60002C4B2D4A68212D4801F06AFA002C3AD0DC
:103D70002B681B7B9C4236D82C4BE3181B01AA688E
:103D800094466344009A1A60019A5A60089A9A60AD
:103D9000099ADA602E68002C2BD030D0337B9C42FD
:103DA0002DD863001B19033B3268944663440022FC
:103DB0009A705A701A70717B22003000FFF766FF0C
:103DC0007073844200D095E7287D009A019B00F033
:103DD00021FD061E01D0002F17D00C9B002B00D117
:103DE00088E71E7086E7124B124A3C210E4801F00C
:103DF00027FA114B114AA521084801F021FA054B79
:103E0000054A6821054801F01BFA2868210000F0E6
:103E100039FFE2E7FCCC0110C4CF011018CD01102E
:103E2000B0CD0110D0CF011084CC0110FFFFFF0FE7
:103E3000D8CC011058CF011080CC0110B4CF0110A4
:103E4000F0B5DE4657464E464546E0B58BB0099084
:103E5000002308938200B54BD658370052E0B44B8C
:103E6000B44A3F21B44801F0EBF9B44BB44A3C21C9
:103E7000B44801F0E5F9002901D1002869D10021F9
:103E8000404600F0F5FEA04219D12A686B68069200
:103E90000793AB689846EB689A464346002B14D0CC
:103EA000002C18D03B681B7B9C4214D8631EFA6818
:103EB000D35C08931B0218433861002015E0A24B25
:103EC000A24A8E219F4801F0BBF9A14B9F4A922143
:103ED0009C4801F0B5F9994B9E4A4121994801F05F
:103EE000AFF900239A46984600207B68BFF35F8FA6
:103EF00000221A6086F310884346002B32D1002836
:103F000000D10CE100F0FAFB02000B1EA7DB002041
:103F10000021069007917868EFF3108672B6016869
:103F20000029FCD0BFF35F8F396888464C7B002C9A
:103F3000D7D09AD0097B8C4297D8874965182D0134
:103F4000B9688C46654428686968801A99410029D7
:103F500091DD2A686B68099800F05CFC00239A46A2
:103F60009846C2E7089B1B02234399465146180016
:103F7000C04705000E007A68EFF3108B72B6136825
:103F800059424B41D9B2002BF9D1BFF35F8F002EBC
:103F90001EDB002E46DD3B69002B47D04B456DD123
:103FA00000F0ACFB02000B1E6EDB52197341002BBC
:103FB00070DB002B72DB002104910131039102942C
:103FC00051460191414600913800FFF77FFE4CE0D9
:103FD0003B69002BDDD04B4514D1069A079B521B41
:103FE000B341002B14DB002B16DB002104910131BF
:103FF0000391029451460191414600913800FFF728
:1040000065FE32E0554B514AA1214E4801F018F9A6
:1040100001225242524BE6E7454B464A3F21464871
:1040200001F00EF9002E01D1002DB4D13B68002C17
:1040300050D05A7B944237D1012100294AD1DA7BF2
:10404000002A4DD19A7B002A03D1DA7B002A5AD16B
:104050009C73DC73002C5CD03B681B7B9C4258D863
:10406000FA68013C135D0133135500233B617A6804
:10407000BFF35F8F13608BF3108843E7374B334AEE
:10408000A421304801F0DCF8294B2A4A3F212A4874
:1040900001F0D6F801225242314B8AE7244B254ADF
:1040A0003F21254801F0CCF8002C0DD01A7B94421A
:1040B0000AD862001219033A18688446624492785A
:1040C000002ABAD00121B8E7264B274A68212748A1
:1040D00001F0B6F8264B274AF621244801F0B0F843
:1040E000002A0AD0197B8A4207D851008A18033A5D
:1040F00019688C4662445470A4E71A4B1A4A682126
:104100001A4801F09DF81C4B1A4AFB21174801F090
:1041100097F80A4B0F4A41210A4801F091F80BB079
:10412000F0BCBB46B246A946A046F0BD6C94002048
:1041300094CB011024CF0110B0CB0110D8CC0110CA
:1041400058CF011084CC0110D8CD01103CCF011004
:10415000F0CD01107CCF0110FFFFFF0FFCCD01104F
:10416000FFFFFF7FFCCC0110C4CF011018CD011060
:1041700038CE011090CF01105CCE011010B50C4B61
:104180005B68002B04D00A210A48FFF77FFC10BDB2
:10419000074C2300084A1021206800F079FC032016
:1041A00000F0A0FA03212000FFF7A8FCEBE7C046CF
:1041B000E0150020749F00206D3B001010B5064BE9
:1041C0005B68002B01D0044810BD044B044A5E21FB
:1041D000044801F035F8C046E015002070CE01100B
:1041E00064CF011084CC0110F0B5DE4657464E4630
:1041F0004546E0B58BB0804616001F00149B9A46DA
:10420000159B994616AB1B789B461F2302AA944622
:10421000634400221A702BE0002809D0424612683D
:10422000127B904204D8421E4146C9688A5C41E034
:10423000404B414A4121414801F002F807984CE0C7
:10424000361BAF41002F07DB002F11DA3C4B3D4AF4
:104250003F213D4800F0F4FF012676423B4FF3E753
:10426000374B384A3F21384800F0EAFF002F4FDB38
:1042700043465A68EFF3108472B6136859424B41B3
:10428000D9B20791002BF8D1BFF35F8F1F3302AA79
:104290009446634404930023039302934B46019393
:1042A0005346009332003B004046FFF70FFD031ECC
:1042B000B2D1020041464968BFF35F8F00250D600F
:1042C00084F31088002B29D01F2302A98C46634455
:1042D0001B78002BB2D112021043002B20D05B467A
:1042E000002B1DD04946D04704000D0003000B43AE
:1042F0001DD00029A4DB00F001FA06000F1EAFDB81
:1043000036196F41002FB1DA012676420F4FADE723
:104310000B4B0C4A3F210C4800F092FF0120404219
:104320000BB0F0BCBB46B246A946A046F0BD07980C
:10433000F6E7C046D8CC01107CCF011084CC011028
:1043400094CB011024CF0110B0CB0110FFFFFF7FF1
:10435000F8B504004268EFF3108572B6136858424E
:104360004341D8B2002BF9D1BFF35F8FCBB22268A3
:10437000567BB3421BD10120002848D020698842D7
:104380002BD0090AC9B2002B2ED02068007B8342B3
:104390002AD8581EE668305C88422BD0002063681B
:1043A000BFF35F8F00221A6085F31088F8BD002BE1
:1043B0000DD0167BB3420AD85E00F618033E17688C
:1043C000BC466644B678002ED6D00120D4E7134B05
:1043D000134A6821134800F033FF9521124B134A0A
:1043E0004900134800F02CFF124B134A412110489A
:1043F00000F026FF1900100000F044FC0028CED188
:1044000032210E4B094AFF31094800F019FF236998
:104410008B42C4D100232361C1E7C046FCCC01100C
:10442000C4CF011018CD011094CE01100CCF011093
:1044300084CC0110D8CC01107CCF0110B8CE011073
:10444000F0B587B006000F00EFF30583002B1FD1F6
:1044500006246442E517A4197D418D4202D803D198
:10446000844201D900240025002D14DB0494059515
:1044700000F044F902000B1E13DBA41A9D41002D2D
:1044800017DC14D03000390000F044F907B0F0BD5B
:10449000234800F06FFF234B234A3F21234800F0BD
:1044A000CFFE204B204A3F21204800F0C9FE002CBF
:1044B000E8D0FFF783FE0023029301931C4B009387
:1044C000049A059BFFF790FE002818DADAE700232C
:1044D00000E00023002BD5D1164B1A68EFF31081B2
:1044E00072B61368002BFCD0BFF35F8F114B1B68B3
:1044F000BFF35F8F00221A6081F3108820BF0499F8
:10450000059A0D4B5B6A9A42E3D80B48806A884251
:1045100003D29A42DBD00123DCE70123DAE7C0466D
:10452000BCCE011094CB011024CF0110B0CB0110F0
:104530003D3B0010749F00200040054070B5040012
:104540000D0000F0DBF802000B1E0ADB2000290042
:104550008018594100290ADB00290CDBFFF770FFA6
:1045600070BD084B084A3F21084800F069FE012051
:1045700040420749F0E7034B034A3F21034800F05C
:104580005FFEC04694CB011024CF0110B0CB0110C8
:10459000FFFFFF7F10B5FA2292000023002102F0F6
:1045A000A5FEFFF7CBFF10BD70B584B005000C0071
:1045B000EFF30583002B1ED1FFF700FE00230293CB
:1045C0000193224B00932A002300FFF70DFE061EE5
:1045D00023DD20BFFFF7F2FD3100FFF7B9FE1C4BD2
:1045E0005B6A9C422DD81A4A926AAA422CD29C42FB
:1045F00025D0012026E0164B5B6A994209D8144A5F
:10460000926A824207D2994201D001201AE000202A
:1046100018E0002016E0012014E00D4B5B6A9C427C
:1046200009D80B4A926AAA4207D29C4201D00120C3
:1046300008E0002006E0002004E0012002E0002065
:1046400000E0002004B070BD0120FBE73D3B0010FE
:104650000040054070B5EFF305801038EFF3108C83
:1046600072B61A4B1B68002BFBD0BFF35F8F012281
:104670001300834016494B6316490B6016490978AD
:104680000C00C440224214D0114A546A8200134DD7
:104690005259944206D38200114C125999430E4B41
:1046A000197007E00A4A031D9B009958995000228F
:1046B00000E00022BFF35F8F044B002119608CF3F0
:1046C0001088002A00D0904770BDC046280100D055
:1046D000004005403C70054062A60020A09F0020DD
:1046E0007C21002010B50100024A0348FEF740FF7C
:1046F00010BDC046F0CF011050A60020044B5B6AED
:10470000034A906A1900536A9942F9D17047C0462A
:1047100000400540084B5B6A01E0074B5B6A8B4237
:10472000FBD301E0044B5B6A8B4203D1024B9B6AD3
:104730008342F7D37047C0460040054070B504007F
:104740000D00FFF7DBFF02000B002000290080189E
:1047500059418B4202D804D1824202D90120404201
:10476000C117002902DBFFF7D5FF70BD024B034ADA
:104770003F21034800F064FD94CB0110B4D0011038
:10478000B0CB011070B504000D00EFF3108672B6C7
:104790001B4B1B68002BFBD0BFF35F8F002D1CD081
:1047A0002000FEF7D1FF174B83420BD019002000E9
:1047B000FEF7D2FF01212000FEF7BEFF0123A34038
:1047C000114A1360A400114BE550BFF35F8F0C4BEF
:1047D00000221A6086F3108870BDA2000B4B0021E6
:1047E000D1500122A2400A490B7893430B7005492E
:1047F0002000FEF7DBFF00212000FEF79DFFE4E72D
:10480000280100D055460010386005407C2100206A
:1048100062A60020F0B5DE4600B584B004001500A5
:1048200001921E000293FFF769FF03958E4202D8A2
:104830004ED185424CD9EFF3108B72B6274B1B68D3
:10484000002BFBD0BFF35F8F254A17780125A540C9
:10485000EBB23B431370234B5D63221D9200019921
:10486000D150A2002049029850501B6A2B4212D10D
:104870001C4B1B6C2B4208D00020BFF35F8F174BE3
:1048800000221A608BF3108823E0184B184AC521C8
:10489000184800F0D5FCFFF731FF8E4214D802D142
:1048A000039B834210D80E4B1B78BB420ED00D4B9E
:1048B0001D625D631F2004400123A3400E4A136064
:1048C000074B1F701E38D8E70020D6E70120D4E739
:1048D000012004B080BCBB46F0BDC046280100D01A
:1048E00062A6002000400540A09F002014D00110C7
:1048F00098D0011038D0011080E200E0EFF3108C66
:1049000072B60B4B1B68002BFBD0BFF35F8F0123EC
:104910008340084A136208490A789A430A70BFF331
:104920005F8F034B00221A608CF310887047C046DB
:10493000280100D00040054062A6002010B50029E3
:104940001ED0037B99421BD84B005B18033B0468C5
:10495000A4466344002919D0002A1DD0914221D0D9
:10496000002A25D0047BA24222D804685000801877
:10497000033820188170197800291FD11A7010BDD2
:10498000104B114A6821114800F05AFC104B114A93
:104990006F310E4800F054FC0F4B0E4A70210B484B
:1049A00000F04EFC0D4B0B4A7121084800F048FC0A
:1049B000044B054A6821054800F042FC41701A701A
:1049C000DDE7C046FCCC0110D4D1011018CD011098
:1049D00080CD0110C0D101108CCD011098CD0110F7
:1049E00070B506000D001400002914D0002A14D060
:1049F000806873689847002806D02200290030009C
:104A0000FFF79CFF280007E02A0021003000FFF795
:104A100095FF200000E0100070BD0800FCE70000DA
:104A200010B50023437301338373037BC3730123E6
:104A3000027B9A4214D9002B0CD0027B934209D8F6
:104A40005A00D218033A01688C4662440133DBB243
:104A50005370EDE70B4B0C4A68210C4800F0F0FB5B
:104A6000002A09D0924207D8016853009A18033AE5
:104A70008A180023537010BD024B034A6821034873
:104A800000F0DEFBFCCC0110D4D1011018CD0110D8
:104A900010B5017342608360FFF7C2FF10BD0000D4
:104AA00070B50400081E00D170BD002934D0237BEE
:104AB000994231D84B005B18033B2268944663440B
:104AC0005A78002AF0D02DD0237B9A422AD853005E
:104AD0009B18033B21688C4663445D780021597024
:104AE000002825D0237B984222D843001B18033B83
:104AF00021688C4663440021597001002000FFF7B3
:104B00006FFF060029002000FFF7CAFF02003100F6
:104B10002000FFF765FFC7E7084B094A68210948ED
:104B200000F08EFB054B064A6821064800F088FB22
:104B3000024B034A6821034800F082FBFCCC0110C1
:104B4000D4D1011018CD011070B505000C0016006D
:104B500000292FD034D0037B994231D84B005B1809
:104B6000033B0268944663445A78002A2ED19A780F
:104B7000002A31D11978FFF793FF0300002E0AD0E5
:104B8000EA7B002A2ED1AA7B002A03D1EA7B002AE5
:104B90003BD1AC73EC73002B3DD1002C4FD02B7B61
:104BA0009C424CD82B6861000C19033C1C19002353
:104BB000637070BD254B264A3821264800F040FB23
:104BC000254B264A6821264800F03AFB254B204A0F
:104BD0003A21204800F034FB234B1D4A3B211D485D
:104BE00000F02EFB002A0AD0297B8A4207D8510008
:104BF0008A18033A29688C4662445470C3E7164BFE
:104C0000164A6821164800F01BFB184B104A422137
:104C1000104800F015FB002B0BD02A7B934208D8DC
:104C200043001B18033B2A689446634400229A7091
:104C3000B3E7094B094A6821094800F001FB064B1C
:104C4000064A6821064800F0FBFAC046CCD00110A5
:104C5000ACD10110D4D00110FCCC0110D4D1011082
:104C600018CD011028D1011050D101105CCE0110D7
:104C700070B504000A00457B2900FFF765FF6073EB
:104C8000280070BD70B50400002967D0437B8B42BB
:104C90000ED0002911D0037B99420ED84B005B182F
:104CA000033B0268D0188378002B0CD1002056E01B
:104CB0000121FFF7DDFF012051E0294B294A68213E
:104CC000294800F0BDFA002B20D0227B93421DD84A
:104CD0005A00D318033B2268D2182568EB5C8B423C
:104CE0001AD0002B1BD0227B934218D85A00D3181D
:104CF000033B2268D21853788B4216D0002BF0D198
:104D00001A4B1B4A6B211B4800F09AFA144B154AA8
:104D10006821154800F094FA4378137007E0104BAF
:104D2000104A6821104800F08BFA43785370002332
:104D30008370437001222000FFF706FF0200617BB1
:104D4000814205D02000FFF74BFE6073012006E092
:104D5000094B074A7121074800F072FA002070BD24
:104D6000FCCC0110D4D1011018CD01109CCA011047
:104D700094D10110D4D0011074D1011070B5040089
:104D80000D00062000F07EF9C000290001F01EFC95
:104D9000C60908D00E4B9E4217D87F231840013019
:104DA0003500460800E001256562A6622C348020AB
:104DB0008001044300232360062000F063F9800093
:104DC000A901891901F002FC70BD0026014DEBE735
:104DD000FEFF0000FFFF0000002909D00A22064B59
:104DE0009C466044434258414000044BC2527047C5
:104DF00080225200F3E7C0460080FCBF28A60020B6
:104E000070B505000C00062000F03CF9002829D000
:104E1000164B9D4227D08022D203154B1A60154BAA
:104E20001A60154B9B6811009943FAD100212800A4
:104E3000FFF7D2FF21002800FFF7A0FF2C002C3441
:104E4000E96A60224A406E211140802252012243C9
:104E500011600A4B2B6380239B01234310221A60AD
:104E60000323AB6470BD80221204D6E700800340A8
:104E700000E0004000F0004000C0004001030000DE
:104E8000F8B5DE4657464E464546E0B505000F00EC
:104E900092460A9A93424ED31A0E91461E020A9ADD
:104EA00000233000494601F0CFFB80466C006419B6
:104EB000A4002F4B9C4664446368834200D2606028
:104EC0002B1FDBB29B46012B3BD9C0239B01234305
:104ED000802212011A60AB00264A9958002905D099
:104EE000506901F073FB01300138FDD153465A017E
:104EF00023685A40E0231A4080235B0123431A6051
:104F00005A46012A28D980239B012343802212017B
:104F10001A6043466360424600233000494601F070
:104F200093FBAD00134B58510120F0BCBB46B24679
:104F3000A946A046F8BD104B104A2D21104800F09C
:104F40007FF9012FC1D1C0239B01234303221A60A3
:104F5000A368DB07FCD5C9E72168794003220A4032
:104F60001A60A2680123BB401342FAD0CBE7C046C7
:104F7000008000408C230020E0D1011054D20110A9
:104F8000F4D1011030B583B00C2000F017F9FEF712
:104F9000CFFA00280DD0002304E099002D4A2E48B6
:104FA00088500133092BF8D92A4B2C4A5A6203B096
:104FB00030BD2B4B00229A6700F008F9294B0122E3
:104FC0001A60274B5B6C012BFBD1274B03221A6025
:104FD000234B9B6B012BFBD1013300930433234AFA
:104FE0000121234800F054F805230093214A0121B0
:104FF000214800F04DF8214B0093002202210420AB
:10500000FFF73EFF1E4D00952B00002201210520D9
:10501000FFF736FF104C00942300002200210720E8
:10502000FFF72EFF00942300002200210820FFF745
:1050300027FF0A4B00932300002200210920FFF7DD
:105040001FFF00952B00002200210620FFF718FF0C
:10505000ADE7C0468C230020006CDC021BB70000CB
:10506000008000403CB0004030B00040002F685944
:1050700000800240008C864700C00240001BB70041
:10508000405973078000014BC05870478C230020A3
:10509000F0B5C64600B504000D00170098460C2078
:1050A00001F094FA0600394BFA18394B9A4241D86C
:1050B00043011B1A9901C91AC9000918890138004E
:1050C00001F084FA0200103A98235B009A4237D824
:1050D0004346013B062B39D8069B013B062B35D8AE
:1050E0003F09B74238D343461E04069B1A031643B2
:1050F0002368002B36DB274B9C4244D08022520190
:10510000254B1A60254B1A60254B9B68110099436B
:10511000FAD12560A060231DC02292011A432123E9
:1051200013602368002BFCDAE6600823136080BC60
:10513000B846F0BD1B4B1C4A11211C4800F080F8FA
:105140001B4B194A1921194800F07AF8194B164AD5
:105150001C21164800F074F8174B134A23211348FA
:1051600000F06EF822683F231340AB42C3D1A3681E
:105170001B051B0D8342BED1E368EE22D202134011
:10518000B342B8D1D3E780229201B9E780E84BD38C
:1051900080F8A93200C0024000E0004000F000406A
:1051A00000C0004064D20110A4D30110C4D2011089
:1051B00020D301103CD3011088D3011080239B0021
:1051C0000343014AD362704700800540064BAA2280
:1051D00012011A602F22DA60044B054A1A60024B52
:1051E0005B68002BFBDA7047004002400060024021
:1051F00000B0FA0000BEFDE703000A4A1268002A68
:1052000008D0084A1068C318074A9A4206D3054ACC
:1052100013607047034A05491160F2E701204042DC
:10522000F7E7C046082900200000042064A60020FB
:105230000020704701204042704710B5FFF7DAFFA9
:1052400010B582B00C001900002A0CD0084B002ABF
:105250000BD00192009323000200064802F0F4FBF9
:105260000120FFF7C7FF044BF1E7034AF1E7C0460F
:10527000B0D30110C0D30110BCC6011070B52B4BC8
:105280002B4A1A602B4B2C4A1A602C4B9A682A4BDB
:105290009343FAD12A4C01E008CC9847294B9C4211
:1052A000FAD3FFF76FFE234B274A1A60234B9B6804
:1052B000DB43DB01FAD1254B40229A675A671A6714
:1052C000DA66234C09E0234B234A86212348FFF763
:1052D000B7FF2000FEF7E2FB0834214B9C4209D2C5
:1052E0002368002BF5D0012BEDD12000FEF7E3FB66
:1052F0000834F2E71B4CA1681B4DC022280002F0C5
:10530000BFF9A560EFF30583002B00D000BEFEF7C8
:1053100071F9FEF7ADFBFEF731FF144C01E008CC4C
:105320009847134B9C42FAD370BDC04600E0004042
:10533000BFCDFBFE00F00040FE7F3C0000C00040FF
:10534000E01E0020F01E0020FFFFFF0100F00140E2
:10535000D01E0020F0D3011080D4011010D4011011
:10536000E01E002000ED00E000000020F01E002004
:10537000001F00200FB400B583B0084802F034FBD2
:10538000049B002B07D005A90191180002F03CFBFB
:10539000034802F029FB0120FFF72CFF70D4011015
:1053A000B0BC01109A4200D288547047704710B5C3
:1053B000002802D00B684968984710BD0100002002
:1053C00007E083001B185B00501C08601078C018B1
:1053D00030380A681378303BDBB2092BF1D97047BB
:1053E000F0B5DE4657464E464546E0B583B0934697
:1053F0001F000C9B9A460D9C0E9B99460F9B9B078A
:1054000003D0B8460F00060022E00192A34688466A
:105410004E46B9460700B44207D2551C4B4641469A
:105420002020B84701342A00F5E73D004F465C468E
:10543000019B9B46B1464646B84637002E0007E022
:10544000013C551C5346185D43463900B0472A00BD
:10545000002CF5D135003E0047460F9B9B0707D433
:10546000100003B0F0BCBB46B246A946A046F0BD52
:10547000B0464E46B9462F005D46531BB342EFD2AD
:10548000541C4B4641462020B8472200F5E7F0B5B2
:10549000CE46474680B585B0944698460C9D0D9CF7
:1054A0000EAB1B789946109A119B129EB7071CD41D
:1054B000002B0CD0F7070AD54F46002F02D10C372E
:1054C000374204D0013B02E030272F55013494428B
:1054D00001D21F2CF8D9F70707D59C4205D21F2C03
:1054E00003D830272F550134F5E7F70615D5770592
:1054F00005D4002C03D0944224D09C4222D00F9A91
:10550000102A2BD00F9A102A30D00F9A022A35D0A9
:105510001F2C02D830222A5501341F2C05D84A46A8
:10552000002A31D02D222A5501340396029301948A
:10553000009543466246FFF753FF05B0C0BCB9462D
:10554000B046F0BD621E012C06D00F9F102F01D077
:105550001400D4E7023CD2E71400D0E7B206D1D45D
:105560001F2CCFD878222A550134D1E7B206CCD5EA
:105570001F2CCAD858222A550134C9E71F2CC7D876
:1055800060322A550134C3E7720703D52B222A550E
:105590000134CAE73207C8D520222A550134C4E7AE
:1055A000F0B5DE4657464E464546E0B593B08146D7
:1055B0008A46089209931CAB10CB1B789B461E9D14
:1055C000219B9846002C03D1102342469A439046D3
:1055D0008023DB0046461E4042461A4212D0002C71
:1055E00022D000260EE03033D9B2771C0AAB995591
:1055F0002900200000F0EAFFAC4216D31F2F14D878
:105600003E0004002900200000F0E0FFCBB2092B8F
:10561000E9D94246920605D54121C918C9B20A39CD
:10562000C9B2E2E76121F8E7270043460693209BD1
:1056300005931F9B049303955B46029301970AAB66
:105640000093099B089A51464846FFF720FF13B084
:10565000F0BCBB46B246A946A046F0BDF0B5DE465A
:1056600057464E464546E0B595B0089009910A92D6
:105670000B931E9E1F9C20AB1B789B46229B99463A
:10568000239D269B9A463300234303D11033524671
:105690009A4392468023DB0057461F4052461A42E7
:1056A00019D0330023432DD0002714E03033DAB271
:1056B0007B1C98460CABDA554A462B003000210083
:1056C00000F0C2FFA5421FD819D043461F2B1BD89C
:1056D000474606000C004A462B003000210000F02F
:1056E000B3FFD3B2092BE1D95246920605D5412228
:1056F000D218D2B20A3AD2B2DAE76122F8E7B1455B
:10570000E3D901E00023984653460693259B059371
:10571000249B04934B4603935B46029343460193B9
:105720000CAB00930B9B0A9A09990898FFF7AFFE00
:1057300015B0F0BCBB46B246A946A046F0BD00007D
:10574000F0B5DE4657464E464546E0B591B0834635
:105750008A460C9298461A9C08941B9D0995220033
:105760002B002000290001F0FAF9002800D0E5E024
:1057700001225242D74B2000290001F0EBF900280A
:1057800000D0DBE001225242D34B2000290001F07F
:10579000CBF9002800D0D1E000220023089E300081
:1057A000099D290001F0C0F9002800D0DDE008982B
:1057B0000999069007918023DB001E9A1A400D92EA
:1057C0001E9A1A4201D106231C93069807990400D9
:1057D0000D000A000600024300D1D1E0080D40058B
:1057E000400DBE4CA44660440A03120BBC4B13434D
:1057F0001F0001F0C7F9BB4ABB4B01F052F9BB4A8D
:10580000BB4B01F027F904000D000022B94B30001A
:10581000390001F016F9B84AB84B01F042F902001C
:105820000B002000290001F015F901F0C3F98146B1
:1058300001F0A8F904000D00B14AB24B01F031F9B2
:105840000022B14B01F006F901F0B4F90600AF4AAD
:10585000AF4B2000290001F024F904000D003000B6
:1058600001F090F9AB4AAC4B01F01BF902000B00C0
:105870002000290001F0E5F804000D0002000B00F3
:1058800001F00FF90A900B91A44BF31800261F05A5
:1058900022002B002000290001F0DCF80E900F916F
:1058A00022002B0000208021C90501F0CAF8040065
:1058B0000D0000229A4B0A980B9901F0D4F80022AF
:1058C000984B01F0C7F802000B000A980B9901F001
:1058D000CAF80022944B01F0BDF802000B000A98B0
:1058E0000B9901F0C0F802000B002000290001F024
:1058F000B1F802000B000E980F9901F0B4F80022E5
:10590000774B01F0A7F832003B0001F0CAF806001F
:105910000F0004000D00069A079B01F01BF90028F8
:1059200030D001235B429C46E14400227D4B300095
:10593000390001F098F804000D0023E01E9B049349
:105940001D9B03931C9B0293089A099B0092019351
:1059500043460C9A5146584600F0FCF811B0F0BC92
:10596000BB46B246A946A046F0BD002300240693DC
:105970000794069680231B069C46654407951AE704
:10598000002399464B466333C62B1ED804261E9B24
:105990001B0526D52B0023430FD0644A644B069881
:1059A000079901F0CFF8002879D00022614B0698C2
:1059B000079901F0B9F8002871D01C9B4B4506DD12
:1059C0004A46981A431E1C9303E00526DFE700238E
:1059D0001C938023DB001E9A1A431E92002600238C
:1059E00099461D9B9E4264D29F1B02231E9A1A4019
:1059F0000A921E9A134202D0002E00D000274B4676
:105A0000002B07D022002B000698079901F02BF8F5
:105A100006900791002200230898099901F084F864
:105A2000002848D1444B1E9A1340049303971C9BB3
:105A30000293069B079C0093019443460C9A51469F
:105A4000584600F087F8002E00D187E71E9B9B0682
:105A50003DD54525441C4346020051462800D84701
:105A60004B46DA179B18534005220592013E0496D7
:105A7000002203920A3202924A46D00F019000930C
:105A80004346220051465846FFF78AFD0A9B002BE9
:105A900000D163E702005F460C9E1D9D54E01C9BF5
:105AA000002B9ED00D9B002B9BD01C9B013B1C937D
:105AB00097E7002799E7069C079D22002900802090
:105AC0000006844661440B0006920793AAE7652509
:105AD000C0E7C046FFFFEF7FFFFFEFFF01FCFFFFC6
