:020000041000EA
:1000000000B5324B212058609868022188439860DF
:10001000D860186158612E4B002199600221596106
:100020000121F02299502B49196001219960352056
:1000300000F044F80222904214D00621196600F024
:1000400034F8196E01211966002018661A6600F04E
:100050002CF8196E196E196E052000F02FF8012189
:100060000842F9D1002199601B49196000215960AB
:100070001A491B48016001219960EB211966A021F2
:10008000196600F012F800219960164914480160C1
:100090000121996001BC002800D000471248134993
:1000A000086003C880F30888084703B5996A0420EC
:1000B0000142FBD001200142F8D103BD02B5186610
:1000C0001866FFF7F2FF186E186E02BD00000240BE
:1000D000000000180000070000035F00212200005C
:1000E000F4000018222000A00001001008ED00E03C
:1000F00000000000000000000000000074B24E7A12
:1001000000200420F7010010C3010010C5010010F9
:10011000C1010010C1010010C1010010C101001097
:10012000C1010010C1010010C1010010C701001081
:10013000C1010010C1010010C9010010CB01001065
:10014000CD010010CD010010CD010010CD01001037
:10015000CD010010CD010010CD010010CD01001027
:10016000CD010010CD010010CD010010CD01001017
:10017000CD010010CD010010CD010010CD01001007
:10018000CD010010CD010010CD010010CD010010F7
:10019000CD010010CD010010CD010010CD010010E7
:1001A000CD010010CD010010CD010010CD010010D7
:1001B000CD010010CD010010CD010010CD010010C7
:1001C00000BE00BE00BE00BE00BE00BEEFF3058054
:1001D000103800BEF2EB887198220210C82202107B
:1001E0003402001090A31AE700201F49086006C8D7
:1001F00081F3088810471D48006800282FD10DA4FE
:100200000ECC002902D000F012F8F9E71849194A7B
:10021000002000E001C19142FCD1174988471749ED
:1002200088471749884700BEFDE701C901C29A42C5
:10023000FBD37047C8220210C0000020A81E002077
:10024000D04002100000042000000420D040021022
:10025000001004200010042000000000704709482E
:1002600006F092F90047000008ED00E0000000D021
:10027000C81E002010A60020E152001039220010F4
:100280009F5200105756000006005250ABB3605307
:10029000F4D7011006005250861C030204D8011046
:1002A000060052505422A29D0CD801100500525055
:1002B000DE65F468D0400210F8B5C04610B5064CB3
:1002C0002378002B07D1054B002B02D0044800E017
:1002D00000BF0123237010BD40200020000000005B
:1002E000C0BA0110044B10B5002B03D003490448D9
:1002F00000E000BF10BDC046000000004420002008
:10030000C0BA01107047000000B587B005AB04AA61
:1003100003A90B4803F0C2F8002803D10849094893
:1003200005F05AF8059A0499039803F07BF8064BF8
:10033000009301220021062004F0D4FD07B000BD87
:1003400048E80100C0BA011040597307F0B589B000
:1003500004000D00012806D0002C02D1204B9D4244
:1003600036D009B0F0BD1E4B9942F5D11D4B1A0095
:1003700008321A6000225A601A721B4807F056F9B8
:1003800004900590002802D0174B9C4660440690CC
:10039000079010273A0004A9684607F07DF9134E2C
:1003A000300008303A00694607F076F92022B35C45
:1003B0007F218B43B3540E4A0023136053600D4AD0
:1003C000136053600C4807F031F90C4B1860C3E719
:1003D000064B986807F04EF9024811F07BFEC0E723
:1003E000FFFF00005C2000201027000010200020EC
:1003F000809F0020FC930020DC0500001494002066
:10040000F0B5D6464F464646C0B5884617009946D1
:1004100008AB1B889A465289264C7968200007F061
:100420003BF92368244A934226D0244A93422BD096
:100430000025ADB2A02292002900362009F0A0FDCF
:1004400004002A001E4909F0C5FF524649464046AD
:100450000EF09EF9210040460EF080F940460EF065
:10046000D1F9200009F040FD380009F03DFDE0BC65
:10047000BA46B146A846F0BD114B124A1A60124B5B
:1004800001221A704425D4E70D4B104A1A600E4B16
:1004900001221A70EFF3108372B6002404E0054DB8
:1004A0002E5D0B4D2E550134432CF8DD83F310885F
:1004B0000425BEE78C9C00206461657274697277C4
:1004C000889F002061746164FDA500206E6B6361EC
:1004D000D09C002010B50B4AB023D358DA0702D4C1
:1004E0009B0707D410BD02F011F9064AA42301218D
:1004F000D150F7E702F014F9024AA4230221D150A7
:10050000F0E7C0460000054010B52C2007F0CAF8FF
:100510000400094B1A68002102F0D0F9074B1C6057
:100520002C2007F0BFF80400054B1A68012102F0E7
:10053000C5F9044B1C6010BDF814002024220020D3
:10054000FC140020189E002070B5184B59688023B9
:100550001B02994219D8164807F082FA134DA96870
:10056000144807F07DFA144C2168144807F078FA13
:100570002A6823689A4211D0114B00221A70114840
:1005800007F03EFA0120404207E00D4B00221A70AE
:100590000D4807F035FA0120404270BD084B00229B
:1005A0001A700A4807F02CFA0120F6E700001F1025
:1005B00014BB01102CBB01105C23002048BB0110B0
:1005C00004A6002054BB0110F4BA011074BB011042
:1005D000F0B5CE46474680B583B08046254807F043
:1005E0000FFA254B1E68731C06D0002231004046CE
:1005F00011F02EFE002415E0204807F001FA2048F3
:1006000007F0FEF91F4B01221A702DE00F2318E0AE
:100610001D4B1A684946D1555D601B685B19002265
:100620001A700134B44217D2184BE3181B7899465C
:10063000154B5F687D1C1A6808339A42E6D0124B4E
:100640009B689D42E4D901230093002300223900D6
:100650000D4811F049FDDBE7434619680C4807F0E7
:10066000FFF9084B00221A7003B0C0BCB946B0466F
:10067000F0BDC04694BB011000801F10CCBB011020
:1006800000BC011009A600205C20002004801F107F
:100690001CBC011010B5044807F0B2F902F050FB81
:1006A00002F038FE10BDC04624BC0110F0B5CE46A5
:1006B000474680B597B0784807F0A2F9774B1B788A
:1006C000002B04D017B0C0BCB946B046F0BD744B87
:1006D0001A0008320492734D059520229B5C9B06FC
:1006E0001FD52E006E4B9C690BE0491B4B425941B4
:1006F000C8B2002816D10A22A35E002B0FD01B011E
:10070000E418002C0ED0E168002EEED00029ECD0C9
:1007100028001AF02BFB43425841C0B2E9E70024FD
:1007200000E000240E945E4B08330F93002C02D09F
:10073000237A5B060BD50294594B08330393002CA4
:1007400007D02268564B08330093019284E00024BE
:10075000F1E7002301937FE000248CE0491B4B422A
:100760005941C8B2002815D10A22A35E002B10D02F
:100770001B01E418002C0DD0E1684346002BEDD09E
:100780000029EBD028001AF0F1FA43425841C0B2D8
:10079000E8E7002412941397002C06D0227A7F23D6
:1007A0001340033B012B0CD824683F4B0C933F4F65
:1007B0000D975A6891461D68002D20D0B8462D68C7
:1007C0000FE00024F1E738001AF0D0FA4342584114
:1007D000C0B2002813D10A22AB5E002B0ED01B0141
:1007E000ED18002D0BD0E9684346002B01D00029FD
:1007F000E9D1C91B4B425941C8B2EAE7002510951F
:100800004B461193002D06D02A7A7F231340033BD9
:10081000012B15D82D68264920001AF0A7FA0028C8
:1008200010D0244920001AF0A1FA00280DD1224945
:1008300028001AF09BFA002807D102F035FB04E0EB
:100840000025E8E71D4807F0DBF80A22B35E002B1D
:1008500020D01B01F618019600230793019E002E5D
:1008600000D12FE7009F08960997341E03D0337AF2
:100870009B0600D470E714AB149415970A4A110034
:1008800021CB21C10A920E4D0B95002C82D0A84697
:1008900024686FE70026DEE748BC0110FEA50020B3
:1008A000102000205CBC0110FC9300206CBC0110E7
:1008B00074BC011090BC011098BC01107CBC0110EC
:1008C00064BC011010B584B008F0E6F808F004F933
:1008D00008F0D2F808F010F908F04EF9902006223E
:1008E0001D49000107F04EFF0021092007F01AFE04
:1008F00008F032FA194C1A4B02931A4B0193002359
:100900000093194B194A1A49200009F019F93623A6
:100910006522E2540133353AE2541649200009F0C9
:10092000DDF91549200009F0B7F90023134A042125
:10093000002007F093FA124B1870002808DB074CD0
:10094000200009F0ADF9200009F08CF904B010BDC9
:100950000C4807F055F8F2E7281600207028002010
:10096000959A00101D8D00109C20002098200020DA
:1009700090200020E18C0010058D001089130000EC
:1009800007A60020A0BC011010B5214C22000921AF
:10099000002007F021FB2288002A00D110BD1D4B4A
:1009A0001968002008F064F981B2194B19800029F8
:1009B00029D0C1225200002009F0E2FA164B18603B
:1009C000134B1A88134C216809F004FD206806F0C7
:1009D00051FE124806F02AFE20600D4B1B88002BAA
:1009E000DCD00D4B18680028D8D00D4A538801334D
:1009F00053800C490B6998470028CFD0064B1868E4
:100A000009F072FACAE7084806F0FAFFE5E7C046BF
:100A1000E8A500201494002010940020DC050000BC
:100A2000E828002070280020BCBC011010B50DF093
:100A300029FF0400074A08490DF0F0FC002805D101
:100A40000022064920000DF0EFFE10BD20000DF041
:100A5000F7FEFAE72D6A0000902000200104001044
:100A60007047000070B582B005000E1E0DD0941BBB
:100A700001940F2C0ED82868012C14D0002C14D00F
:100A80002200310006F008FE0FE09142EFD00B4843
:100A900011F0D2FA002201A9280011F0FDFA286015
:100AA000019BAB60E7E733780370019A6A602B68BB
:100AB0009B1800221A7002B070BDC046D0BC011055
:100AC00030B58DB002AD00951B4A111F002368465A
:100AD000FFF7C8FF1C2006F0E5FD0400012269466F
:100AE00002F086F80098A84203D0029B591C06F039
:100AF000E1FD124B1868210001F0B0FF08AD06952A
:100B00000F4A111F002306A8FFF7ACFF1C2006F0B8
:100B1000C9FD0400012206A902F06AF80698A8425D
:100B200003D0089B591C06F0C5FD064B1868210030
:100B300001F094FF0DB030BD00BD01102422002053
:100B400008BD0110189E002030B58DB002AD009593
:100B50001B4A111F00236846FFF784FF1C2006F084
:100B6000A1FD04000022694602F042F80098A84264
:100B700003D0029B591C06F09DFD124B1868210002
:100B800001F06CFF08AD06950F4A111F002306A85F
:100B9000FFF768FF1C2006F085FD0400002206A96F
:100BA00002F026F80698A84203D0089B591C06F0CC
:100BB00081FD064B1868210001F050FF0DB030BDDB
:100BC00000BD01102422002008BD0110189E002045
:100BD000704710B502AC24780160426083600473F2
:100BE0000023837310BD000070B582B005000E1E97
:100BF0000DD0941B01940F2C0ED82868012C14D012
:100C0000002C14D02200310006F046FD0FE0914286
:100C1000EFD00B4811F010FA002201A9280011F0C2
:100C20003BFA2860019BAB60E7E733780370019AD9
:100C30006A602B689B1800221A7002B070BDC04613
:100C4000D0BC0110F0B589B005000E008368029396
:100C5000002203925A68069299688A1A079259608C
:100C6000082206A904A806F017FDAB7B002B06D1CD
:100C70006B685A1C6A601B786B730123AB736F7BC4
:100C80000023AB7312E06B7B0022AA739F423DD01E
:100C9000002B16D05C2B17D00498002806D0039A9E
:100CA00005998A422FD2511C03918354AB7B002BB0
:100CB000E9D16B685A1C6A601B786B730123AB73B4
:100CC000E1E7012009B0F0BD6B685A1C6A601B782F
:100CD0006B730122AA73002B03D0752B03D01D4A1E
:100CE00004E00120EEE70420ECE702321478002C47
:100CF00002D0A342F9D15378002B02D00022AA736C
:100D0000CAE70220DEE700230493CFE7049B002B11
:100D100008D0039A05998A4217D2511C03919B1857
:100D200000221A70049B002B09D00299039A059B9C
:100D30000193D31A4868844663444B600592049B30
:100D40003360002B04D00020BCE700230493E9E7C4
:100D50000320B7E710BD011070B588B004000D0086
:100D6000837B002B06D143685A1C42601B78437377
:100D700001238373637B272B00D1A2E0222B00D1B8
:100D80009FE0A3680293002203925A680692996832
:100D90008A1A07925960082206A904A806F07CFC6A
:100DA000A37B002B06D163685A1C62601B786373B7
:100DB0000123A373637B002B01D1012085E02F2B3E
:100DC00001D9392B0FD95E2B01D97A2B10D9402BA1
:100DD00001D95A2B0ED92B2B0ED02D2B0ED02E2B0A
:100DE0000ED0002000E00120002811D102206CE08C
:100DF0000120F9E70120F7E70120F5E70120F3E7FB
:100E00000120F1E7002304930EE00200002A34D011
:100E10000022A2730499002906D0039A059EB242CB
:100E2000F0D2561C03968B54A37B002B06D163682B
:100E30005A1C62601B7863730123A373637B2F2B9F
:100E400001D9392BE1D95E2B01D97A2B0BD9402B53
:100E500001D95A2B09D92B2B09D02D2B09D02E2B98
:100E600009D00022D2E70200D0E70200CEE702005C
:100E7000CCE70200CAE70200C8E7049B002B08D0B9
:100E8000039A05998A4217D2511C03919B1800229C
:100E90001A70049B002B09D00299039A059B0193B9
:100EA000D31A4868844663444B600592049B2B60C8
:100EB000002B04D0002008E000230493E9E703207E
:100EC00003E029002000FFF7BDFE08B070BD000060
:100ED00070B504000D000022002305F065FE002817
:100EE0000CD0084A084B2000290005F055FE0028C8
:100EF00006D02000290005F0B3FE00E0002070BD00
:100F00000020FCE70000E0FFFFFFEF410120002987
:100F100000D00020C0B2704710B50400FFF7F6FF04
:100F2000002801D0200010BD0020FCE70020704701
:100F300010B50400FFF7FAFF002801D0604210BD91
:100F40000020FCE77047000070B50400254B1B78BB
:100F5000BFF35B8FDB0705D5E000234C2418206826
:100F6000616870BD1F4810F057FF0028F4D01F487B
:100F70001F49FFF7E7FF1C4D286069601D481E49A7
:100F8000FFF7E0FFA860E9601C481D49FFF7DAFFA2
:100F9000286169611B481C49FFF7D4FFA861E9611A
:100FA0001A481B49FFF7CEFF2862696219481A499F
:100FB000FFF7C8FFA862E96218481949FFF7C2FFA6
:100FC0002863696317481849FFF7BCFFA863E96302
:100FD00016481749FFF7B6FF28646964014810F006
:100FE00037FFB9E774200020C81E00209A9999990C
:100FF0009999B93F7B14AE47E17A843F2D431CEBAE
:10100000E2361A3F3A8C30E28E79453EBC89D89759
:10101000B2D29C3C33A7A8D523F649393DA7F44466
:10102000FD0FA5329D978CCF08BA5B25436FAC644A
:101030002806C80AF0B5D6464F464646C0B588B021
:1010400007000E000B782B2B05D02D2B07D1013676
:101050002C3B984605E001360023984601E000232A
:10106000984633786E2B17D04E2B15D0692B22D093
:10107000492B20D01A00303AD2B2092A32D92E2B6D
:1010800059D0002200233A607B6000220023BA601E
:10109000FB6000233B7407E00020C249FFF752FFCA
:1010A000B860F96008233B74380008B0E0BCBA4669
:1010B000B146A846F0BD4346002B0ED00020BA49E9
:1010C000FFF740FF80231B069C46614402000B0093
:1010D000BA60FB6008233B74E6E70020B249FFF7E3
:1010E00031FFF3E700240025B946370039788C46F4
:1010F0000E00303EF6B2092E25D8AC498D4222D8DA
:101100001ED0A10FAB000B43A200200029008018C5
:1011100059410018494104000D000096002601962F
:10112000009EF643B2464E1C20D0009C019D241820
:101130004D410137DAE700240025B9463700D5E7ED
:101140009B498C42DDD960463E004F46002812D1B3
:101150003C607D602000290005F08EFDB860F960DC
:101160004346002B05D007233B749DE75045DCD94F
:10117000E9E70623F8E70023994633004E469946EF
:1011800080235B039D420AD30A220023200029000A
:1011900005F08CFA04000D00013636B2F0E74B463C
:1011A000B1461E00494632781300303BDBB2092BB2
:1011B00003D8013109B20136F5E789462E2A15D048
:1011C0003378652B3AD0452B38D0002399443678B4
:1011D000002E00D185E0002200233A607B600022CF
:1011E0000023BA60FB6000233B745DE701368A464A
:1011F000B94613E0A20FA9001143A00024184D41E5
:1012000024196D41029300230393029A039BA418AF
:101210005D415246013A13B29A4601363378303B6B
:10122000DBB2092B07D8634FBD42F6D8E2D1624A40
:101230009442F2D8DEE74F46D146C1E7701C73787E
:101240002D2B17D02B2B18D000260023B4464E464A
:10125000027811003039C9B2092939D89900CB1860
:101260005B00303A9B18F1189A225200914207DC39
:101270000130EDE7B01C0126E7E7B01C0026E4E7EB
:101280006646002E0DD04346002B07D00022802357
:101290001B06BA60FB6008233B7405E700220023AD
:1012A000F7E74346002B0ED000203F49FFF74AFEE8
:1012B00080231B069C46614402000B00BA60FB6061
:1012C00008233B74F0E600203749FFF73BFEF3E7C5
:1012D000B1466646002E02D05B42060076E7060065
:1012E00074E72000290005F0C7FC0C0000904B4675
:1012F000002B41DD4D460EE04B46DA002F4B9B188C
:101300001A685B680098210005F0FDFB0C00009056
:101310006D100136F6B2002D64D0EB07F8D5B1465A
:10132000274B1B78BFF35B8FDB07E5D4244810F015
:1013300073FD0028E0D023482349FFF703FE1F4B2D
:101340009A469862D96221482149FFF7FBFD53462E
:10135000186359631F482049FFF7F4FD534698630B
:10136000D9631E481E49FFF7EDFD534618645964C2
:10137000134810F06DFDBFE75D4202E06D100136CD
:10138000F6B2002D2ED0EB07F8D53000FFF7DCFDCC
:1013900002000B000098210005F0B5FB0C00009046
:1013A000ECE7C0460000F87F0000F07F999999199A
:1013B000999999999999010098999999B01400204F
:1013C00078200020176E05B5B5B89346F5F93FE9CA
:1013D000034F384D321D30F94877825A3CBF737F36
:1013E000DD4F15754346002B03D080231B069C461A
:1013F0006444009A2300BA60FB6008233B7453E600
:1014000030B597B00D00837B002B06D143685A1C82
:1014100042601B78437301238373437B002212E0F5
:101420000124002C2DD03E2A2BD800218173541C7E
:1014300006A98B5443685A1C42601B7843730123EE
:101440008373437BE2B22F2B01D9392BE8D95E2B72
:1014500001D97A2B0BD9402B01D95A2B09D92B2B27
:1014600009D02D2B09D02E2B09D00024D9E7012437
:10147000D7E70124D5E70124D3E70124D1E70124EC
:10148000CFE706AB002199541B78742B07D0662B4D
:1014900017D06E2B26D1042A22D001200DE02B7A02
:1014A0007F318B432B7205210B432B7201200021CE
:1014B00028606960042A02D0012017B030BD0020E6
:1014C000FBE72B7A7F218B432B7205210B432B7279
:1014D0000020002128606960052AEED00120ECE799
:1014E0000020EAE706A96846FFF7A4FD6B461B7CCF
:1014F000072B05D0082B1DD0062B0ED00220DCE7D1
:101500002B7A7F2293432B72072213432B72009B6B
:10151000019C2B606C600020CFE72B7A7F229343E5
:101520002B72062213432B72009B019C2B606C6074
:101530000020C2E72B7A7F2293432B7208221343A9
:101540002B72029B039C2B606C600020B5E70000AF
:1015500010B586B00C00837B002B06D143685A1C63
:1015600042601B78437301238373437B2F2B53D833
:101570009B005E4AD3589F4601231A1CDBB2002B06
:101580004CD102930393029B002B4CD0101C06B04D
:1015900010BD00238373DEE70023837343685A1C66
:1015A00042601B784373012282732A2B03D02F2BB6
:1015B00022D00223E1E700238373002111E0426877
:1015C000531C43601378437301238373437B002BC5
:1015D0000BD02F2B0BD02A3B5A425341D9B20022B9
:1015E0008273827B002AF1D1E9E70123C5E7002954
:1015F000F1D000238373AEE70023837343685A1C42
:1016000042601B78437301228273002B02D00A2BA5
:10161000F2D1A0E70123B0E70023AEE7344B0293F9
:1016200000230393AFE7039BDB07AFD4837B002B3F
:1016300006D143685A1C42601B78437301238373AD
:10164000437B5B2B14D07B2B20D0837B002B06D1DC
:1016500043685A1C42601B78437301238373437BA6
:10166000272B21D0222B1FD02100FFF7C9FE8EE7A8
:10167000237A7F2293432372402213432372002351
:1016800023606360210000F0A3F880E7237A7F22C3
:101690009343237220221343237200232360636049
:1016A000210000F0FDF972E701A9FFF7CBFAC3B200
:1016B000002B16D104930593049B002B00D066E702
:1016C000059BDB0700D562E70198FFF7C9F9237A8C
:1016D0007F2293432372042213432372206000204D
:1016E00055E7034B049300230593E5E71CBD011068
:1016F0000503001070B586B00400151C0368436034
:10170000C3688360037E7F2293430376002912D04F
:101710000E002000FFF75CFA0300EDB200953200E6
:10172000210002A8FFF755FA2100103102A8FFF7A7
:101730000FFF06B070BD014EEBE7C04628BB01109D
:1017400010B5FFF7D7FF10BD10B5184806F058F9CF
:10175000174B1968174832220830FFF7F1FF041CB5
:10176000154806F07DF9E4B2022C11D0032C16D0F6
:10177000002C06D0114806F043F9114B01221A70D3
:1017800002E0104806F03CF90A2006F0D3F810BD3C
:101790000D4806F035F90A4B01221A70F4E70B48A0
:1017A00006F02EF9064B01221A70EDE7DCBD0110A0
:1017B0005C2000201020002000BE01105CBE011043
:1017C000FEA500201CBE011038BE011048BE01104D
:1017D00030B587B004000D00037B002B02D105203B
:1017E00007B030BD837B002B06D143685A1C426092
:1017F0001B78437301238373637B5B2B01D002202F
:10180000EEE70023A373A37B002B06D163685A1C69
:1018100062601B7863730123A373637B2F2B00D952
:10182000A5E09B009B4AD3589F460123181CDBB2BE
:10183000002B00D09DE000930193009B002BCFD1A3
:10184000019BDB07CCD4A37B002B06D163685A1C19
:1018500062601B7863730123A373637B5D2B00D1EC
:101860008CE022685368103391688B4200D989E07C
:1018700010399160002900D184E06B68002B00D101
:1018800082E0CA1A12115A81696000234B8100223A
:101890000A72CB6000297AD0237B013B237320009E
:1018A000FFF756FE237B01332373C3B2002B70D1A5
:1018B00002930393029B002B00D091E7039BDB076D
:1018C00000D58DE7A37B002B06D163685A1C6260AC
:1018D0001B7863730123A373637B2F2B00D9CBE0A9
:1018E0009B006D4AD3589F460023A3738BE70023C8
:1018F000A37363685A1C62601B7863730122A2732E
:101900002A2B03D02F2B22D002238FE70023A3738F
:1019100000210AE0637B002B12D02F2B12D02A3B30
:101920005A425341D9B20022A273A27B002AF1D1BC
:101930006268531C6360137863730123A373E9E740
:10194000012373E70029EAD00023A3735BE7002398
:10195000A37363685A1C62601B7863730122A273CD
:10196000002B02D00A2BF2D14DE701235EE70023C2
:101970005CE74A4B0093002301935EE70023A373C7
:1019800000202DE7002185E7296069607DE70320BD
:1019900026E7424B0293002303938BE70123181C95
:1019A000DBB2002B6AD104930593049B002B00D07B
:1019B00016E7059BDB0700D512E7A37B002B06D1BA
:1019C00063685A1C62601B7863730123A373637B93
:1019D0005D2B58D0A37B002B06D163685A1C626034
:1019E0001B7863730123A373637B2C2B4FD00220DE
:1019F000F6E60023A37365E70023A37363685A1C0C
:101A000062601B7863730122A2732A2B03D02F2BF1
:101A100022D00223C3E70023A37300210AE0637BE3
:101A2000002B12D02F2B12D02A3B5A425341D9B24D
:101A30000022A273A27B002AF1D16268531C63606A
:101A4000137863730123A373E9E70123A7E7002950
:101A5000EAD00023A37335E70023A37363685A1CFD
:101A600062601B7863730122A273002B02D00A2BE1
:101A7000F2D127E7012392E7002390E7074B049375
:101A80000023059391E70023A3730020A8E6002319
:101A9000A373E6E674BE011034BF01100503001005
:101AA00070B58EB004000D00037B002B02D1052021
:101AB0000EB070BD837B002B06D143685A1C426078
:101AC0001B78437301238373637B7B2B01D002203C
:101AD000EEE70023A373A37B002B06D163685A1C97
:101AE00062601B7863730123A373637B2F2B00D980
:101AF000A8E09B00C24AD3589F460123181CDBB2C2
:101B0000002B00D0A0E002930393029B002BCFD1C7
:101B1000039BDB07CCD4A37B002B06D163685A1C44
:101B200062601B7863730123A373637B7D2B00D1F9
:101B30008FE02268536810339668B34200D98CE076
:101B4000103E9660002E00D187E06B68002B00D11C
:101B500085E0F21A12115A816E600023738100220F
:101B60003272F360002E7DD001A92000FFF7F4F857
:101B7000C3B2002B78D104930593049B002B97D11B
:101B8000059BDB0700D593E70198FEF769FF327AE2
:101B900080235B4213433372F060A37B002B06D19A
:101BA00063685A1C62601B7863730123A373637BB1
:101BB0002F2B00D9BEE09B00924AD3589F460023AA
:101BC000A37388E70023A37363685A1C62601B78C1
:101BD00063730122A2732A2B03D02F2B22D002235E
:101BE0008CE70023A37300210AE0637B002B12D053
:101BF0002F2B12D02A3B5A425341D9B20022A27352
:101C0000A27B002AF1D16268531C6360137863736E
:101C10000123A373E9E7012370E70029EAD0002339
:101C2000A37358E70023A37363685A1C62601B7890
:101C300063730122A273002B02D00A2BF2D14AE770
:101C400001235BE7002359E76F4B029300230393C3
:101C50005BE70023A37300202AE7002682E72E60BB
:101C60006E607AE7032023E7674B04930023059314
:101C700083E70123181CDBB2002B5DD10693079389
:101C8000069B002B00D013E7079BDB0700D50FE76F
:101C9000A37B002B06D163685A1C62601B786373B8
:101CA0000123A373637B3A2B4BD0022000E7002370
:101CB000A37372E70023A37363685A1C62601B78E6
:101CC00063730122A2732A2B03D02F2B22D002236D
:101CD000D0E70023A37300210AE0637B002B12D01E
:101CE0002F2B12D02A3B5A425341D9B20022A27361
:101CF000A27B002AF1D16268531C6360137863737E
:101D00000123A373E9E70123B4E70029EAD0002304
:101D1000A37342E70023A37363685A1C62601B78B5
:101D200063730122A273002B02D00A2BF2D134E795
:101D300001239FE700239DE7334B0693002307937E
:101D40009EE70023A373237B013B23733100200014
:101D5000FFF7FEFB237B01332373C3B2002B04D0B8
:101D6000294B08930023099302E000230893099369
:101D7000089B002B00D09BE6099BDB0700D597E66C
:101D8000A37B002B06D163685A1C62601B786373C7
:101D90000123A373637B2F2B79D89B001B4AD35855
:101DA0009F460123181CDBB2002B72D10A930B93C0
:101DB0000A9B002B00D07BE60B9BDB0700D577E668
:101DC000A37B002B06D163685A1C62601B78637387
:101DD0000123A373637B7D2B60D0A37B002B06D1F3
:101DE00063685A1C62601B7863730123A373637B6F
:101DF0002C2B57D002205BE60023A373C0E7C0461C
:101E0000F4BF0110B4C001100503001074C101102B
:101E10000023A37363685A1C62601B7863730122FA
:101E2000A2732A2B03D02F2B21D00223BAE7002143
:101E3000A1730AE0637B002B12D02F2B12D02A3B18
:101E40005A425341D9B20022A273A27B002AF1D197
:101E500063685A1C62601B7863730123A373E9E70C
:101E600001239FE70029EAD00023A37388E700231A
:101E7000A37363685A1C62601B7863730122A273A8
:101E8000002B02D00A2BF2D17AE701238AE7002344
:101E900088E73B4B0A9300230B9389E70023A37346
:101EA000002005E60023A373A37B002B06D1636803
:101EB0005A1C62601B7863730123A373637B2F2B0F
:101EC0004FD89B002F4AD3589F460123181CDBB2E2
:101ED000002B48D02A4B0C9300230D9346E000239F
:101EE000A373E1E70023A37363685A1C62601B7845
:101EF00063730122A2732A2B03D02F2B21D002233C
:101F0000E4E70022A2730AE0637B002B12D02F2BA0
:101F100012D02A3B5A425341DAB20023A373A37B67
:101F2000002BF1D16368591C61601B786373012336
:101F3000A373E9E70123C9E7002AEAD00023A373CA
:101F4000B2E70023A37363685A1C62601B78637353
:101F50000122A273002B02D00A2BF2D1A4E70123A5
:101F6000B4E70023B2E700230C930D930C9B002BE6
:101F700000D09DE50D9BDB0700D4DAE598E5C0466F
:101F80000503001034C2011000B587B00100684697
:101F9000FFF750F86B461B7C072B06D0082B0ED0A2
:101FA000062B07D0002007B000BD00980199FEF76E
:101FB000BFFFF8E700980199FEF7AEFFF3E702983C
:101FC0000399FEF785FFEEE7F0B5CE46474680B5AC
:101FD00097B08C4B1B78002B04D017B0C0BCB9460F
:101FE000B046F0BD884805F00BFD884B1A0008325A
:101FF0000492874D059520229B5C9B061FD52E00E1
:10200000824B9C690DE0280018F0B0FE4342584115
:10201000C0B2002814D10A22A35E002B0DD01B01F0
:10202000E418002C0CD0E168002E01D00029EAD180
:10203000491B4B425941C8B2EBE7002400E00024A1
:102040000E94724B08330F93002C02D0237A5B0658
:102050000BD502946D4B08330393002C07D02268F4
:102060006A4B0833009301929DE00024F1E70023BE
:10207000019398E00024A5E0491B4B425941C8B2A6
:10208000002815D10A22A35E002B10D01B01E418F2
:10209000002C0DD0E1684346002BEDD00029EBD099
:1020A000280018F063FE43425841C0B2E8E700241C
:1020B00012941397002C06D0227A7F231340033BFF
:1020C000012B0CD82468534B0C93534F0D975A682F
:1020D00091461D68002D20D0B8462D680DE00024E3
:1020E000F1E7C91B4B425941C8B2002815D10A2259
:1020F000AB5E002B10D01B01ED18002D0DD0E96850
:102100004346002BEDD00029EBD0380018F02EFE0E
:1021100043425841C0B2E8E7002510954B46119361
:10212000002D2CD02A7A7F231340072B1AD00FD8EA
:10213000042B09D9053BDBB2012B1ED8286869683E
:10214000FEF7EAFE05001BE0032B11D2002517E085
:10215000082B05D128686968FEF7BAFE05000FE074
:1021600000250DE028686968FEF7E2FE050007E03B
:102170002868FFF709FF050002E0002500E00025C0
:102180002649200018F0F2FD00282BD02449200019
:1021900018F0ECFD00282CD00A22B35E002B2FD0C3
:1021A0001B01F618019600230793019E002E00D113
:1021B00013E7009F08960997341E03D0337A9B06D5
:1021C00000D457E714AB14941597124A110021CB91
:1021D00021C10A92134D0B95002C00D168E7A84647
:1021E000246855E7104B1D602900104805F038FCA5
:1021F000D2E70F4B1D6029000E4805F031FCCBE7FC
:102200000026CFE7FEA50020F4C201101020002018
:102210000CC30110809F002014C3011074BC011076
:1022200090BC011064BC0110F814002020C3011000
:10223000FC14002048C3011030B587B05A4B5B4AEC
:102240001A605B4B5B4A1A605B4B5C4A1A60FEF794
:102250005BF805F011FC5A4802F0CEF9594805F038
:10226000FFFBFEF72FFB052500243AE0AC423ED1F0
:1022700002AD0095544B19685A688A1800236846C5
:10228000FEF7B2FC6846FEF7A3F90098A84203D017
:10229000029B591C05F00EFAFFF756FAFFF794FE61
:1022A000FEF732F9FEF70CFC484B1B78002B22D0CE
:1022B000FEF7F0F9FEF748FCFEF7B8FB00F0F4F982
:1022C00025000124FEF760FB0BF0F4FE404B1B7869
:1022D000002B06D03F4805F093FBFEF735F90028A8
:1022E0005DDC052CEED8A3003B4AD3589F463B4803
:1022F00005F086FBBCE7FEF7D9F9DBE7AC4206D177
:10230000374B1B78002B06D025000224DAE735482E
:1023100005F076FBF4E7344805F072FB334B1868A0
:1023200000F0E0FA324805F06BFB324B186800F021
:10233000D9FA2B4B01221A7025000224C2E7AC42C5
:1023400001D12500BEE72C4805F05AFB2500B9E76E
:10235000AC4201D12500B5E7284805F051FB250026
:10236000B0E7AC4201D12500ACE7254805F048FBB9
:102370002500A7E7AC4204D1224805F041FB4423E5
:1023800007E0214805F03CFBF6E7204B002199547B
:1023900013005A1E002BF8DC2500022492E71C488B
:1023A00005F02EFB9DE7C046902000200A0A0A0A8D
:1023B00098200020FFFFFF009C2000200A0A0A014D
:1023C000B80B000070C301105C20002009A600209B
:1023D00004A6002084C40110D0C4011094C30110CD
:1023E0000DA60020B0C30110CCC301102422002090
:1023F000E8C30110189E002004C401101CC4011081
:1024000038C401106CC4011050C40110D09C0020CD
:10241000A8C4011010B502490120FDF797FF10BDB7
:10242000FFFF000040787047002303704170704741
:1024300010B5408806F0A2FC10BD10B504000800DD
:1024400006F09CFC608010BD10B50400080007F089
:1024500051F820000CF0D6F920000CF0F1F9034BF4
:102460001868002202490CF0DFF910BD942000200A
:1024700065250010F0B583B006000F0015001C00A4
:1024800000230193042101A8FFF7CEFFA1B201A808
:10249000FFF7D3FFC12252000421362007F070FD60
:1024A000041E11D0042201A9406805F0F5F8ABB272
:1024B0003A00210030000CF00FF90500200007F071
:1024C00013FD280003B0F0BD01256D42F9E70000BF
:1024D000F0B5D6464F464646C0B580460F009146F9
:1024E0008A20800007F00AF9041E2FD0022303601F
:1024F00083239B003A68C25004334A46C250852663
:10250000B600002585510833C550020012494046E7
:102510000CF08AF9114B1D60EFF3108A72B680211E
:10252000F8256D030902280019F08AFA8AF3108849
:102530000B4B1D60A3594A4639004046FFF79AFFEE
:102540000020E0BCBA46B146A846F0BD01004046B6
:10255000FFF77AFFF4E7C046AD2500108820002081
:102560008C200020F8B516001D0006AC27880CF062
:1025700089F9041E10D000220B490BF04FFF0028F0
:102580000AD17068FFF74EFF022806D020000CF039
:1025900057F9300007F0A8FCF8BD3A0029002000E8
:1025A000FFF796FFF5E7C04664FF0110F0B5CE4691
:1025B00000B5384CA54405000E001400019388AB0B
:1025C0001F885389128993422DD1042B08D9606842
:1025D000FFF72EFF85239B00EB580133984228D04C
:1025E0006068FFF725FF85239B00EB580133984275
:1025F00047D085239B00EB583A0001993000FFF744
:1026000039FF628981239B009A423ED22900300023
:10261000FFF71AFF200007F067FC1F4B01221A701A
:102620001E4805F0EDF982239B009D4480BCB9460D
:10263000F0BD6289043A92B2042302A9200007F097
:102640007DFE6389164A11688C466344043B13601F
:10265000EFF3108972B68022124B1868920002A91B
:1026600019F0BEF989F3108885229200AB58013326
:10267000AB506389043B0432A9588C466344AB5089
:10268000B7E785229200AB50B3E7200007F02CFC9F
:10269000C9E7C046F8FDFFFF04A60020E8C401100A
:1026A000882000208C20002010B50CF0EBF8094B9E
:1026B0001860002805D0452207490BF0AFFE00281E
:1026C00000D010BD034B1868002204490CF0ACF890
:1026D000F7E7C0469420002064FF01106525001034
:1026E000014B03607047C046A8C5011070B50400D7
:1026F0000D000100034805F0B3F9A400024BE550BA
:1027000070BDC0466CC50110B020002010B5034B51
:10271000186803681B68984710BDC046B0200020A9
:1027200010B5034B586803681B68984710BDC04636
:10273000B020002010B5406800F014F810BD000073
:1027400070B504000D001600FFF7CAFF044B0833F4
:102750002360666021002800FFF7C8FF200070BDDD
:10276000ACC5011010B5C06800F0C9F810BD00007C
:10277000F0B5C64600B5060001793D4805F070F990
:10278000B1683C4803F054FF0400012501E06408EF
:102790006D0080235B029C42F9D280235B009D4246
:1027A00062D8671E3B002A00B168334805F058F92B
:1027B0002900304803F03CFF210003F039FF04F00A
:1027C0000DFE04F06DFE02000B002C4805F048F9E8
:1027D00033799846280004F001FE051C04F058FEE9
:1027E000C4B2200004F000FE011C281C04F0CDFD42
:1027F0008321C90504F0E9FD04F04AFEC0B22401BA
:10280000044343469A00424492001D4B9C46624456
:10281000546033793F043F0C9A00D218920062440E
:1028200017613379012211009940164B19603179F3
:102830008B005B189B00634419688A43802149011F
:102840000B431A601049042000F0B8FF0021042057
:1028500001F0B4F80121042000F0A0FF0B4805F0BE
:10286000CFF880BCB846F0BD094805F0C9F898E734
:10287000B8C5011040597307F8C501102CC60110E6
:1028800000000540A8200540D50400104CC60110EA
:10289000E0C5011070B5040001718260C3600820BA
:1028A00004F000FF050021792200FFF749FF2560B1
:1028B0002000FFF75DFF200070BD000010B5040090
:1028C000017182600023036143618361C36103621C
:1028D000436283621100024805F0C2F8200010BD77
:1028E0005CC6011070B50400102004F0DBFE05008A
:1028F00021792300A268FFF7CDFF256070BD10B5D8
:1029000004000369836205E0186800F02BF9A36AEC
:102910000433A362A36A62699342F5D1237B002B3F
:102920000CD0E369A362A36A226A934206D01868B6
:1029300000F02AF9A36A0433A362F4E710BD000093
:10294000F0B5DE4657464E464546E0B583B0050035
:102950008846160001230093436802689C1AA4105D
:10296000314A0121A24245D001948C4245D301AAAB
:102970001268A4182A689B1A9B109C423FD380239C
:102980009B059C423DD22B6899466B689A4643460C
:102990004A469B1A9B46002C37D080239B059C42BD
:1029A00031D2A00004F07EFE07005B463268FA5088
:1029B00043464A469E1A002E29DCBE190436534669
:1029C00042469B1A9A46002B27DC5644AB684A467F
:1029D000991A002A02D0484604F06CFE2F606E60FF
:1029E000A4003C19AC6003B0F0BCBB46B246A9469B
:1029F000A046F0BD0D480FF037FB6A46B8E70A4C19
:102A0000C1E7094CBFE70FF007FB0027CDE7320015
:102A10004946380017F0FAFECFE71A004146300069
:102A200017F0F4FED1E7C046FFFFFF1F70C601108C
:102A300010B582B0040001911C304168836899424E
:102A400008D0019B0B604368043343600123237368
:102A500002B010BD01AAFFF773FFF7E700B583B01E
:102A60000191103041688368994206D0019B0B6048
:102A700043680433436003B000BD01AAFFF760FF61
:102A8000F9E7000070B504000B00150002000832E1
:102A9000026009685A688A180023FEF7A5F82576AF
:102AA000194804F0ADFF23681A78472A20D1DA7854
:102AB000303A92B262839B78303B9BB2002B04D0B9
:102AC00099005B185B00D3186383618BA1830F4867
:102AD00004F0C6FFA08B00F051FD237E002B0BD02D
:102AE000012B0FD1A28B9340D0221206536209E032
:102AF000074804F085FF05E0A28B01239340D02214
:102B000012069362200070BD8CC601109CC6011095
:102B1000ACC60110014B083303607047E8C60110D2
:102B20007047704770477047704710B50400FFF753
:102B3000F1FF1421200004F0BDFD200010BD0000B5
:102B400010B50400054B0833036000230361013313
:102B5000C360034804F054FF200010BDE8C6011014
:102B6000D0C6011010B50400036901330361C268C7
:102B7000934204DB03681B699847002323612368A1
:102B80009B682000984710BD10B50368DB68984724
:102B900010BD8369027D002A06D09A8B01239340E1
:102BA000D0221206536170479A8B01239340D022A2
:102BB00012069361F7E7704710B50400034B083322
:102BC0000360FFF7A7FF200010BDC0460CC701102F
:102BD00010B50400054B08330360FFF79BFF1C2171
:102BE000200004F067FD200010BDC0460CC7011096
:102BF00070B586B004000D001600FFF7A1FF104B62
:102C000008332360267502AE009629686A688A1820
:102C100000236846FDF7E8FF202004F043FD05008F
:102C200001226946FFF72EFFA5610098B04203D04C
:102C3000029B591C04F03EFD200006B070BDC0464A
:102C40000CC70110C3690133C36182695208934202
:102C50000FD3026A037D01214B40DBB20375002BC9
:102C600008D0928B01239340D02212065361002397
:102C7000C3617047928B01239340D0221206936167
:102C8000F5E7704710B50400034B08330360FFF706
:102C900041FF200010BDC0465CC7011010B5040004
:102CA000054B08330360FFF735FF2421200004F0B3
:102CB00001FD200010BDC0465CC70110F0B587B013
:102CC00004000D0016001F00FFF73AFF1B4B0833EE
:102CD00023603900300003F0ABFCA0610023E36106
:102CE000237502AE009629686A688A186846FDF75F
:102CF0007BFF202004F0D6FC050001226946FFF787
:102D0000C1FE25620098B04203D0029B591C04F01A
:102D1000D1FC236A227D002A08D09A8B012393409C
:102D2000D02212065361200007B0F0BD9A8B012318
:102D30009340D02212069361F5E7C0465CC70110AC
:102D400030B587B00024002C3AD11E4A63001D190B
:102D5000AD0055191B199B009958AB686A681A4851
:102D600004F07EFE6D6802AB0093002D26D0280093
:102D700018F040F82A18002329006846FDF772FE73
:102D8000242004F08FFC050063001B199B000D4AF2
:102D9000D3189B680D4A12686946FFF78FFF0098A9
:102DA00002AB984203D0029B591C04F083FC084BF1
:102DB00018682900FFF752FE0134C4E70122DAE760
:102DC00007B030BD0015002030C70110FC140020F2
:102DD000189E002070B504000D0000220A4B03F07D
:102DE000E3FE00280CD0094A094B2000290003F01B
:102DF000D3FE002806D02000290003F00DFF00E0DC
:102E0000002070BD0020FCE70000E0C10000C0FF12
:102E1000FFFFDF410123002904D104D180221206E3
:102E2000904200D30023D8B2704710B50400FFF7DA
:102E3000F1FF002801D0200010BD0020FCE7012395
:102E4000002904D104D180221206904200D9002327
:102E5000D8B2704710B50400FFF7F1FF002801D089
:102E6000604210BD0020FCE700B587B00100684655
:102E7000FEF7E0F86B461B7C072B06D0082B0ED024
:102E8000062B07D0002007B000BD00980199FFF77E
:102E9000E1FFF8E700980199FFF7C7FFF3E7029811
:102EA0000399FFF797FFEEE7F0B5C64600B592B07D
:102EB000764B0093764D01955F681C68002C1DD001
:102EC0002E0024680BE0491B4B425941C8B2002830
:102ED00014D10A22A35E002B0FD01B01E418002C92
:102EE0000CD0E168002EEED00029ECD0280017F0BD
:102EF0003DFF43425841C0B2E9E7002410941197C6
:102F0000002C06D0227A7F231340033B012B0FD8DD
:102F1000246821005F4804F0A3FD5C4B02935E4DE2
:102F200003955F681C68002C1FD02E0024680DE0FC
:102F30000024EEE7491B4B425941C8B2002814D186
:102F40000A22A35E002B0FD01B01E418002C0CD02A
:102F5000E168002EEED00029ECD0280017F006FF23
:102F600043425841C0B2E9E700240E940F97002C69
:102F700006D0227A7F231340033B012B0CD8246810
:102F8000424B0493454E05965A6890461D68002DA5
:102F90001FD037002D680FE00024F1E7300017F054
:102FA000E5FE43425841C0B2002812D10A22AB5E6E
:102FB000002B0DD01B01ED18002D0AD0E968002F61
:102FC00001D00029EAD1891B4B425941C8B2EBE735
:102FD00000250C9543460D93002D2CD02A7A7F2393
:102FE0001340072B1AD00FD8042B09D9053BDBB2AD
:102FF000012B1ED828686968FFF717FF05001BE042
:10300000032B11D2002517E0082B05D12868696829
:10301000FFF7E0FE05000FE000250DE02868696875
:10302000FFF718FF050007E02868FFF71DFF050000
:1030300002E0002500E0002508AB0693002C23D019
:10304000200017F0D7FE22180023210006A8FDF764
:1030500009FD242004F026FB0400114B1A682B0004
:1030600006A9FFF72BFE069808AB984203D0089BF1
:10307000591C04F01FFB0B4B18682100FFF7EEFCF6
:1030800012B080BCB846F0BD0122DDE7FC93002001
:1030900048C7011050C7011058C7011014C30110D0
:1030A000FC140020189E00207047000010B504009A
:1030B0000E4B0833036002003432406B23003C3374
:1030C000984203D09168013104F0F4FA22001C32D6
:1030D000E06923002433984203D09168013104F061
:1030E000E9FA2000FFF716FD200010BDA8C7011067
:1030F00010B50400104B0833036002003432406BFB
:1031000023003C33984203D09168013104F0D2FA95
:1031100022001C32E06923002433984203D09168D6
:10312000013104F0C7FA2000FFF7F4FC7C212000F5
:1031300004F0C0FA200010BDA8C7011070B504004B
:10314000036E1B78826913405A1E9341DBB24C22F6
:103150008354002B34D0436D18682065A56E04F0AD
:1031600043F9291C04F031F904F060F9E066636E5C
:10317000C218626653400121256FA9400B402A41C5
:10318000A26500281DDD4D220121A154002B17D07E
:10319000A36F4D22A25C002A17D09A8B0123934083
:1031A000D02212065361636F9A8B0123190091405C
:1031B000D02212065161E26D616E11604E22A3545D
:1031C00070BD4D220021A154E0E79A8B012393406A
:1031D000D02212069361E6E710B5FFF7AFFF10BDEE
:1031E000436F9A8B01239340D022120693614E23A2
:1031F0000022C254704710B5FFF7F2FF10BD000067
:10320000F0B5D6464F464646C0B58CB004008A4657
:1032100017001D00149EFFF793FC3D4B08332360FD
:1032200067611C239946A14423002433E361296884
:103230006A688A1800234846FDF7D6FC2700343711
:1032400023003C336363316872688A1800233800B6
:10325000FDF7CAFC169B6365179BE365189B236605
:10326000159B236702AE00964B465A68E3699C465D
:103270006244002361466846FDF7B6FC202004F056
:1032800011FA050001226946FFF7FCFB656700980B
:10329000B04203D0029B591C04F00CFA08AE06960B
:1032A0007A68636B9C4662440023614606A8FDF77A
:1032B0009BFC202004F0F6F90500012206A9FFF787
:1032C000E1FBA5670698B04203D0089B591C04F0A7
:1032D000F1F90027676601252800236F984004F064
:1032E00083F88046504604F07FF8011C404604F005
:1032F00056F8A06663699D40A5614C23E7540133ED
:10330000E75420000CB0E0BCBA46B146A846F0BD78
:10331000A8C7011070B592B000240DE001222BE087
:1033200001223AE0364E29003068FFF797FB3068FB
:103330002900FFF77DFB0134032C5FD821003148C1
:1033400004F08EFBA30030495A1804322F481A505B
:103350002F4A9A1804322F481A5024312E4B1960E4
:1033600022012E4B9B189D6808AB0693002DD5D0EB
:10337000280017F03FFD2A180023290006A8FDF7B2
:1033800071FB2201254B9B18DD680EAB0C93002DC1
:10339000C6D0280017F02EFD2A180CAE00232900F5
:1033A0003000FDF75FFB7C2004F07CF90500220172
:1033B0001A4B9B185A68A3001449595815481B58B2
:1033C0001548006804900393029116230193009618
:1033D00006AB13492800FFF713FF0C980EAB984279
:1033E00003D00E9B591C04F065F9069808AB98426F
:1033F00098D0089B591C04F05DF993E712B070BD9A
:103400002422002080C70110D09C0020449400207A
:10341000889F00202C940020289400200C15002068
:10342000409C0000F0B583B004000D00160000F0D1
:10343000B1F8002801D003B0F0BD154F00973B0054
:1034400001220121053001F04DFD00962B002200E4
:103450000121104801F04EFE31006943200003F0C5
:10346000E7F804000C4B009300220221042001F035
:1034700039FD0094230000220121052001F032FDD6
:1034800000973B0002220021062001F02BFDD2E72D
:10349000006CDC0200800240001BB700F0B5DE4685
:1034A00057464E464546E0B583B080468B4600926F
:1034B0000193042001F018FEFA21890003F0B8F806
:1034C0008246A0235B0099462CE0013C002C20D0D2
:1034D00025007D432900300003F0AAF84045F4D1CF
:1034E0002900300003F0A4F80029EED173019B1BE2
:1034F0009B009E19F6005B461E60009B1F60019BAF
:103500001C60012003B0F0BCBB46B246A946A046F1
:10351000F0BD013F002F01D03C00D7E701235B4203
:103520009C46E1444B460F2B09D956464B465E4319
:10353000044BF218044B9A42F0D80727EAE7002020
:10354000E0E7C046508EF4FF50F80C0010B5830041
:10355000084A944663441C6840226240C0241440D8
:103560008022520113431C60C000034B9C46604400
:10357000416010BD04C001400040014010B501236E
:103580008340D0221206936293610521FFF7DEFF8C
:1035900010BD0000034B1B6802201840431E9841D9
:1035A000C0B2704700C00640EFF3108072B6034B04
:1035B0001B68002BFBD0BFF35F8F70472C0100D03E
:1035C000BFF35F8F024B00221A6080F310887047B0
:1035D0002C0100D0F8B506000C001500FFF7E4FF41
:1035E000E308F718F15C07222240012393400B42C5
:1035F00005D1DBB20B433B70FFF7E2FFF8BD2100C2
:10360000280001F0E9FEF0B583B006000191140036
:103610001F00FFF7C9FF00E00134BC420CD8E308EB
:10362000F518F35C0721214001228A401A42F3D1A8
:10363000D2B21A432A7001E001246442FFF7C0FFAE
:10364000002C02DB200003B0F0BD019B002BF9D061
:10365000089801F0C1FE0000002307E0054A9A180F
:103660009200BFF35F8F0021116001331F2BF5D94A
:103670007047C04640000034054A1078431CDBB256
:103680001370172B02D9130010221A707047C0460E
:103690004C15002000B583B00100044B00931F239C
:1036A00018220348FFF7AFFF03B000BDCCC70110DD
:1036B00030230020074B9B68103080001950BFF367
:1036C0005F8FBFF35F8F044B0021196082F3108876
:1036D0007047C04600ED00E0240100D010B5091A83
:1036E000081F0A4B9C466144094A914208D8C30707
:1036F00006D440104005400D064B184380B210BD63
:10370000054B064AA321064801F0CCFDFC0700004A
:10371000FE0F000000E0FFFFE8C7011058CA0110CB
:1037200018C8011010B5091A04394C08090B08D142
:103730004905490D064A11430180064B2343438046
:1037400010BD054B054AAB21054801F0ABFDC04655
:1037500000F0FFFF00F8FFFF74C801102CCA011031
:1037600018C8011001238340034A10681840431E03
:103770009841C0B27047C04600E100E0002904D083
:10378000034B1860034B18607047034B1860FBE74E
:1037900080E200E000E100E080E100E010B50123FC
:1037A00083401800FFF7EAFF10BD0000024B9B6842
:1037B00010308000C058704700ED00E070B5040084
:1037C0000D00EFF3108672B60C4B1B68002BFBD07C
:1037D000BFF35F8F2000FFF7E9FF094B984201D04C
:1037E000A84205D1320029002000FFF763FF70BD19
:1037F000044B054A8621054801F054FD240100D000
:10380000CD01001084C8011074CA011018C801103D
:10381000F0B5CE46474680B583B006000D00EFF305
:10382000108872B6564B1B68002BFBD0BFF35F8F1E
:10383000544B9A6834001034A300D758524B9F421F
:1038400007D0AF4200D198E00197504BFB1A2F2BC5
:1038500009D9424639003000FFF72CFF03B0C0BC45
:10386000B946B046F0BD3000FFF77CFF814600212D
:103870003000FFF793FFBFF35F8FEFF3058100295F
:1038800001D08C4211D10123019C9C430022A368EA
:10389000AB4212D00622A256002A0DDB53009B1821
:1038A0009B002200394CE418F1E73621384B394AA5
:1038B000FF31394801F0F6FC2200AB4256D1062513
:1038C0006557002D38DB6B005B199A002F4B9B1856
:1038D0009A68A260DA79E27106229A56A2719B79FF
:1038E0005BB2002B0FDA2D48A0806B005B199B00A8
:1038F000264AD3182A4A1178997115704946300022
:10390000FFF74CFFA5E7201D6B005B199B001F4ACA
:103910009B181A1D9B88D90A1C2907D15B055B15CA
:10392000023359005118FFF7D9FEDDE71D4B1E4A3F
:10393000B121194801F0B6FC002912D1002A0ED09D
:10394000FF239371194B9380154A1378A371184B79
:103950000E49641A644163431B0D1370CEE70A4F8E
:10396000F2E7201D1349FFF7DDFEC7E76A21124B7E
:10397000084AFF31084801F095FC034F69E7C0464B
:10398000240100D000ED00E0CD0100105015002012
:1039900098C9011044CA011018C8011001BD0000E7
:1039A00002A6002080C9011064CA011001BDFFFFFA
:1039B000AAAA00008A150020CCC9011010B5032363
:1039C00004009C43064A9446644422681840C000A0
:1039D000FC3383409A43130081400B43236010BDA6
:1039E00000E400E070B5012101432E4BCB1A2F2BD0
:1039F00028D8EFF30583002B2BD0EFF3108C72B691
:103A0000294A1268002AFBD0BFF35F8F274A0400BF
:103A1000244D641B64416243120D54B2244A9268DF
:103A20009B00D2588A421BD00022032A32D853006E
:103A30009B189B001B49CB189B795BB2A3421FD0FC
:103A40000132F2E7C7211B4B1B4A49001B4801F01A
:103A500029FC92211A4B184AFF31184801F022FC28
:103A6000134A92681749D150174B1A7882711C700B
:103A7000BFF35F8F0C4B00221A608CF3108870BD6F
:103A80000D005300991889006918FF268E710F4A9E
:103A90008A80E9E7D1210E4B074A4900074801F027
:103AA00001FCC04650150020240100D0AAAA000045
:103AB00000ED00E0D4C9011010CA011018C80110AF
:103AC000FCC90110CD01001002A6002001BDFFFFBE
:103AD00008CA01100022044B02E0044902C301326B
:103AE000072AFAD97047C04600E400E08080808051
:103AF000024B9C46614489000160704740000034DD
:103B000010B50400FFF7B8FD01002000FFF7F0FF3B
:103B1000FF232371BFF35F8F10BD10B50400FFF7C3
:103B2000ABFD01002000FFF7E3FFFF23237100231B
:103B30006371BFF35F8F10BD034B9C4661448900E6
:103B40000160BFF35F8F70474000003410B5040080
:103B50000120FFF79FFD01002000FFF7EDFF10BDE2
:103B600070B505000C00080000F0FAFE09492000BD
:103B700000F03AFEFFF780FD074B9C466044800052
:103B800068602C75D0231B061B786B75A400034B53
:103B9000E55070BDA53E0010400000341894002090
:103BA0000A4B1A68EFF3108172B61368002BFCD031
:103BB000BFF35F8F054B1B68BFF35F8F00221A6056
:103BC00081F3108840BF002000217047209F002013
:103BD00010B5002922D003681B7B99421ED8174BD1
:103BE0009C466144090183689C4661440C684968AD
:103BF000002A19D003681B7B9A4215D883680F48A6
:103C00008446624412019A18106853680200012029
:103C10008B4201D80ED00020C0B210BD084B094A1B
:103C20003C21094801F03EFB054B064A3C21064871
:103C300001F038FBA242EFD8EDE7C046FFFFFF0FCF
:103C400044CC0110C4CE0110F0CB011010B50029F6
:103C50001ED0037B99421BD84B005B18033B0468C2
:103C6000A4466344002919D0002A1DD0914221D0D6
:103C7000002A25D0047BA24222D804685000801874
:103C8000033820188170197800291FD11A7010BDCF
:103C9000104B114A6821114801F004FB104B114AE6
:103CA0006F310E4801F0FEFA0F4B0E4A70210B489F
:103CB00001F0F8FA0D4B0B4A7121084801F0F2FAB5
:103CC000044B054A6821054801F0ECFA41701A706E
:103CD000DDE7C04668CC011030CF011084CC011064
:103CE000ECCC01100CCF0110F8CC011004CD011068
:103CF00070B506000D001400002914D0002A14D05D
:103D0000806873689847002806D022002900300098
:103D1000FFF79CFF280007E02A0021003000FFF792
:103D200095FF200000E0100070BD0800FCE70000D7
:103D3000F0B583B00500009201930AAB1C780BAB81
:103D40001F78002C26D003685A7B944207D10123A8
:103D5000002B19D1002C3BD1200003B0F0BD002C6A
:103D60000CD01A7B944209D81A6863001B19033BD4
:103D7000D3189B78002BEBD00123E9E73E4B3F4A59
:103D800068213F4801F08EFA3E4B3F4A67213F4889
:103D900001F088FA03689C7B002CDBD012D01A7BE0
:103DA00094420FD862001219033A19688C46624493
:103DB00051789973002900D1D973002393705370FF
:103DC0001370C7E72C4B2D4A68212D4801F06AFA81
:103DD000002C3AD02B681B7B9C4236D82C4BE31826
:103DE0001B01AA6894466344009A1A60019A5A60BB
:103DF000089A9A60099ADA602E68002C2BD030D08D
:103E0000337B9C422DD863001B19033B32689446D8
:103E1000634400229A705A701A70717B220030003D
:103E2000FFF766FF7073844200D095E7287D009A03
:103E3000019B00F021FD061E01D0002F17D00C9B26
:103E4000002B00D188E71E7086E7124B124A3C21F6
:103E50000E4801F027FA114B114AA521084801F03C
:103E600021FA054B054A6821054801F01BFA28682C
:103E7000210000F039FFE2E768CC011030CF0110DB
:103E800084CC01101CCD01103CCF0110F0CB0110EF
:103E9000FFFFFF0F44CC0110C4CE0110ECCB01108A
:103EA00020CF0110F0B5DE4657464E464546E0B5F8
:103EB0008BB00990002308938200B54BD658370089
:103EC00052E0B44BB44A3F21B44801F0EBF9B44B93
:103ED000B44A3C21B44801F0E5F9002901D1002899
:103EE00069D10021404600F0F5FEA04219D12A68B0
:103EF0006B6806920793AB689846EB689A46434610
:103F0000002B14D0002C18D03B681B7B9C4214D88B
:103F1000631EFA68D35C08931B02184338610020C3
:103F200015E0A24BA24A8E219F4801F0BBF9A14B9C
:103F30009F4A92219C4801F0B5F9994B9E4A412134
:103F4000994801F0AFF900239A46984600207B6813
:103F5000BFF35F8F00221A6086F310884346002B60
:103F600032D1002800D10CE100F0FAFB02000B1E58
:103F7000A7DB00200021069007917868EFF31086F8
:103F800072B601680029FCD0BFF35F8F396888469C
:103F90004C7B002CD7D09AD0097B8C4297D887498C
:103FA00065182D01B9688C46654428686968801ACF
:103FB0009941002991DD2A686B68099800F05CFC42
:103FC00000239A469846C2E7089B1B022343994662
:103FD00051461800C04705000E007A68EFF3108BB9
:103FE00072B6136859424B41D9B2002BF9D1BFF3D5
:103FF0005F8F002E1EDB002E46DD3B69002B47D075
:104000004B456DD100F0ACFB02000B1E6EDB52196C
:104010007341002B70DB002B72DB00210491013116
:104020000391029451460191414600913800FFF7F7
:104030007FFE4CE03B69002BDDD04B4514D1069A46
:10404000079B521BB341002B14DB002B16DB002116
:10405000049101310391029451460191414600912E
:104060003800FFF765FE32E0554B514AA1214E481A
:1040700001F018F901225242524BE6E7454B464AFD
:104080003F21464801F00EF9002E01D1002DB4D198
:104090003B68002C50D05A7B944237D10121002933
:1040A0004AD1DA7B002A4DD19A7B002A03D1DA7BF0
:1040B000002A5AD19C73DC73002C5CD03B681B7BBC
:1040C0009C4258D8FA68013C135D01331355002314
:1040D0003B617A68BFF35F8F13608BF3108843E70F
:1040E000374B334AA421304801F0DCF8294B2A4AE7
:1040F0003F212A4801F0D6F801225242314B8AE78B
:10410000244B254A3F21254801F0CCF8002C0DD046
:104110001A7B94420AD862001219033A186884463E
:1041200062449278002ABAD00121B8E7264B274A88
:104130006821274801F0B6F8264B274AF621244883
:1041400001F0B0F8002A0AD0197B8A4207D8510042
:104150008A18033A19688C4662445470A4E71A4BD3
:104160001A4A68211A4801F09DF81C4B1A4AFB2193
:10417000174801F097F80A4B0F4A41210A4801F00D
:1041800091F80BB0F0BCBB46B246A946A046F0BDC4
:104190001894002000CB011090CE01101CCB011010
:1041A00044CC0110C4CE0110F0CB011044CD01105D
:1041B000A8CE01105CCD0110E8CE0110FFFFFF0F6B
:1041C00068CD0110FFFFFF7F68CC011030CF0110D8
:1041D00084CC0110A4CD0110FCCE0110C8CD01107B
:1041E00010B50C4B5B68002B04D00A210A48FFF77E
:1041F0007FFC10BD074C2300084A1021206800F006
:1042000079FC032000F0A0FA03212000FFF7A8FCAE
:10421000EBE7C04698150020209F0020D13B0010FE
:1042200010B5064B5B68002B01D0044810BD044B51
:10423000044A5E21044801F035F8C0469815002074
:10424000DCCD0110D0CE0110F0CB0110F0B5DE4670
:1042500057464E464546E0B58BB0804616001F00D7
:10426000149B9A46159B994616AB1B789B461F23B9
:1042700002AA9446634400221A702BE0002809D059
:1042800042461268127B904204D8421E4146C968D9
:104290008A5C41E0404B414A4121414801F002F82B
:1042A00007984CE0361BAF41002F07DB002F11DAD7
:1042B0003C4B3D4A3F213D4800F0F4FF0126764249
:1042C0003B4FF3E7374B384A3F21384800F0EAFFCD
:1042D000002F4FDB43465A68EFF3108472B6136821
:1042E00059424B41D9B20791002BF8D1BFF35F8FF0
:1042F0001F3302AA9446634404930023039302935A
:104300004B4601935346009332003B004046FFF773
:104310000FFD031EB2D1020041464968BFF35F8F13
:1043200000250D6084F31088002B29D01F2302A9DB
:104330008C4663441B78002BB2D112021043002B31
:1043400020D05B46002B1DD04946D04704000D000D
:1043500003000B431DD00029A4DB00F001FA060086
:104360000F1EAFDB36196F41002FB1DA01267642FE
:104370000F4FADE70B4B0C4A3F210C4800F092FF6A
:10438000012040420BB0F0BCBB46B246A946A04655
:10439000F0BD0798F6E7C04644CC0110E8CE011006
:1043A000F0CB011000CB011090CE01101CCB0110FE
:1043B000FFFFFF7FF8B504004268EFF3108572B687
:1043C000136858424341D8B2002BF9D1BFF35F8F35
:1043D000CBB22268567BB3421BD10120002848D0C3
:1043E000206988422BD0090AC9B2002B2ED0206840
:1043F000007B83422AD8581EE668305C88422BD066
:1044000000206368BFF35F8F00221A6085F3108875
:10441000F8BD002B0DD0167BB3420AD85E00F6180B
:10442000033E1768BC466644B678002ED6D00120FD
:10443000D4E7134B134A6821134800F033FF95214A
:10444000124B134A4900134800F02CFF124B134A39
:104450004121104800F026FF1900100000F044FC34
:104460000028CED132210E4B094AFF31094800F015
:1044700019FF23698B42C4D100232361C1E7C046E1
:1044800068CC011030CF011084CC011000CE011097
:1044900078CE0110F0CB011044CC0110E8CE011011
:1044A00024CE0110F0B587B006000F00EFF30583AE
:1044B000002B1FD106246442E517A4197D418D42CB
:1044C00002D803D1844201D900240025002D14DB39
:1044D0000494059500F044F902000B1E13DBA41AA6
:1044E0009D41002D17DC14D03000390000F044F954
:1044F00007B0F0BD234800F06FFF234B234A3F2154
:10450000234800F0CFFE204B204A3F21204800F0F6
:10451000C9FE002CE8D0FFF783FE0023029301932D
:104520001C4B0093049A059BFFF790FE002818DAB5
:10453000DAE7002300E00023002BD5D1164B1A68E0
:10454000EFF3108172B61368002BFCD0BFF35F8FBE
:10455000114B1B68BFF35F8F00221A6081F3108834
:1045600020BF0499059A0D4B5B6A9A42E3D80B4829
:10457000806A884203D29A42DBD00123DCE7012320
:10458000DAE7C04628CE011000CB011090CE011012
:104590001CCB0110A13B0010209F002000400540D3
:1045A00070B504000D0000F0DBF802000B1E0ADB02
:1045B000200029008018594100290ADB00290CDB62
:1045C000FFF770FF70BD084B084A3F21084800F014
:1045D00069FE012040420749F0E7034B034A3F21AF
:1045E000034800F05FFEC04600CB011090CE0110E2
:1045F0001CCB0110FFFFFF7F10B5FA2292000023B1
:10460000002102F0A5FEFFF7CBFF10BD70B584B00E
:1046100005000C00EFF30583002B1ED1FFF700FE11
:10462000002302930193224B00932A002300FFF7FB
:104630000DFE061E23DD20BFFFF7F2FD3100FFF760
:10464000B9FE1C4B5B6A9C422DD81A4A926AAA4258
:104650002CD29C4225D0012026E0164B5B6A994261
:1046600009D8144A926A824207D2994201D00120A5
:104670001AE0002018E0002016E0012014E00D4BA5
:104680005B6A9C4209D80B4A926AAA4207D29C42B2
:1046900001D0012008E0002006E0002004E0012015
:1046A00002E0002000E0002004B070BD0120FBE724
:1046B000A13B00100040054070B5EFF305801038B5
:1046C000EFF3108C72B61A4B1B68002BFBD0BFF3B4
:1046D0005F8F01221300834016494B6316490B601C
:1046E000164909780C00C440224214D0114A546A79
:1046F0008200134D5259944206D38200114C125934
:1047000099430E4B197007E00A4A031D9B00995804
:104710009950002200E00022BFF35F8F044B00217C
:1047200019608CF31088002A00D0904770BDC046F5
:10473000280100D0004005403C7005400EA6002036
:104740004C9F00202421002010B50100024A03489C
:10475000FEF740FF10BDC04660CF0110FCA5002051
:10476000044B5B6A034A906A1900536A9942F9D173
:104770007047C04600400540084B5B6A01E0074BAC
:104780005B6A8B42FBD301E0044B5B6A8B4203D133
:10479000024B9B6A8342F7D37047C04600400540F6
:1047A00070B504000D00FFF7DBFF02000B002000D6
:1047B0002900801859418B4202D804D1824202D983
:1047C00001204042C117002902DBFFF7D5FF70BD71
:1047D000024B034A3F21034800F064FD00CB011067
:1047E00024D001101CCB011070B504000D00EFF3B4
:1047F000108672B61B4B1B68002BFBD0BFF35F8F7C
:10480000002D1CD02000FEF7D1FF174B83420BD0A8
:1048100019002000FEF7D2FF01212000FEF7BEFFA5
:104820000123A340114A1360A400114BE550BFF3CC
:104830005F8F0C4B00221A6086F3108870BDA200B7
:104840000B4B0021D1500122A2400A490B7893431F
:104850000B7005492000FEF7DBFF00212000FEF76A
:104860009DFFE4E7280100D0B946001038600540FC
:10487000242100200EA60020F0B5DE4600B584B04D
:104880000400150001921E000293FFF769FF0395D3
:104890008E4202D84ED185424CD9EFF3108B72B6BE
:1048A000274B1B68002BFBD0BFF35F8F254A17787F
:1048B0000125A540EBB23B431370234B5D63221DE2
:1048C00092000199D150A2002049029850501B6AD1
:1048D0002B4212D11C4B1B6C2B4208D00020BFF383
:1048E0005F8F174B00221A608BF3108823E0184B60
:1048F000184AC521184800F0D5FCFFF731FF8E4259
:1049000014D802D1039B834210D80E4B1B78BB42B4
:104910000ED00D4B1D625D631F2004400123A34098
:104920000E4A1360074B1F701E38D8E70020D6E7E9
:104930000120D4E7012004B080BCBB46F0BDC046D6
:10494000280100D00EA60020004005404C9F00200A
:1049500084CF011008D00110A8CF011080E200E040
:10496000EFF3108C72B60B4B1B68002BFBD0BFF320
:104970005F8F01238340084A136208490A789A43EB
:104980000A70BFF35F8F034B00221A608CF310880C
:104990007047C046280100D0004005400EA6002008
:1049A00010B500291ED0037B99421BD84B005B1821
:1049B000033B0468A4466344002919D0002A1DD093
:1049C000914221D0002A25D0047BA24222D804683B
:1049D00050008018033820188170197800291FD1E1
:1049E0001A7010BD104B114A6821114800F05AFC92
:1049F000104B114A6F310E4800F054FC0F4B0E4A19
:104A000070210B4800F04EFC0D4B0B4A71210848F9
:104A100000F048FC044B054A6821054800F042FCC0
:104A200041701A70DDE7C04668CC011044D1011016
:104A300084CC0110ECCC011030D10110F8CC011065
:104A400004CD011070B506000D001400002914D02B
:104A5000002A14D0806873689847002806D0220086
:104A600029003000FFF79CFF280007E02A00210002
:104A70003000FFF795FF200000E0100070BD080037
:104A8000FCE7000010B50023437301338373037BFD
:104A9000C3730123027B9A4214D9002B0CD0027BF2
:104AA000934209D85A00D218033A01688C466244EE
:104AB0000133DBB25370EDE70B4B0C4A68210C4815
:104AC00000F0F0FB002A09D0924207D80168530099
:104AD0009A18033A8A180023537010BD024B034AF8
:104AE0006821034800F0DEFB68CC011044D10110BE
:104AF00084CC011010B5017342608360FFF7C2FFE0
:104B000010BD000070B50400081E00D170BD002962
:104B100034D0237B994231D84B005B18033B226889
:104B2000944663445A78002AF0D02DD0237B9A42D1
:104B30002AD853009B18033B21688C4663445D7858
:104B400000215970002825D0237B984222D84300A9
:104B50001B18033B21688C466344002159700100F7
:104B60002000FFF76FFF060029002000FFF7CAFFB3
:104B7000020031002000FFF765FFC7E7084B094A34
:104B80006821094800F08EFB054B064A682106485B
:104B900000F088FB024B034A6821034800F082FBC7
:104BA00068CC011044D1011084CC011070B505000F
:104BB0000C00160000292FD034D0037B994231D845
:104BC0004B005B18033B0268944663445A78002A02
:104BD0002ED19A78002A31D11978FFF793FF03007C
:104BE000002E0AD0EA7B002A2ED1AA7B002A03D10C
:104BF000EA7B002A3BD1AC73EC73002B3DD1002C37
:104C00004FD02B7B9C424CD82B6861000C19033C85
:104C10001C190023637070BD254B264A3821264895
:104C200000F040FB254B264A6821264800F03AFB5D
:104C3000254B204A3A21204800F034FB234B1D4AE3
:104C40003B211D4800F02EFB002A0AD0297B8A4216
:104C500007D851008A18033A29688C466244547078
:104C6000C3E7164B164A6821164800F01BFB184B89
:104C7000104A4221104800F015FB002B0BD02A7B74
:104C8000934208D843001B18033B2A6894466344A8
:104C900000229A70B3E7094B094A6821094800F0DD
:104CA00001FB064B064A6821064800F0FBFAC046A5
:104CB0003CD001101CD1011044D0011068CC01106F
:104CC00044D1011084CC011098D00110C0D0011043
:104CD000C8CD011070B504000A00457B2900FFF71C
:104CE00065FF6073280070BD70B50400002967D0AF
:104CF000437B8B420ED0002911D0037B99420ED802
:104D00004B005B18033B0268D0188378002B0CD152
:104D1000002056E00121FFF7DDFF012051E0294B83
:104D2000294A6821294800F0BDFA002B20D0227BB7
:104D300093421DD85A00D318033B2268D218256825
:104D4000EB5C8B421AD0002B1BD0227B934218D8ED
:104D50005A00D318033B2268D21853788B4216D0DE
:104D6000002BF0D11A4B1B4A6B211B4800F09AFA1A
:104D7000144B154A6821154800F094FA43781370D3
:104D800007E0104B104A6821104800F08BFA437876
:104D9000537000238370437001222000FFF706FF49
:104DA0000200617B814205D02000FFF74BFE60735B
:104DB000012006E0094B074A7121074800F072FA0A
:104DC000002070BD68CC011044D1011084CC0110CA
:104DD00008CA011004D1011044D00110E4D0011020
:104DE00070B504000D00062000F07EF9C000290017
:104DF00001F01EFCC60908D00E4B9E4217D87F2337
:104E0000184001303500460800E001256562A662C1
:104E10002C3480208001044300232360062000F00E
:104E200063F98000A901891901F002FC70BD002618
:104E3000014DEBE7FEFF0000FFFF0000002909D055
:104E40000A22064B9C466044434258414000044BB2
:104E5000C252704780225200F3E7C0460080FCBF78
:104E6000D4A5002070B505000C00062000F03CF928
:104E7000002829D0164B9D4227D08022D203154B03
:104E80001A60154B1A60154B9B6811009943FAD1B3
:104E900000212800FFF7D2FF21002800FFF7A0FF24
:104EA0002C002C34E96A60224A406E211140802295
:104EB0005201224311600A4B2B6380239B01234341
:104EC00010221A600323AB6470BD80221204D6E75F
:104ED0000080034000E0004000F0004000C00040BF
:104EE00001030000F8B5DE4657464E464546E0B59C
:104EF00005000F0092460A9A93424ED31A0E91462D
:104F00001E020A9A00233000494601F0CFFB80467A
:104F10006C006419A4002F4B9C4664446368834270
:104F200000D260602B1FDBB29B46012B3BD9C02314
:104F30009B012343802212011A60AB00264A995834
:104F4000002905D0506901F073FB01300138FDD113
:104F500053465A0123685A40E0231A4080235B01DC
:104F600023431A605A46012A28D980239B012343F0
:104F7000802212011A6043466360424600233000DB
:104F8000494601F093FBAD00134B58510120F0BC92
:104F9000BB46B246A946A046F8BD104B104A2D218B
:104FA000104800F07FF9012FC1D1C0239B0123439A
:104FB00003221A60A368DB07FCD5C9E721687940A2
:104FC00003220A401A60A2680123BB401342FAD0B0
:104FD000CBE7C046008000403423002050D10110B0
:104FE000C4D1011064D1011030B583B00C2000F0A1
:104FF00017F9FEF7CFFA00280DD0002304E099003E
:105000002D4A2E4888500133092BF8D92A4B2C4AB7
:105010005A6203B030BD2B4B00229A6700F008F9AA
:10502000294B01221A60274B5B6C012BFBD1274BCC
:1050300003221A60234B9B6B012BFBD1013300939E
:105040000433234A0121234800F054F80523009338
:10505000214A0121214800F04DF8214B0093002204
:1050600002210420FFF73EFF1E4D00952B00002279
:1050700001210520FFF736FF104C00942300002289
:1050800000210720FFF72EFF0094230000220021BB
:105090000820FFF727FF0A4B00932300002200217E
:1050A0000920FFF71FFF00952B000022002106209A
:1050B000FFF718FFADE7C04634230020006CDC0288
:1050C0001BB70000008000403CB0004030B0004002
:1050D000002F685900800240008C864700C00240C3
:1050E000001BB700405973078000014BC058704740
:1050F00034230020F0B5C64600B504000D001700AB
:1051000098460C2001F094FA0600394BFA18394BF6
:105110009A4241D843011B1A9901C91AC9000918BA
:105120008901380001F084FA0200103A98235B00EC
:105130009A4237D84346013B062B39D8069B013BA0
:10514000062B35D83F09B74238D343461E04069B89
:105150001A0316432368002B36DB274B9C4244D0AE
:1051600080225201254B1A60254B1A60254B9B6803
:1051700011009943FAD12560A060231DC02292013D
:105180001A43212313602368002BFCDAE66008230E
:10519000136080BCB846F0BD1B4B1C4A11211C4853
:1051A00000F080F81B4B194A1921194800F07AF8D1
:1051B000194B164A1C21164800F074F8174B134A75
:1051C0002321134800F06EF822683F231340AB42BE
:1051D000C3D1A3681B051B0D8342BED1E368EE2239
:1051E000D2021340B342B8D1D3E780229201B9E78B
:1051F00080E84BD380F8A93200C0024000E00040B4
:1052000000F0004000C00040D4D1011014D30110C0
:1052100034D2011090D20110ACD20110F8D201109A
:1052200080239B000343014AD362704700800540FE
:10523000064BAA2212011A602F22DA60044B054A9B
:105240001A60024B5B68002BFBDA7047004002409B
:105250000060024000B0FA0000BEFDE703000A4A09
:105260001268002A08D0084A1068C318074A9A42F0
:1052700006D3054A13607047034A05491160F2E7F7
:1052800001204042F7E7C046B42800200000042077
:1052900010A600200020704701204042704710B542
:1052A000FFF7DAFF10B582B00C001900002A0CD00D
:1052B000084B002A0BD001920093230002000648FD
:1052C00002F0CEFB0120FFF7C7FF044BF1E7034AD2
:1052D000F1E7C04620D3011030D3011028BB0110E4
:1052E00070B52B4B2B4A1A602B4B2C4A1A602C4B57
:1052F0009A682A4B9343FAD12A4C01E008CC98478C
:10530000294B9C42FAD3FFF76FFE234B274A1A60C2
:10531000234B9B68DB43DB01FAD1254B40229A6784
:105320005A671A67DA66234C09E0234B234A862121
:105330002348FFF7B7FF2000FEF7E2FB0834214BBC
:105340009C4209D22368002BF5D0012BEDD120001F
:10535000FEF7E3FB0834F2E71B4CA1681B4DC022AB
:10536000280002F099F9A560EFF30583002B00D027
:1053700000BEFEF771F9FEF7ADFBFEF731FF144CEE
:1053800001E008CC9847134B9C42FAD370BDC0464D
:1053900000E00040BFCDFBFE00F00040FE7F3C007F
:1053A00000C00040881E0020981E0020FFFFFF0163
:1053B00000F00140801E002060D30110F0D30110E6
:1053C00080D30110881E002000ED00E000000020C6
:1053D000981E0020A81E00200FB400B583B0084816
:1053E00002F00EFB049B002B07D005A901911800C9
:1053F00002F016FB034802F003FB0120FFF72CFF2D
:10540000E0D3011020BC01109A4200D288547047AA
:10541000704710B5002802D00B684968984710BD46
:105420000100002007E083001B185B00501C08608F
:105430001078C01830380A681378303BDBB2092B7B
:10544000F1D97047F0B5DE4657464E464546E0B5C1
:1054500083B093461F000C9B9A460D9C0E9B994669
:105460000F9B9B0703D0B8460F00060022E0019275
:10547000A34688464E46B9460700B44207D2551C9B
:105480004B4641462020B84701342A00F5E73D004D
:105490004F465C46019B9B46B1464646B8463700A0
:1054A0002E0007E0013C551C5346185D4346390069
:1054B000B0472A00002CF5D135003E0047460F9B2F
:1054C0009B0707D4100003B0F0BCBB46B246A94608
:1054D000A046F0BDB0464E46B9462F005D46531B70
:1054E000B342EFD2541C4B4641462020B84722001D
:1054F000F5E7F0B5CE46474680B585B09446984668
:105500000C9D0D9C0EAB1B789946109A119B129E18
:10551000B7071CD4002B0CD0F7070AD54F46002F35
:1055200002D10C37374204D0013B02E030272F551F
:105530000134944201D21F2CF8D9F70707D59C42B9
:1055400005D21F2C03D830272F550134F5E7F70675
:1055500015D5770505D4002C03D0944224D09C4265
:1055600022D00F9A102A2BD00F9A102A30D00F9ADF
:10557000022A35D01F2C02D830222A5501341F2C84
:1055800005D84A46002A31D02D222A5501340396E7
:1055900002930194009543466246FFF753FF05B01E
:1055A000C0BCB946B046F0BD621E012C06D00F9FAC
:1055B000102F01D01400D4E7023CD2E71400D0E74A
:1055C000B206D1D41F2CCFD878222A550134D1E786
:1055D000B206CCD51F2CCAD858222A550134C9E7A7
:1055E0001F2CC7D860322A550134C3E7720703D590
:1055F0002B222A550134CAE73207C8D520222A5562
:105600000134C4E7F0B5DE4657464E464546E0B5A0
:1056100093B081468A46089209931CAB10CB1B7845
:105620009B461E9D219B9846002C03D11023424689
:105630009A4390468023DB0046461E4042461A426B
:1056400012D0002C22D000260EE03033D9B2771CC5
:105650000AAB99552900200000F0EAFFAC4216D3AE
:105660001F2F14D83E0004002900200000F0E0FFA6
:10567000CBB2092BE9D94246920605D54121C9187A
:10568000C9B20A39C9B2E2E76121F8E72700434607
:105690000693209B05931F9B049303955B460293FF
:1056A00001970AAB0093099B089A51464846FFF7B9
:1056B00020FF13B0F0BCBB46B246A946A046F0BDE1
:1056C000F0B5DE4657464E464546E0B595B00890E3
:1056D00009910A920B931E9E1F9C20AB1B789B4640
:1056E000229B9946239D269B9A463300234303D150
:1056F000103352469A4392468023DB0057461F40A0
:1057000052461A4219D0330023432DD0002714E00B
:105710003033DAB27B1C98460CABDA554A462B0084
:105720003000210000F0C2FFA5421FD819D0434627
:105730001F2B1BD8474606000C004A462B003000A2
:10574000210000F0B3FFD3B2092BE1D952469206F3
:1057500005D54122D218D2B20A3AD2B2DAE7612292
:10576000F8E7B145E3D901E0002398465346069394
:10577000259B0593249B04934B4603935B4602931E
:10578000434601930CAB00930B9B0A9A0999089826
:10579000FFF7AFFE15B0F0BCBB46B246A946A04627
:1057A000F0BD0000F0B5DE4657464E464546E0B532
:1057B00091B083468A460C9298461A9C08941B9D89
:1057C000099522002B002000290001F0FAF9002899
:1057D00000D0E5E001225242D74B2000290001F021
:1057E000EBF9002800D0DBE001225242D34B20002D
:1057F000290001F0CBF9002800D0D1E000220023DD
:10580000089E3000099D290001F0C0F9002800D051
:10581000DDE008980999069007918023DB001E9A25
:105820001A400D921E9A1A4201D106231C93069823
:10583000079904000D000A000600024300D1D1E0E0
:10584000080D4005400DBE4CA44660440A03120BEF
:10585000BC4B13431F0001F0C7F9BB4ABB4B01F01F
:1058600052F9BB4ABB4B01F027F904000D0000229E
:10587000B94B3000390001F016F9B84AB84B01F0C5
:1058800042F902000B002000290001F015F901F097
:10589000C3F9814601F0A8F904000D00B14AB24BEA
:1058A00001F031F90022B14B01F006F901F0B4F931
:1058B0000600AF4AAF4B2000290001F024F9040094
:1058C0000D00300001F090F9AB4AAC4B01F01BF930
:1058D00002000B002000290001F0E5F804000D0093
:1058E00002000B0001F00FF90A900B91A44BF31882
:1058F00000261F0522002B002000290001F0DCF803
:105900000E900F9122002B0000208021C90501F08C
:10591000CAF804000D0000229A4B0A980B9901F076
:10592000D4F80022984B01F0C7F802000B000A9847
:105930000B9901F0CAF80022944B01F0BDF8020067
:105940000B000A980B9901F0C0F802000B00200030
:10595000290001F0B1F802000B000E980F9901F038
:10596000B4F80022774B01F0A7F832003B0001F0B9
:10597000CAF806000F0004000D00069A079B01F00C
:105980001BF9002830D001235B429C46E1440022F1
:105990007D4B3000390001F098F804000D0023E041
:1059A0001E9B04931D9B03931C9B0293089A099BC7
:1059B0000092019343460C9A5146584600F0FCF879
:1059C00011B0F0BCBB46B246A946A046F0BD0023CC
:1059D000002406930794069680231B069C46654484
:1059E00007951AE7002399464B466333C62B1ED80A
:1059F00004261E9B1B0526D52B0023430FD0644A8B
:105A0000644B0698079901F0CFF8002879D000225E
:105A1000614B0698079901F0B9F8002871D01C9BDA
:105A20004B4506DD4A46981A431E1C9303E00526A3
:105A3000DFE700231C938023DB001E9A1A431E928B
:105A40000026002399461D9B9E4264D29F1B022381
:105A50001E9A1A400A921E9A134202D0002E00D0BB
:105A600000274B46002B07D022002B0006980799F1
:105A700001F02BF80690079100220023089809995D
:105A800001F084F8002848D1444B1E9A1340049337
:105A900003971C9B0293069B079C0093019443462B
:105AA0000C9A5146584600F087F8002E00D187E73F
:105AB0001E9B9B063DD54525441C4346020051468E
:105AC0002800D8474B46DA179B1853400522059209
:105AD000013E0496002203920A3202924A46D00FF7
